{
  "_format": "hh-sol-artifact-1",
  "contractName": "MultiArtToken",
  "sourceName": "contracts/MultiArtToken.sol",
  "abi": [
    {
      "inputs": [
        {
          "internalType": "string",
          "name": "_name",
          "type": "string"
        },
        {
          "internalType": "string",
          "name": "_symbol",
          "type": "string"
        }
      ],
      "stateMutability": "nonpayable",
      "type": "constructor"
    },
    {
      "anonymous": false,
      "inputs": [
        {
          "indexed": true,
          "internalType": "address",
          "name": "owner",
          "type": "address"
        },
        {
          "indexed": true,
          "internalType": "address",
          "name": "approved",
          "type": "address"
        },
        {
          "indexed": true,
          "internalType": "uint256",
          "name": "tokenId",
          "type": "uint256"
        }
      ],
      "name": "Approval",
      "type": "event"
    },
    {
      "anonymous": false,
      "inputs": [
        {
          "indexed": true,
          "internalType": "address",
          "name": "owner",
          "type": "address"
        },
        {
          "indexed": true,
          "internalType": "address",
          "name": "operator",
          "type": "address"
        },
        {
          "indexed": false,
          "internalType": "bool",
          "name": "approved",
          "type": "bool"
        }
      ],
      "name": "ApprovalForAll",
      "type": "event"
    },
    {
      "anonymous": false,
      "inputs": [
        {
          "indexed": true,
          "internalType": "address",
          "name": "from",
          "type": "address"
        },
        {
          "indexed": true,
          "internalType": "uint256",
          "name": "tokenId",
          "type": "uint256"
        }
      ],
      "name": "Signed",
      "type": "event"
    },
    {
      "anonymous": false,
      "inputs": [
        {
          "indexed": true,
          "internalType": "address",
          "name": "from",
          "type": "address"
        },
        {
          "indexed": true,
          "internalType": "address",
          "name": "to",
          "type": "address"
        },
        {
          "indexed": true,
          "internalType": "uint256",
          "name": "tokenId",
          "type": "uint256"
        }
      ],
      "name": "Transfer",
      "type": "event"
    },
    {
      "inputs": [],
      "name": "DOMAIN_SEPARATOR",
      "outputs": [
        {
          "internalType": "bytes32",
          "name": "",
          "type": "bytes32"
        }
      ],
      "stateMutability": "view",
      "type": "function"
    },
    {
      "inputs": [
        {
          "internalType": "address",
          "name": "to",
          "type": "address"
        },
        {
          "internalType": "uint256",
          "name": "tokenId",
          "type": "uint256"
        }
      ],
      "name": "approve",
      "outputs": [],
      "stateMutability": "nonpayable",
      "type": "function"
    },
    {
      "inputs": [],
      "name": "artist",
      "outputs": [
        {
          "internalType": "address",
          "name": "",
          "type": "address"
        }
      ],
      "stateMutability": "view",
      "type": "function"
    },
    {
      "inputs": [
        {
          "internalType": "address",
          "name": "owner",
          "type": "address"
        }
      ],
      "name": "balanceOf",
      "outputs": [
        {
          "internalType": "uint256",
          "name": "",
          "type": "uint256"
        }
      ],
      "stateMutability": "view",
      "type": "function"
    },
    {
      "inputs": [
        {
          "internalType": "uint256",
          "name": "",
          "type": "uint256"
        }
      ],
      "name": "editionSupplies",
      "outputs": [
        {
          "internalType": "uint256",
          "name": "",
          "type": "uint256"
        }
      ],
      "stateMutability": "view",
      "type": "function"
    },
    {
      "inputs": [
        {
          "internalType": "uint256",
          "name": "tokenId",
          "type": "uint256"
        }
      ],
      "name": "getApproved",
      "outputs": [
        {
          "internalType": "address",
          "name": "",
          "type": "address"
        }
      ],
      "stateMutability": "view",
      "type": "function"
    },
    {
      "inputs": [
        {
          "internalType": "uint256",
          "name": "_tokenId",
          "type": "uint256"
        }
      ],
      "name": "getSignature",
      "outputs": [
        {
          "internalType": "bytes",
          "name": "",
          "type": "bytes"
        }
      ],
      "stateMutability": "view",
      "type": "function"
    },
    {
      "inputs": [
        {
          "internalType": "address",
          "name": "owner",
          "type": "address"
        },
        {
          "internalType": "address",
          "name": "operator",
          "type": "address"
        }
      ],
      "name": "isApprovedForAll",
      "outputs": [
        {
          "internalType": "bool",
          "name": "",
          "type": "bool"
        }
      ],
      "stateMutability": "view",
      "type": "function"
    },
    {
      "inputs": [
        {
          "components": [
            {
              "internalType": "address",
              "name": "verificationAddress",
              "type": "address"
            },
            {
              "internalType": "string",
              "name": "artist",
              "type": "string"
            },
            {
              "internalType": "address",
              "name": "wallet",
              "type": "address"
            },
            {
              "internalType": "string",
              "name": "contents",
              "type": "string"
            }
          ],
          "internalType": "struct EditionsExtension.Signature",
          "name": "_message",
          "type": "tuple"
        },
        {
          "internalType": "bytes",
          "name": "_signature",
          "type": "bytes"
        },
        {
          "internalType": "uint256",
          "name": "_tokenId",
          "type": "uint256"
        }
      ],
      "name": "isSigned",
      "outputs": [
        {
          "internalType": "bool",
          "name": "",
          "type": "bool"
        }
      ],
      "stateMutability": "view",
      "type": "function"
    },
    {
      "inputs": [
        {
          "internalType": "string",
          "name": "_tokenURI",
          "type": "string"
        },
        {
          "internalType": "uint256",
          "name": "_editionNumbers",
          "type": "uint256"
        }
      ],
      "name": "mintEdition",
      "outputs": [],
      "stateMutability": "nonpayable",
      "type": "function"
    },
    {
      "inputs": [],
      "name": "name",
      "outputs": [
        {
          "internalType": "string",
          "name": "",
          "type": "string"
        }
      ],
      "stateMutability": "view",
      "type": "function"
    },
    {
      "inputs": [
        {
          "internalType": "uint256",
          "name": "",
          "type": "uint256"
        }
      ],
      "name": "originalIds",
      "outputs": [
        {
          "internalType": "uint256",
          "name": "",
          "type": "uint256"
        }
      ],
      "stateMutability": "view",
      "type": "function"
    },
    {
      "inputs": [
        {
          "internalType": "uint256",
          "name": "tokenId",
          "type": "uint256"
        }
      ],
      "name": "ownerOf",
      "outputs": [
        {
          "internalType": "address",
          "name": "",
          "type": "address"
        }
      ],
      "stateMutability": "view",
      "type": "function"
    },
    {
      "inputs": [
        {
          "internalType": "address",
          "name": "from",
          "type": "address"
        },
        {
          "internalType": "address",
          "name": "to",
          "type": "address"
        },
        {
          "internalType": "uint256",
          "name": "tokenId",
          "type": "uint256"
        }
      ],
      "name": "safeTransferFrom",
      "outputs": [],
      "stateMutability": "nonpayable",
      "type": "function"
    },
    {
      "inputs": [
        {
          "internalType": "address",
          "name": "from",
          "type": "address"
        },
        {
          "internalType": "address",
          "name": "to",
          "type": "address"
        },
        {
          "internalType": "uint256",
          "name": "tokenId",
          "type": "uint256"
        },
        {
          "internalType": "bytes",
          "name": "_data",
          "type": "bytes"
        }
      ],
      "name": "safeTransferFrom",
      "outputs": [],
      "stateMutability": "nonpayable",
      "type": "function"
    },
    {
      "inputs": [
        {
          "internalType": "address",
          "name": "operator",
          "type": "address"
        },
        {
          "internalType": "bool",
          "name": "approved",
          "type": "bool"
        }
      ],
      "name": "setApprovalForAll",
      "outputs": [],
      "stateMutability": "nonpayable",
      "type": "function"
    },
    {
      "inputs": [
        {
          "internalType": "uint256",
          "name": "tokenId",
          "type": "uint256"
        },
        {
          "components": [
            {
              "internalType": "address",
              "name": "verificationAddress",
              "type": "address"
            },
            {
              "internalType": "string",
              "name": "artist",
              "type": "string"
            },
            {
              "internalType": "address",
              "name": "wallet",
              "type": "address"
            },
            {
              "internalType": "string",
              "name": "contents",
              "type": "string"
            }
          ],
          "internalType": "struct EditionsExtension.Signature",
          "name": "message",
          "type": "tuple"
        },
        {
          "internalType": "bytes",
          "name": "signature",
          "type": "bytes"
        }
      ],
      "name": "sign",
      "outputs": [],
      "stateMutability": "nonpayable",
      "type": "function"
    },
    {
      "inputs": [
        {
          "internalType": "bytes4",
          "name": "interfaceId",
          "type": "bytes4"
        }
      ],
      "name": "supportsInterface",
      "outputs": [
        {
          "internalType": "bool",
          "name": "",
          "type": "bool"
        }
      ],
      "stateMutability": "view",
      "type": "function"
    },
    {
      "inputs": [],
      "name": "symbol",
      "outputs": [
        {
          "internalType": "string",
          "name": "",
          "type": "string"
        }
      ],
      "stateMutability": "view",
      "type": "function"
    },
    {
      "inputs": [
        {
          "internalType": "uint256",
          "name": "tokenId",
          "type": "uint256"
        }
      ],
      "name": "tokenURI",
      "outputs": [
        {
          "internalType": "string",
          "name": "",
          "type": "string"
        }
      ],
      "stateMutability": "view",
      "type": "function"
    },
    {
      "inputs": [],
      "name": "topId",
      "outputs": [
        {
          "internalType": "uint256",
          "name": "",
          "type": "uint256"
        }
      ],
      "stateMutability": "view",
      "type": "function"
    },
    {
      "inputs": [
        {
          "internalType": "address",
          "name": "from",
          "type": "address"
        },
        {
          "internalType": "address",
          "name": "to",
          "type": "address"
        },
        {
          "internalType": "uint256",
          "name": "tokenId",
          "type": "uint256"
        }
      ],
      "name": "transferFrom",
      "outputs": [],
      "stateMutability": "nonpayable",
      "type": "function"
    }
  ],
  "bytecode": "0x608060405260006009553480156200001657600080fd5b50604051620044623803806200446283398181016040528101906200003c919062000355565b818181600090805190602001906200005692919062000233565b5080600190805190602001906200006f92919062000233565b50505062000083336200015b60201b60201c565b7f8b73c3c69bb8fe3d512ecc4cf759cc79239f7b179b0ffacaa9a75d522b39400f6040518060400160405280600f81526020017f417274697374277320446f6d61696e0000000000000000000000000000000000815250805190602001206040518060400160405280600181526020017f3100000000000000000000000000000000000000000000000000000000000000815250805190602001206001306040516020016200013795949392919062000463565b60405160208183030381529060405280519060200120600781905550505062000683565b600073ffffffffffffffffffffffffffffffffffffffff16600a60009054906101000a900473ffffffffffffffffffffffffffffffffffffffff1673ffffffffffffffffffffffffffffffffffffffff1614620001ef576040517f08c379a0000000000000000000000000000000000000000000000000000000008152600401620001e690620004c0565b60405180910390fd5b80600a60006101000a81548173ffffffffffffffffffffffffffffffffffffffff021916908373ffffffffffffffffffffffffffffffffffffffff16021790555050565b8280546200024190620005ef565b90600052602060002090601f016020900481019282620002655760008555620002b1565b82601f106200028057805160ff1916838001178555620002b1565b82800160010185558215620002b1579182015b82811115620002b057825182559160200191906001019062000293565b5b509050620002c09190620002c4565b5090565b5b80821115620002df576000816000905550600101620002c5565b5090565b6000620002fa620002f48462000516565b620004e2565b9050828152602081018484840111156200031357600080fd5b62000320848285620005b9565b509392505050565b600082601f8301126200033a57600080fd5b81516200034c848260208601620002e3565b91505092915050565b600080604083850312156200036957600080fd5b600083015167ffffffffffffffff8111156200038457600080fd5b620003928582860162000328565b925050602083015167ffffffffffffffff811115620003b057600080fd5b620003be8582860162000328565b9150509250929050565b620003d3816200055a565b82525050565b620003e4816200056e565b82525050565b620003f581620005a5565b82525050565b60006200040a60318362000549565b91507f455243373231457874656e73696f6e733a20746865206172746973742068617360008301527f20616c7265616479206265656e207365740000000000000000000000000000006020830152604082019050919050565b600060a0820190506200047a6000830188620003d9565b620004896020830187620003d9565b620004986040830186620003d9565b620004a76060830185620003ea565b620004b66080830184620003c8565b9695505050505050565b60006020820190508181036000830152620004db81620003fb565b9050919050565b6000604051905081810181811067ffffffffffffffff821117156200050c576200050b62000654565b5b8060405250919050565b600067ffffffffffffffff82111562000534576200053362000654565b5b601f19601f8301169050602081019050919050565b600082825260208201905092915050565b6000620005678262000578565b9050919050565b6000819050919050565b600073ffffffffffffffffffffffffffffffffffffffff82169050919050565b600060ff82169050919050565b6000620005b28262000598565b9050919050565b60005b83811015620005d9578082015181840152602081019050620005bc565b83811115620005e9576000848401525b50505050565b600060028204905060018216806200060857607f821691505b602082108114156200061f576200061e62000625565b5b50919050565b7f4e487b7100000000000000000000000000000000000000000000000000000000600052602260045260246000fd5b7f4e487b7100000000000000000000000000000000000000000000000000000000600052604160045260246000fd5b613dcf80620006936000396000f3fe608060405234801561001057600080fd5b50600436106101425760003560e01c806352dba90f116100b8578063a22cb4651161007c578063a22cb46514610389578063b88d4fde146103a5578063c87b56dd146103c1578063d52d26ff146103f1578063ddb29c7014610421578063e985e9c51461045157610142565b806352dba90f146102bf5780636352211e146102ef578063686b209e1461031f57806370a082311461033b57806395d89b411461036b57610142565b806323b872dd1161010a57806323b872dd146102115780633242d7631461022d578063331f5f8c146102495780633644e5151461026757806342842e0e1461028557806343bc1612146102a157610142565b806301ffc9a71461014757806302a569e61461017757806306fdde03146101a7578063081812fc146101c5578063095ea7b3146101f5575b600080fd5b610161600480360381019061015c9190612771565b610481565b60405161016e91906134e3565b60405180910390f35b610191600480360381019061018c9190612896565b610563565b60405161019e91906135bf565b60405180910390f35b6101af61066b565b6040516101bc91906135e1565b60405180910390f35b6101df60048036038101906101da9190612896565b6106fd565b6040516101ec919061347c565b60405180910390f35b61020f600480360381019061020a9190612735565b610782565b005b61022b6004803603810190610226919061262f565b61089a565b005b610247600480360381019061024291906128bf565b6108fa565b005b61025161090a565b60405161025e9190613943565b60405180910390f35b61026f610910565b60405161027c91906134fe565b60405180910390f35b61029f600480360381019061029a919061262f565b610916565b005b6102a9610936565b6040516102b6919061347c565b60405180910390f35b6102d960048036038101906102d49190612896565b61095c565b6040516102e69190613943565b60405180910390f35b61030960048036038101906103049190612896565b610974565b604051610316919061347c565b60405180910390f35b610339600480360381019061033491906127c3565b610a26565b005b610355600480360381019061035091906125ca565b610a34565b6040516103629190613943565b60405180910390f35b610373610aec565b60405161038091906135e1565b60405180910390f35b6103a3600480360381019061039e91906126f9565b610b7e565b005b6103bf60048036038101906103ba919061267e565b610cff565b005b6103db60048036038101906103d69190612896565b610d61565b6040516103e891906135e1565b60405180910390f35b61040b60048036038101906104069190612896565b610eb3565b6040516104189190613943565b60405180910390f35b61043b60048036038101906104369190612817565b610ed7565b60405161044891906134e3565b60405180910390f35b61046b600480360381019061046691906125f3565b610ffc565b60405161047891906134e3565b60405180910390f35b60007f80ac58cd000000000000000000000000000000000000000000000000000000007bffffffffffffffffffffffffffffffffffffffffffffffffffffffff1916827bffffffffffffffffffffffffffffffffffffffffffffffffffffffff1916148061054c57507f5b5e139f000000000000000000000000000000000000000000000000000000007bffffffffffffffffffffffffffffffffffffffffffffffffffffffff1916827bffffffffffffffffffffffffffffffffffffffffffffffffffffffff1916145b8061055c575061055b82611090565b5b9050919050565b6060600060086000848152602001908152602001600020805461058590613bba565b905014156105c8576040517f08c379a00000000000000000000000000000000000000000000000000000000081526004016105bf90613883565b60405180910390fd5b6008600083815260200190815260200160002080546105e690613bba565b80601f016020809104026020016040519081016040528092919081815260200182805461061290613bba565b801561065f5780601f106106345761010080835404028352916020019161065f565b820191906000526020600020905b81548152906001019060200180831161064257829003601f168201915b50505050509050919050565b60606000805461067a90613bba565b80601f01602080910402602001604051908101604052809291908181526020018280546106a690613bba565b80156106f35780601f106106c8576101008083540402835291602001916106f3565b820191906000526020600020905b8154815290600101906020018083116106d657829003601f168201915b5050505050905090565b6000610708826110fa565b610747576040517f08c379a000000000000000000000000000000000000000000000000000000000815260040161073e90613863565b60405180910390fd5b6004600083815260200190815260200160002060009054906101000a900473ffffffffffffffffffffffffffffffffffffffff169050919050565b600061078d82610974565b90508073ffffffffffffffffffffffffffffffffffffffff168373ffffffffffffffffffffffffffffffffffffffff1614156107fe576040517f08c379a00000000000000000000000000000000000000000000000000000000081526004016107f5906138e3565b60405180910390fd5b8073ffffffffffffffffffffffffffffffffffffffff1661081d611166565b73ffffffffffffffffffffffffffffffffffffffff16148061084c575061084b81610846611166565b610ffc565b5b61088b576040517f08c379a000000000000000000000000000000000000000000000000000000000815260040161088290613763565b60405180910390fd5b610895838361116e565b505050565b6108ab6108a5611166565b82611227565b6108ea576040517f08c379a00000000000000000000000000000000000000000000000000000000081526004016108e190613903565b60405180910390fd5b6108f5838383611305565b505050565b610905838383611561565b505050565b60095481565b60075481565b61093183838360405180602001604052806000815250610cff565b505050565b600a60009054906101000a900473ffffffffffffffffffffffffffffffffffffffff1681565b600b6020528060005260406000206000915090505481565b6000806002600084815260200190815260200160002060009054906101000a900473ffffffffffffffffffffffffffffffffffffffff169050600073ffffffffffffffffffffffffffffffffffffffff168173ffffffffffffffffffffffffffffffffffffffff161415610a1d576040517f08c379a0000000000000000000000000000000000000000000000000000000008152600401610a14906137a3565b60405180910390fd5b80915050919050565b610a308282611793565b5050565b60008073ffffffffffffffffffffffffffffffffffffffff168273ffffffffffffffffffffffffffffffffffffffff161415610aa5576040517f08c379a0000000000000000000000000000000000000000000000000000000008152600401610a9c90613783565b60405180910390fd5b600360008373ffffffffffffffffffffffffffffffffffffffff1673ffffffffffffffffffffffffffffffffffffffff168152602001908152602001600020549050919050565b606060018054610afb90613bba565b80601f0160208091040260200160405190810160405280929190818152602001828054610b2790613bba565b8015610b745780601f10610b4957610100808354040283529160200191610b74565b820191906000526020600020905b815481529060010190602001808311610b5757829003601f168201915b5050505050905090565b610b86611166565b73ffffffffffffffffffffffffffffffffffffffff168273ffffffffffffffffffffffffffffffffffffffff161415610bf4576040517f08c379a0000000000000000000000000000000000000000000000000000000008152600401610beb90613703565b60405180910390fd5b8060056000610c01611166565b73ffffffffffffffffffffffffffffffffffffffff1673ffffffffffffffffffffffffffffffffffffffff16815260200190815260200160002060008473ffffffffffffffffffffffffffffffffffffffff1673ffffffffffffffffffffffffffffffffffffffff16815260200190815260200160002060006101000a81548160ff0219169083151502179055508173ffffffffffffffffffffffffffffffffffffffff16610cae611166565b73ffffffffffffffffffffffffffffffffffffffff167f17307eab39ab6107e8899845ad3d59bd9653f200f220920489ca2b5937696c3183604051610cf391906134e3565b60405180910390a35050565b610d10610d0a611166565b83611227565b610d4f576040517f08c379a0000000000000000000000000000000000000000000000000000000008152600401610d4690613903565b60405180910390fd5b610d5b8484848461193d565b50505050565b6060610d6c826110fa565b610dab576040517f08c379a0000000000000000000000000000000000000000000000000000000008152600401610da290613843565b60405180910390fd5b6000600660008481526020019081526020016000208054610dcb90613bba565b80601f0160208091040260200160405190810160405280929190818152602001828054610df790613bba565b8015610e445780601f10610e1957610100808354040283529160200191610e44565b820191906000526020600020905b815481529060010190602001808311610e2757829003601f168201915b505050505090506000610e55611999565b9050600081511415610e6b578192505050610eae565b600082511115610ea0578082604051602001610e88929190613421565b60405160208183030381529060405292505050610eae565b610ea9846119b0565b925050505b919050565b600c8181548110610ec357600080fd5b906000526020600020016000915090505481565b600080610ee385611a57565b90506000610ef18286611ae5565b9050600a60009054906101000a900473ffffffffffffffffffffffffffffffffffffffff1673ffffffffffffffffffffffffffffffffffffffff168173ffffffffffffffffffffffffffffffffffffffff16148015610ff15750610ff0600860008681526020019081526020016000208054610f6c90613bba565b80601f0160208091040260200160405190810160405280929190818152602001828054610f9890613bba565b8015610fe55780601f10610fba57610100808354040283529160200191610fe5565b820191906000526020600020905b815481529060010190602001808311610fc857829003601f168201915b505050505086611b5f565b5b925050509392505050565b6000600560008473ffffffffffffffffffffffffffffffffffffffff1673ffffffffffffffffffffffffffffffffffffffff16815260200190815260200160002060008373ffffffffffffffffffffffffffffffffffffffff1673ffffffffffffffffffffffffffffffffffffffff16815260200190815260200160002060009054906101000a900460ff16905092915050565b60007f01ffc9a7000000000000000000000000000000000000000000000000000000007bffffffffffffffffffffffffffffffffffffffffffffffffffffffff1916827bffffffffffffffffffffffffffffffffffffffffffffffffffffffff1916149050919050565b60008073ffffffffffffffffffffffffffffffffffffffff166002600084815260200190815260200160002060009054906101000a900473ffffffffffffffffffffffffffffffffffffffff1673ffffffffffffffffffffffffffffffffffffffff1614159050919050565b600033905090565b816004600083815260200190815260200160002060006101000a81548173ffffffffffffffffffffffffffffffffffffffff021916908373ffffffffffffffffffffffffffffffffffffffff160217905550808273ffffffffffffffffffffffffffffffffffffffff166111e183610974565b73ffffffffffffffffffffffffffffffffffffffff167f8c5be1e5ebec7d5bd14f71427d1e84f3dd0314c0f7b2291e5b200ac8c7c3b92560405160405180910390a45050565b6000611232826110fa565b611271576040517f08c379a000000000000000000000000000000000000000000000000000000000815260040161126890613743565b60405180910390fd5b600061127c83610974565b90508073ffffffffffffffffffffffffffffffffffffffff168473ffffffffffffffffffffffffffffffffffffffff1614806112eb57508373ffffffffffffffffffffffffffffffffffffffff166112d3846106fd565b73ffffffffffffffffffffffffffffffffffffffff16145b806112fc57506112fb8185610ffc565b5b91505092915050565b8273ffffffffffffffffffffffffffffffffffffffff1661132582610974565b73ffffffffffffffffffffffffffffffffffffffff161461137b576040517f08c379a0000000000000000000000000000000000000000000000000000000008152600401611372906138a3565b60405180910390fd5b600073ffffffffffffffffffffffffffffffffffffffff168273ffffffffffffffffffffffffffffffffffffffff1614156113eb576040517f08c379a00000000000000000000000000000000000000000000000000000000081526004016113e2906136e3565b60405180910390fd5b6113f6838383611b9b565b61140160008261116e565b6001600360008573ffffffffffffffffffffffffffffffffffffffff1673ffffffffffffffffffffffffffffffffffffffff16815260200190815260200160002060008282546114519190613ab9565b925050819055506001600360008473ffffffffffffffffffffffffffffffffffffffff1673ffffffffffffffffffffffffffffffffffffffff16815260200190815260200160002060008282546114a89190613a32565b92505081905550816002600083815260200190815260200160002060006101000a81548173ffffffffffffffffffffffffffffffffffffffff021916908373ffffffffffffffffffffffffffffffffffffffff160217905550808273ffffffffffffffffffffffffffffffffffffffff168473ffffffffffffffffffffffffffffffffffffffff167fddf252ad1be2c89b69c2b068fc378daa952ba7f163c4a11628f55a4df523b3ef60405160405180910390a4505050565b600a60009054906101000a900473ffffffffffffffffffffffffffffffffffffffff1673ffffffffffffffffffffffffffffffffffffffff163373ffffffffffffffffffffffffffffffffffffffff16146115f1576040517f08c379a00000000000000000000000000000000000000000000000000000000081526004016115e890613823565b60405180910390fd5b600060086000858152602001908152602001600020805461161190613bba565b905014611653576040517f08c379a000000000000000000000000000000000000000000000000000000000815260040161164a90613683565b60405180910390fd5b600061165e83611a57565b9050600061166c8284611ae5565b9050600a60009054906101000a900473ffffffffffffffffffffffffffffffffffffffff1673ffffffffffffffffffffffffffffffffffffffff168173ffffffffffffffffffffffffffffffffffffffff16146116fe576040517f08c379a00000000000000000000000000000000000000000000000000000000081526004016116f590613623565b60405180910390fd5b826008600087815260200190815260200160002090805190602001906117259291906122c4565b5084600a60009054906101000a900473ffffffffffffffffffffffffffffffffffffffff1673ffffffffffffffffffffffffffffffffffffffff167ff4b7ab5b8fc49d6d35d323cae6a96e1441b461f862dfc5aff92e806e2839b5b060405160405180910390a35050505050565b600a60009054906101000a900473ffffffffffffffffffffffffffffffffffffffff1673ffffffffffffffffffffffffffffffffffffffff163373ffffffffffffffffffffffffffffffffffffffff1614611823576040517f08c379a000000000000000000000000000000000000000000000000000000000815260040161181a906136c3565b60405180910390fd5b6064811115611867576040517f08c379a000000000000000000000000000000000000000000000000000000000815260040161185e90613923565b60405180910390fd5b600c60016009546118789190613a32565b908060018154018082558091505060019003906000526020600020016000909190919091505580600b600060016009546118b29190613a32565b8152602001908152602001600020819055506000600190505b6001826118d89190613a32565b811015611938576118f633826009546118f19190613a32565b611ba0565b61190d816009546119079190613a32565b84611d6e565b6009600081548092919061192090613bec565b9190505550808061193090613bec565b9150506118cb565b505050565b611948848484611305565b61195484848484611de2565b611993576040517f08c379a000000000000000000000000000000000000000000000000000000000815260040161198a90613663565b60405180910390fd5b50505050565b606060405180602001604052806000815250905090565b60606119bb826110fa565b6119fa576040517f08c379a00000000000000000000000000000000000000000000000000000000081526004016119f1906138c3565b60405180910390fd5b6000611a04611999565b90506000815111611a245760405180602001604052806000815250611a4f565b80611a2e84611f79565b604051602001611a3f929190613421565b6040516020818303038152906040525b915050919050565b60006007547f1e42c447b01f5573e84d49a0ca5625af0baaf3c2e093f2bd448e06d657f3582e30846020015185604001518660600151604051602001611aa1959493929190613519565b60405160208183030381529060405280519060200120604051602001611ac8929190613445565b604051602081830303815290604052805190602001209050919050565b60006041825114611b2b576040517f08c379a0000000000000000000000000000000000000000000000000000000008152600401611b2290613643565b60405180910390fd5b60008060006020850151925060408501519150606085015160001a9050611b5486828585612126565b935050505092915050565b60008151835114611b735760009050611b95565b6000806000855190506020860192506020850191508082208184201493505050505b92915050565b505050565b600073ffffffffffffffffffffffffffffffffffffffff168273ffffffffffffffffffffffffffffffffffffffff161415611c10576040517f08c379a0000000000000000000000000000000000000000000000000000000008152600401611c0790613803565b60405180910390fd5b611c19816110fa565b15611c59576040517f08c379a0000000000000000000000000000000000000000000000000000000008152600401611c50906136a3565b60405180910390fd5b611c6560008383611b9b565b6001600360008473ffffffffffffffffffffffffffffffffffffffff1673ffffffffffffffffffffffffffffffffffffffff1681526020019081526020016000206000828254611cb59190613a32565b92505081905550816002600083815260200190815260200160002060006101000a81548173ffffffffffffffffffffffffffffffffffffffff021916908373ffffffffffffffffffffffffffffffffffffffff160217905550808273ffffffffffffffffffffffffffffffffffffffff16600073ffffffffffffffffffffffffffffffffffffffff167fddf252ad1be2c89b69c2b068fc378daa952ba7f163c4a11628f55a4df523b3ef60405160405180910390a45050565b611d77826110fa565b611db6576040517f08c379a0000000000000000000000000000000000000000000000000000000008152600401611dad906137c3565b60405180910390fd5b80600660008481526020019081526020016000209080519060200190611ddd92919061234a565b505050565b6000611e038473ffffffffffffffffffffffffffffffffffffffff166122b1565b15611f6c578373ffffffffffffffffffffffffffffffffffffffff1663150b7a02611e2c611166565b8786866040518563ffffffff1660e01b8152600401611e4e9493929190613497565b602060405180830381600087803b158015611e6857600080fd5b505af1925050508015611e9957506040513d601f19601f82011682018060405250810190611e96919061279a565b60015b611f1c573d8060008114611ec9576040519150601f19603f3d011682016040523d82523d6000602084013e611ece565b606091505b50600081511415611f14576040517f08c379a0000000000000000000000000000000000000000000000000000000008152600401611f0b90613663565b60405180910390fd5b805181602001fd5b63150b7a0260e01b7bffffffffffffffffffffffffffffffffffffffffffffffffffffffff1916817bffffffffffffffffffffffffffffffffffffffffffffffffffffffff191614915050611f71565b600190505b949350505050565b60606000821415611fc1576040518060400160405280600181526020017f30000000000000000000000000000000000000000000000000000000000000008152509050612121565b600082905060005b60008214611ff3578080611fdc90613bec565b915050600a82611fec9190613a88565b9150611fc9565b60008167ffffffffffffffff811115612035577f4e487b7100000000000000000000000000000000000000000000000000000000600052604160045260246000fd5b6040519080825280601f01601f1916602001820160405280156120675781602001600182028036833780820191505090505b5090505b6000851461211a576001826120809190613ab9565b9150600a8561208f9190613c3f565b603061209b9190613a32565b60f81b8183815181106120d7577f4e487b7100000000000000000000000000000000000000000000000000000000600052603260045260246000fd5b60200101907effffffffffffffffffffffffffffffffffffffffffffffffffffffffffffff1916908160001a905350600a856121139190613a88565b945061206b565b8093505050505b919050565b60007f7fffffffffffffffffffffffffffffff5d576e7357a4501ddfe92f46681b20a08260001c111561218e576040517f08c379a000000000000000000000000000000000000000000000000000000000815260040161218590613723565b60405180910390fd5b601b8460ff1614806121a35750601c8460ff16145b6121e2576040517f08c379a00000000000000000000000000000000000000000000000000000000081526004016121d9906137e3565b60405180910390fd5b600060018686868660405160008152602001604052604051612207949392919061357a565b6020604051602081039080840390855afa158015612229573d6000803e3d6000fd5b505050602060405103519050600073ffffffffffffffffffffffffffffffffffffffff168173ffffffffffffffffffffffffffffffffffffffff1614156122a5576040517f08c379a000000000000000000000000000000000000000000000000000000000815260040161229c90613603565b60405180910390fd5b80915050949350505050565b600080823b905060008111915050919050565b8280546122d090613bba565b90600052602060002090601f0160209004810192826122f25760008555612339565b82601f1061230b57805160ff1916838001178555612339565b82800160010185558215612339579182015b8281111561233857825182559160200191906001019061231d565b5b50905061234691906123d0565b5090565b82805461235690613bba565b90600052602060002090601f01602090048101928261237857600085556123bf565b82601f1061239157805160ff19168380011785556123bf565b828001600101855582156123bf579182015b828111156123be5782518255916020019190600101906123a3565b5b5090506123cc91906123d0565b5090565b5b808211156123e95760008160009055506001016123d1565b5090565b60006124006123fb8461398f565b61395e565b90508281526020810184848401111561241857600080fd5b612423848285613b78565b509392505050565b600061243e612439846139bf565b61395e565b90508281526020810184848401111561245657600080fd5b612461848285613b78565b509392505050565b60008135905061247881613d3d565b92915050565b60008135905061248d81613d54565b92915050565b6000813590506124a281613d6b565b92915050565b6000815190506124b781613d6b565b92915050565b600082601f8301126124ce57600080fd5b81356124de8482602086016123ed565b91505092915050565b600082601f8301126124f857600080fd5b813561250884826020860161242b565b91505092915050565b60006080828403121561252357600080fd5b61252d608061395e565b9050600061253d84828501612469565b600083015250602082013567ffffffffffffffff81111561255d57600080fd5b612569848285016124e7565b602083015250604061257d84828501612469565b604083015250606082013567ffffffffffffffff81111561259d57600080fd5b6125a9848285016124e7565b60608301525092915050565b6000813590506125c481613d82565b92915050565b6000602082840312156125dc57600080fd5b60006125ea84828501612469565b91505092915050565b6000806040838503121561260657600080fd5b600061261485828601612469565b925050602061262585828601612469565b9150509250929050565b60008060006060848603121561264457600080fd5b600061265286828701612469565b935050602061266386828701612469565b9250506040612674868287016125b5565b9150509250925092565b6000806000806080858703121561269457600080fd5b60006126a287828801612469565b94505060206126b387828801612469565b93505060406126c4878288016125b5565b925050606085013567ffffffffffffffff8111156126e157600080fd5b6126ed878288016124bd565b91505092959194509250565b6000806040838503121561270c57600080fd5b600061271a85828601612469565b925050602061272b8582860161247e565b9150509250929050565b6000806040838503121561274857600080fd5b600061275685828601612469565b9250506020612767858286016125b5565b9150509250929050565b60006020828403121561278357600080fd5b600061279184828501612493565b91505092915050565b6000602082840312156127ac57600080fd5b60006127ba848285016124a8565b91505092915050565b600080604083850312156127d657600080fd5b600083013567ffffffffffffffff8111156127f057600080fd5b6127fc858286016124e7565b925050602061280d858286016125b5565b9150509250929050565b60008060006060848603121561282c57600080fd5b600084013567ffffffffffffffff81111561284657600080fd5b61285286828701612511565b935050602084013567ffffffffffffffff81111561286f57600080fd5b61287b868287016124bd565b925050604061288c868287016125b5565b9150509250925092565b6000602082840312156128a857600080fd5b60006128b6848285016125b5565b91505092915050565b6000806000606084860312156128d457600080fd5b60006128e2868287016125b5565b935050602084013567ffffffffffffffff8111156128ff57600080fd5b61290b86828701612511565b925050604084013567ffffffffffffffff81111561292857600080fd5b612934868287016124bd565b9150509250925092565b61294781613aed565b82525050565b61295681613aff565b82525050565b61296581613b0b565b82525050565b61297c61297782613b0b565b613c35565b82525050565b600061298d826139ef565b6129978185613a05565b93506129a7818560208601613b87565b6129b081613d2c565b840191505092915050565b60006129c6826139fa565b6129d08185613a16565b93506129e0818560208601613b87565b6129e981613d2c565b840191505092915050565b60006129ff826139fa565b612a098185613a27565b9350612a19818560208601613b87565b80840191505092915050565b6000612a32601883613a16565b91507f45434453413a20696e76616c6964207369676e617475726500000000000000006000830152602082019050919050565b6000612a72602b83613a16565b91507f455243373231457874656e73696f6e733a20617274697374207369676e61747560008301527f7265206d69736d617463680000000000000000000000000000000000000000006020830152604082019050919050565b6000612ad8601f83613a16565b91507f45434453413a20696e76616c6964207369676e6174757265206c656e677468006000830152602082019050919050565b6000612b18603283613a16565b91507f4552433732313a207472616e7366657220746f206e6f6e20455243373231526560008301527f63656976657220696d706c656d656e74657200000000000000000000000000006020830152604082019050919050565b6000612b7e602e83613a16565b91507f455243373231457874656e73696f6e733a207468697320746f6b656e2069732060008301527f616c7265616479207369676e65640000000000000000000000000000000000006020830152604082019050919050565b6000612be4601c83613a16565b91507f4552433732313a20746f6b656e20616c7265616479206d696e746564000000006000830152602082019050919050565b6000612c24603383613a16565b91507f455243373231457874656e73696f6e733a206f6e6c792074686520617274697360008301527f74206d617920637265617465207072696e7473000000000000000000000000006020830152604082019050919050565b6000612c8a600283613a27565b91507f19010000000000000000000000000000000000000000000000000000000000006000830152600282019050919050565b6000612cca602483613a16565b91507f4552433732313a207472616e7366657220746f20746865207a65726f2061646460008301527f72657373000000000000000000000000000000000000000000000000000000006020830152604082019050919050565b6000612d30601983613a16565b91507f4552433732313a20617070726f766520746f2063616c6c6572000000000000006000830152602082019050919050565b6000612d70602283613a16565b91507f45434453413a20696e76616c6964207369676e6174757265202773272076616c60008301527f75650000000000000000000000000000000000000000000000000000000000006020830152604082019050919050565b6000612dd6602c83613a16565b91507f4552433732313a206f70657261746f7220717565727920666f72206e6f6e657860008301527f697374656e7420746f6b656e00000000000000000000000000000000000000006020830152604082019050919050565b6000612e3c603883613a16565b91507f4552433732313a20617070726f76652063616c6c6572206973206e6f74206f7760008301527f6e6572206e6f7220617070726f76656420666f7220616c6c00000000000000006020830152604082019050919050565b6000612ea2602a83613a16565b91507f4552433732313a2062616c616e636520717565727920666f7220746865207a6560008301527f726f2061646472657373000000000000000000000000000000000000000000006020830152604082019050919050565b6000612f08602983613a16565b91507f4552433732313a206f776e657220717565727920666f72206e6f6e657869737460008301527f656e7420746f6b656e00000000000000000000000000000000000000000000006020830152604082019050919050565b6000612f6e602e83613a16565b91507f45524337323155524953746f726167653a2055524920736574206f66206e6f6e60008301527f6578697374656e7420746f6b656e0000000000000000000000000000000000006020830152604082019050919050565b6000612fd4602283613a16565b91507f45434453413a20696e76616c6964207369676e6174757265202776272076616c60008301527f75650000000000000000000000000000000000000000000000000000000000006020830152604082019050919050565b600061303a602083613a16565b91507f4552433732313a206d696e7420746f20746865207a65726f20616464726573736000830152602082019050919050565b600061307a603583613a16565b91507f455243373231457874656e73696f6e733a206f6e6c792074686520617274697360008301527f74206d6179207369676e20746865697220776f726b00000000000000000000006020830152604082019050919050565b60006130e0603183613a16565b91507f45524337323155524953746f726167653a2055524920717565727920666f722060008301527f6e6f6e6578697374656e7420746f6b656e0000000000000000000000000000006020830152604082019050919050565b6000613146602c83613a16565b91507f4552433732313a20617070726f76656420717565727920666f72206e6f6e657860008301527f697374656e7420746f6b656e00000000000000000000000000000000000000006020830152604082019050919050565b60006131ac603183613a16565b91507f455243373231457874656e73696f6e733a206e6f207369676e6174757265206560008301527f786973747320666f7220746869732049640000000000000000000000000000006020830152604082019050919050565b6000613212602983613a16565b91507f4552433732313a207472616e73666572206f6620746f6b656e2074686174206960008301527f73206e6f74206f776e00000000000000000000000000000000000000000000006020830152604082019050919050565b6000613278602f83613a16565b91507f4552433732314d657461646174613a2055524920717565727920666f72206e6f60008301527f6e6578697374656e7420746f6b656e00000000000000000000000000000000006020830152604082019050919050565b60006132de602183613a16565b91507f4552433732313a20617070726f76616c20746f2063757272656e74206f776e6560008301527f72000000000000000000000000000000000000000000000000000000000000006020830152604082019050919050565b6000613344603183613a16565b91507f4552433732313a207472616e736665722063616c6c6572206973206e6f74206f60008301527f776e6572206e6f7220617070726f7665640000000000000000000000000000006020830152604082019050919050565b60006133aa603683613a16565b91507f455243373231457874656e73696f6e733a206d61796265206c696d697420746f60008301527f20736f6d657468696e6720726561736f6e61626c653f000000000000000000006020830152604082019050919050565b61340c81613b61565b82525050565b61341b81613b6b565b82525050565b600061342d82856129f4565b915061343982846129f4565b91508190509392505050565b600061345082612c7d565b915061345c828561296b565b60208201915061346c828461296b565b6020820191508190509392505050565b6000602082019050613491600083018461293e565b92915050565b60006080820190506134ac600083018761293e565b6134b9602083018661293e565b6134c66040830185613403565b81810360608301526134d88184612982565b905095945050505050565b60006020820190506134f8600083018461294d565b92915050565b6000602082019050613513600083018461295c565b92915050565b600060a08201905061352e600083018861295c565b61353b602083018761293e565b818103604083015261354d81866129bb565b905061355c606083018561293e565b818103608083015261356e81846129bb565b90509695505050505050565b600060808201905061358f600083018761295c565b61359c6020830186613412565b6135a9604083018561295c565b6135b6606083018461295c565b95945050505050565b600060208201905081810360008301526135d98184612982565b905092915050565b600060208201905081810360008301526135fb81846129bb565b905092915050565b6000602082019050818103600083015261361c81612a25565b9050919050565b6000602082019050818103600083015261363c81612a65565b9050919050565b6000602082019050818103600083015261365c81612acb565b9050919050565b6000602082019050818103600083015261367c81612b0b565b9050919050565b6000602082019050818103600083015261369c81612b71565b9050919050565b600060208201905081810360008301526136bc81612bd7565b9050919050565b600060208201905081810360008301526136dc81612c17565b9050919050565b600060208201905081810360008301526136fc81612cbd565b9050919050565b6000602082019050818103600083015261371c81612d23565b9050919050565b6000602082019050818103600083015261373c81612d63565b9050919050565b6000602082019050818103600083015261375c81612dc9565b9050919050565b6000602082019050818103600083015261377c81612e2f565b9050919050565b6000602082019050818103600083015261379c81612e95565b9050919050565b600060208201905081810360008301526137bc81612efb565b9050919050565b600060208201905081810360008301526137dc81612f61565b9050919050565b600060208201905081810360008301526137fc81612fc7565b9050919050565b6000602082019050818103600083015261381c8161302d565b9050919050565b6000602082019050818103600083015261383c8161306d565b9050919050565b6000602082019050818103600083015261385c816130d3565b9050919050565b6000602082019050818103600083015261387c81613139565b9050919050565b6000602082019050818103600083015261389c8161319f565b9050919050565b600060208201905081810360008301526138bc81613205565b9050919050565b600060208201905081810360008301526138dc8161326b565b9050919050565b600060208201905081810360008301526138fc816132d1565b9050919050565b6000602082019050818103600083015261391c81613337565b9050919050565b6000602082019050818103600083015261393c8161339d565b9050919050565b60006020820190506139586000830184613403565b92915050565b6000604051905081810181811067ffffffffffffffff8211171561398557613984613cfd565b5b8060405250919050565b600067ffffffffffffffff8211156139aa576139a9613cfd565b5b601f19601f8301169050602081019050919050565b600067ffffffffffffffff8211156139da576139d9613cfd565b5b601f19601f8301169050602081019050919050565b600081519050919050565b600081519050919050565b600082825260208201905092915050565b600082825260208201905092915050565b600081905092915050565b6000613a3d82613b61565b9150613a4883613b61565b9250827fffffffffffffffffffffffffffffffffffffffffffffffffffffffffffffffff03821115613a7d57613a7c613c70565b5b828201905092915050565b6000613a9382613b61565b9150613a9e83613b61565b925082613aae57613aad613c9f565b5b828204905092915050565b6000613ac482613b61565b9150613acf83613b61565b925082821015613ae257613ae1613c70565b5b828203905092915050565b6000613af882613b41565b9050919050565b60008115159050919050565b6000819050919050565b60007fffffffff0000000000000000000000000000000000000000000000000000000082169050919050565b600073ffffffffffffffffffffffffffffffffffffffff82169050919050565b6000819050919050565b600060ff82169050919050565b82818337600083830152505050565b60005b83811015613ba5578082015181840152602081019050613b8a565b83811115613bb4576000848401525b50505050565b60006002820490506001821680613bd257607f821691505b60208210811415613be657613be5613cce565b5b50919050565b6000613bf782613b61565b91507fffffffffffffffffffffffffffffffffffffffffffffffffffffffffffffffff821415613c2a57613c29613c70565b5b600182019050919050565b6000819050919050565b6000613c4a82613b61565b9150613c5583613b61565b925082613c6557613c64613c9f565b5b828206905092915050565b7f4e487b7100000000000000000000000000000000000000000000000000000000600052601160045260246000fd5b7f4e487b7100000000000000000000000000000000000000000000000000000000600052601260045260246000fd5b7f4e487b7100000000000000000000000000000000000000000000000000000000600052602260045260246000fd5b7f4e487b7100000000000000000000000000000000000000000000000000000000600052604160045260246000fd5b6000601f19601f8301169050919050565b613d4681613aed565b8114613d5157600080fd5b50565b613d5d81613aff565b8114613d6857600080fd5b50565b613d7481613b15565b8114613d7f57600080fd5b50565b613d8b81613b61565b8114613d9657600080fd5b5056fea2646970667358221220fc443ddcc1b1aec1396abf4f6f8c0940d95eb1a064bfc40d164171d80f2030ae64736f6c63430008000033",
  "linkReferences": {},
  "deployedLinkReferences": {}
}