{
  "_format": "hh-sol-artifact-1",
  "contractName": "MultiWalkToken",
  "sourceName": "contracts/MultiWalkToken.sol",
  "abi": [
    {
      "inputs": [
        {
          "internalType": "string",
          "name": "_name",
          "type": "string"
        },
        {
          "internalType": "string",
          "name": "_symbol",
          "type": "string"
        }
      ],
      "stateMutability": "nonpayable",
      "type": "constructor"
    },
    {
      "anonymous": false,
      "inputs": [
        {
          "indexed": true,
          "internalType": "address",
          "name": "owner",
          "type": "address"
        },
        {
          "indexed": true,
          "internalType": "address",
          "name": "approved",
          "type": "address"
        },
        {
          "indexed": true,
          "internalType": "uint256",
          "name": "tokenId",
          "type": "uint256"
        }
      ],
      "name": "Approval",
      "type": "event"
    },
    {
      "anonymous": false,
      "inputs": [
        {
          "indexed": true,
          "internalType": "address",
          "name": "owner",
          "type": "address"
        },
        {
          "indexed": true,
          "internalType": "address",
          "name": "operator",
          "type": "address"
        },
        {
          "indexed": false,
          "internalType": "bool",
          "name": "approved",
          "type": "bool"
        }
      ],
      "name": "ApprovalForAll",
      "type": "event"
    },
    {
      "anonymous": false,
      "inputs": [
        {
          "indexed": true,
          "internalType": "address",
          "name": "from",
          "type": "address"
        },
        {
          "indexed": true,
          "internalType": "uint256",
          "name": "tokenId",
          "type": "uint256"
        }
      ],
      "name": "Signed",
      "type": "event"
    },
    {
      "anonymous": false,
      "inputs": [
        {
          "indexed": true,
          "internalType": "address",
          "name": "from",
          "type": "address"
        },
        {
          "indexed": true,
          "internalType": "address",
          "name": "to",
          "type": "address"
        },
        {
          "indexed": true,
          "internalType": "uint256",
          "name": "tokenId",
          "type": "uint256"
        }
      ],
      "name": "Transfer",
      "type": "event"
    },
    {
      "inputs": [],
      "name": "DOMAIN_SEPARATOR",
      "outputs": [
        {
          "internalType": "bytes32",
          "name": "",
          "type": "bytes32"
        }
      ],
      "stateMutability": "view",
      "type": "function"
    },
    {
      "inputs": [
        {
          "internalType": "address",
          "name": "to",
          "type": "address"
        },
        {
          "internalType": "uint256",
          "name": "tokenId",
          "type": "uint256"
        }
      ],
      "name": "approve",
      "outputs": [],
      "stateMutability": "nonpayable",
      "type": "function"
    },
    {
      "inputs": [
        {
          "internalType": "address",
          "name": "owner",
          "type": "address"
        }
      ],
      "name": "balanceOf",
      "outputs": [
        {
          "internalType": "uint256",
          "name": "",
          "type": "uint256"
        }
      ],
      "stateMutability": "view",
      "type": "function"
    },
    {
      "inputs": [
        {
          "internalType": "uint256",
          "name": "tokenId",
          "type": "uint256"
        }
      ],
      "name": "getApproved",
      "outputs": [
        {
          "internalType": "address",
          "name": "",
          "type": "address"
        }
      ],
      "stateMutability": "view",
      "type": "function"
    },
    {
      "inputs": [
        {
          "internalType": "uint256",
          "name": "_tokenId",
          "type": "uint256"
        }
      ],
      "name": "getSignature",
      "outputs": [
        {
          "internalType": "bytes",
          "name": "",
          "type": "bytes"
        }
      ],
      "stateMutability": "view",
      "type": "function"
    },
    {
      "inputs": [
        {
          "internalType": "address",
          "name": "owner",
          "type": "address"
        },
        {
          "internalType": "address",
          "name": "operator",
          "type": "address"
        }
      ],
      "name": "isApprovedForAll",
      "outputs": [
        {
          "internalType": "bool",
          "name": "",
          "type": "bool"
        }
      ],
      "stateMutability": "view",
      "type": "function"
    },
    {
      "inputs": [
        {
          "components": [
            {
              "internalType": "address",
              "name": "verificationAddress",
              "type": "address"
            },
            {
              "internalType": "string",
              "name": "artist",
              "type": "string"
            },
            {
              "internalType": "address",
              "name": "wallet",
              "type": "address"
            },
            {
              "internalType": "string",
              "name": "contents",
              "type": "string"
            }
          ],
          "internalType": "struct TokenWalkDomain.Signature",
          "name": "_message",
          "type": "tuple"
        },
        {
          "internalType": "bytes",
          "name": "_signature",
          "type": "bytes"
        },
        {
          "internalType": "uint256",
          "name": "_tokenId",
          "type": "uint256"
        }
      ],
      "name": "isSigned",
      "outputs": [
        {
          "internalType": "bool",
          "name": "",
          "type": "bool"
        }
      ],
      "stateMutability": "view",
      "type": "function"
    },
    {
      "inputs": [
        {
          "internalType": "uint256",
          "name": "_editionNumbers",
          "type": "uint256"
        }
      ],
      "name": "mintEdition",
      "outputs": [],
      "stateMutability": "nonpayable",
      "type": "function"
    },
    {
      "inputs": [],
      "name": "name",
      "outputs": [
        {
          "internalType": "string",
          "name": "",
          "type": "string"
        }
      ],
      "stateMutability": "view",
      "type": "function"
    },
    {
      "inputs": [
        {
          "internalType": "uint256",
          "name": "tokenId",
          "type": "uint256"
        }
      ],
      "name": "ownerOf",
      "outputs": [
        {
          "internalType": "address",
          "name": "",
          "type": "address"
        }
      ],
      "stateMutability": "view",
      "type": "function"
    },
    {
      "inputs": [
        {
          "internalType": "address",
          "name": "from",
          "type": "address"
        },
        {
          "internalType": "address",
          "name": "to",
          "type": "address"
        },
        {
          "internalType": "uint256",
          "name": "tokenId",
          "type": "uint256"
        }
      ],
      "name": "safeTransferFrom",
      "outputs": [],
      "stateMutability": "nonpayable",
      "type": "function"
    },
    {
      "inputs": [
        {
          "internalType": "address",
          "name": "from",
          "type": "address"
        },
        {
          "internalType": "address",
          "name": "to",
          "type": "address"
        },
        {
          "internalType": "uint256",
          "name": "tokenId",
          "type": "uint256"
        },
        {
          "internalType": "bytes",
          "name": "_data",
          "type": "bytes"
        }
      ],
      "name": "safeTransferFrom",
      "outputs": [],
      "stateMutability": "nonpayable",
      "type": "function"
    },
    {
      "inputs": [
        {
          "internalType": "address",
          "name": "operator",
          "type": "address"
        },
        {
          "internalType": "bool",
          "name": "approved",
          "type": "bool"
        }
      ],
      "name": "setApprovalForAll",
      "outputs": [],
      "stateMutability": "nonpayable",
      "type": "function"
    },
    {
      "inputs": [
        {
          "internalType": "uint256",
          "name": "_tokenId",
          "type": "uint256"
        },
        {
          "components": [
            {
              "internalType": "address",
              "name": "verificationAddress",
              "type": "address"
            },
            {
              "internalType": "string",
              "name": "artist",
              "type": "string"
            },
            {
              "internalType": "address",
              "name": "wallet",
              "type": "address"
            },
            {
              "internalType": "string",
              "name": "contents",
              "type": "string"
            }
          ],
          "internalType": "struct TokenWalkDomain.Signature",
          "name": "_message",
          "type": "tuple"
        },
        {
          "internalType": "bytes",
          "name": "_signature",
          "type": "bytes"
        }
      ],
      "name": "sign",
      "outputs": [],
      "stateMutability": "nonpayable",
      "type": "function"
    },
    {
      "inputs": [
        {
          "internalType": "bytes4",
          "name": "interfaceId",
          "type": "bytes4"
        }
      ],
      "name": "supportsInterface",
      "outputs": [
        {
          "internalType": "bool",
          "name": "",
          "type": "bool"
        }
      ],
      "stateMutability": "view",
      "type": "function"
    },
    {
      "inputs": [],
      "name": "symbol",
      "outputs": [
        {
          "internalType": "string",
          "name": "",
          "type": "string"
        }
      ],
      "stateMutability": "view",
      "type": "function"
    },
    {
      "inputs": [
        {
          "internalType": "uint256",
          "name": "tokenId",
          "type": "uint256"
        }
      ],
      "name": "tokenURI",
      "outputs": [
        {
          "internalType": "string",
          "name": "",
          "type": "string"
        }
      ],
      "stateMutability": "view",
      "type": "function"
    },
    {
      "inputs": [],
      "name": "topId",
      "outputs": [
        {
          "internalType": "uint256",
          "name": "",
          "type": "uint256"
        }
      ],
      "stateMutability": "view",
      "type": "function"
    },
    {
      "inputs": [
        {
          "internalType": "address",
          "name": "from",
          "type": "address"
        },
        {
          "internalType": "address",
          "name": "to",
          "type": "address"
        },
        {
          "internalType": "uint256",
          "name": "tokenId",
          "type": "uint256"
        }
      ],
      "name": "transferFrom",
      "outputs": [],
      "stateMutability": "nonpayable",
      "type": "function"
    }
  ],
  "bytecode": "0x60806040526001600a553480156200001657600080fd5b50604051620040813803806200408183398181016040528101906200003c91906200026c565b81818160009080519060200190620000569291906200014a565b5080600190805190602001906200006f9291906200014a565b5050507f8b73c3c69bb8fe3d512ecc4cf759cc79239f7b179b0ffacaa9a75d522b39400f6040518060400160405280600a81526020017f546f6b656e2057616c6b00000000000000000000000000000000000000000000815250805190602001206040518060400160405280600181526020017f3100000000000000000000000000000000000000000000000000000000000000815250805190602001206001306040516020016200012695949392919062000312565b604051602081830303815290604052805190602001206007819055505050620004ff565b82805462000158906200046b565b90600052602060002090601f0160209004810192826200017c5760008555620001c8565b82601f106200019757805160ff1916838001178555620001c8565b82800160010185558215620001c8579182015b82811115620001c7578251825591602001919060010190620001aa565b5b509050620001d79190620001db565b5090565b5b80821115620001f6576000816000905550600101620001dc565b5090565b6000620002116200020b84620003a3565b6200036f565b9050828152602081018484840111156200022a57600080fd5b6200023784828562000435565b509392505050565b600082601f8301126200025157600080fd5b815162000263848260208601620001fa565b91505092915050565b600080604083850312156200028057600080fd5b600083015167ffffffffffffffff8111156200029b57600080fd5b620002a9858286016200023f565b925050602083015167ffffffffffffffff811115620002c757600080fd5b620002d5858286016200023f565b9150509250929050565b620002ea81620003d6565b82525050565b620002fb81620003ea565b82525050565b6200030c8162000421565b82525050565b600060a082019050620003296000830188620002f0565b620003386020830187620002f0565b620003476040830186620002f0565b62000356606083018562000301565b620003656080830184620002df565b9695505050505050565b6000604051905081810181811067ffffffffffffffff82111715620003995762000398620004d0565b5b8060405250919050565b600067ffffffffffffffff821115620003c157620003c0620004d0565b5b601f19601f8301169050602081019050919050565b6000620003e382620003f4565b9050919050565b6000819050919050565b600073ffffffffffffffffffffffffffffffffffffffff82169050919050565b600060ff82169050919050565b60006200042e8262000414565b9050919050565b60005b838110156200045557808201518184015260208101905062000438565b8381111562000465576000848401525b50505050565b600060028204905060018216806200048457607f821691505b602082108114156200049b576200049a620004a1565b5b50919050565b7f4e487b7100000000000000000000000000000000000000000000000000000000600052602260045260246000fd5b7f4e487b7100000000000000000000000000000000000000000000000000000000600052604160045260246000fd5b613b72806200050f6000396000f3fe608060405234801561001057600080fd5b50600436106101215760003560e01c80633644e515116100ad578063a22cb46511610071578063a22cb4651461031a578063b88d4fde14610336578063c87b56dd14610352578063ddb29c7014610382578063e985e9c5146103b257610121565b80633644e5151461026257806342842e0e146102805780636352211e1461029c57806370a08231146102cc57806395d89b41146102fc57610121565b8063081812fc116100f4578063081812fc146101c0578063095ea7b3146101f057806323b872dd1461020c5780633242d76314610228578063331f5f8c1461024457610121565b806301ffc9a71461012657806302a569e61461015657806305322b741461018657806306fdde03146101a2575b600080fd5b610140600480360381019061013b91906125ee565b6103e2565b60405161014d91906132a6565b60405180910390f35b610170600480360381019061016b91906126bf565b6104c4565b60405161017d9190613382565b60405180910390f35b6101a0600480360381019061019b91906126bf565b6105cc565b005b6101aa6105d8565b6040516101b791906133a4565b60405180910390f35b6101da60048036038101906101d591906126bf565b61066a565b6040516101e7919061323f565b60405180910390f35b61020a600480360381019061020591906125b2565b6106ef565b005b610226600480360381019061022191906124ac565b610807565b005b610242600480360381019061023d91906126e8565b610867565b005b61024c610877565b60405161025991906136e6565b60405180910390f35b61026a61087d565b60405161027791906132c1565b60405180910390f35b61029a600480360381019061029591906124ac565b610883565b005b6102b660048036038101906102b191906126bf565b6108a3565b6040516102c3919061323f565b60405180910390f35b6102e660048036038101906102e19190612447565b610955565b6040516102f391906136e6565b60405180910390f35b610304610a0d565b60405161031191906133a4565b60405180910390f35b610334600480360381019061032f9190612576565b610a9f565b005b610350600480360381019061034b91906124fb565b610c20565b005b61036c600480360381019061036791906126bf565b610c82565b60405161037991906133a4565b60405180910390f35b61039c60048036038101906103979190612640565b610dd4565b6040516103a991906132a6565b60405180910390f35b6103cc60048036038101906103c79190612470565b610f0a565b6040516103d991906132a6565b60405180910390f35b60007f80ac58cd000000000000000000000000000000000000000000000000000000007bffffffffffffffffffffffffffffffffffffffffffffffffffffffff1916827bffffffffffffffffffffffffffffffffffffffffffffffffffffffff191614806104ad57507f5b5e139f000000000000000000000000000000000000000000000000000000007bffffffffffffffffffffffffffffffffffffffffffffffffffffffff1916827bffffffffffffffffffffffffffffffffffffffffffffffffffffffff1916145b806104bd57506104bc82610f9e565b5b9050919050565b606060006008600084815260200190815260200160002080546104e69061395d565b90501415610529576040517f08c379a000000000000000000000000000000000000000000000000000000000815260040161052090613626565b60405180910390fd5b6008600083815260200190815260200160002080546105479061395d565b80601f01602080910402602001604051908101604052809291908181526020018280546105739061395d565b80156105c05780601f10610595576101008083540402835291602001916105c0565b820191906000526020600020905b8154815290600101906020018083116105a357829003601f168201915b50505050509050919050565b6105d581611008565b50565b6060600080546105e79061395d565b80601f01602080910402602001604051908101604052809291908181526020018280546106139061395d565b80156106605780601f1061063557610100808354040283529160200191610660565b820191906000526020600020905b81548152906001019060200180831161064357829003601f168201915b5050505050905090565b6000610675826110fb565b6106b4576040517f08c379a00000000000000000000000000000000000000000000000000000000081526004016106ab90613606565b60405180910390fd5b6004600083815260200190815260200160002060009054906101000a900473ffffffffffffffffffffffffffffffffffffffff169050919050565b60006106fa826108a3565b90508073ffffffffffffffffffffffffffffffffffffffff168373ffffffffffffffffffffffffffffffffffffffff16141561076b576040517f08c379a000000000000000000000000000000000000000000000000000000000815260040161076290613686565b60405180910390fd5b8073ffffffffffffffffffffffffffffffffffffffff1661078a611167565b73ffffffffffffffffffffffffffffffffffffffff1614806107b957506107b8816107b3611167565b610f0a565b5b6107f8576040517f08c379a00000000000000000000000000000000000000000000000000000000081526004016107ef90613506565b60405180910390fd5b610802838361116f565b505050565b610818610812611167565b82611228565b610857576040517f08c379a000000000000000000000000000000000000000000000000000000000815260040161084e906136a6565b60405180910390fd5b610862838383611306565b505050565b610872838383611562565b505050565b600a5481565b60075481565b61089e83838360405180602001604052806000815250610c20565b505050565b6000806002600084815260200190815260200160002060009054906101000a900473ffffffffffffffffffffffffffffffffffffffff169050600073ffffffffffffffffffffffffffffffffffffffff168173ffffffffffffffffffffffffffffffffffffffff16141561094c576040517f08c379a000000000000000000000000000000000000000000000000000000000815260040161094390613546565b60405180910390fd5b80915050919050565b60008073ffffffffffffffffffffffffffffffffffffffff168273ffffffffffffffffffffffffffffffffffffffff1614156109c6576040517f08c379a00000000000000000000000000000000000000000000000000000000081526004016109bd90613526565b60405180910390fd5b600360008373ffffffffffffffffffffffffffffffffffffffff1673ffffffffffffffffffffffffffffffffffffffff168152602001908152602001600020549050919050565b606060018054610a1c9061395d565b80601f0160208091040260200160405190810160405280929190818152602001828054610a489061395d565b8015610a955780601f10610a6a57610100808354040283529160200191610a95565b820191906000526020600020905b815481529060010190602001808311610a7857829003601f168201915b5050505050905090565b610aa7611167565b73ffffffffffffffffffffffffffffffffffffffff168273ffffffffffffffffffffffffffffffffffffffff161415610b15576040517f08c379a0000000000000000000000000000000000000000000000000000000008152600401610b0c906134a6565b60405180910390fd5b8060056000610b22611167565b73ffffffffffffffffffffffffffffffffffffffff1673ffffffffffffffffffffffffffffffffffffffff16815260200190815260200160002060008473ffffffffffffffffffffffffffffffffffffffff1673ffffffffffffffffffffffffffffffffffffffff16815260200190815260200160002060006101000a81548160ff0219169083151502179055508173ffffffffffffffffffffffffffffffffffffffff16610bcf611167565b73ffffffffffffffffffffffffffffffffffffffff167f17307eab39ab6107e8899845ad3d59bd9653f200f220920489ca2b5937696c3183604051610c1491906132a6565b60405180910390a35050565b610c31610c2b611167565b83611228565b610c70576040517f08c379a0000000000000000000000000000000000000000000000000000000008152600401610c67906136a6565b60405180910390fd5b610c7c84848484611794565b50505050565b6060610c8d826110fb565b610ccc576040517f08c379a0000000000000000000000000000000000000000000000000000000008152600401610cc3906135e6565b60405180910390fd5b6000600660008481526020019081526020016000208054610cec9061395d565b80601f0160208091040260200160405190810160405280929190818152602001828054610d189061395d565b8015610d655780601f10610d3a57610100808354040283529160200191610d65565b820191906000526020600020905b815481529060010190602001808311610d4857829003601f168201915b505050505090506000610d766117f0565b9050600081511415610d8c578192505050610dcf565b600082511115610dc1578082604051602001610da99291906131e4565b60405160208183030381529060405292505050610dcf565b610dca8461182d565b925050505b919050565b600080610de0856118d4565b90506000610dee8286611962565b90506009600085815260200190815260200160002060009054906101000a900473ffffffffffffffffffffffffffffffffffffffff1673ffffffffffffffffffffffffffffffffffffffff168173ffffffffffffffffffffffffffffffffffffffff16148015610eff5750610efe600860008681526020019081526020016000208054610e7a9061395d565b80601f0160208091040260200160405190810160405280929190818152602001828054610ea69061395d565b8015610ef35780601f10610ec857610100808354040283529160200191610ef3565b820191906000526020600020905b815481529060010190602001808311610ed657829003601f168201915b5050505050866119dc565b5b925050509392505050565b6000600560008473ffffffffffffffffffffffffffffffffffffffff1673ffffffffffffffffffffffffffffffffffffffff16815260200190815260200160002060008373ffffffffffffffffffffffffffffffffffffffff1673ffffffffffffffffffffffffffffffffffffffff16815260200190815260200160002060009054906101000a900460ff16905092915050565b60007f01ffc9a7000000000000000000000000000000000000000000000000000000007bffffffffffffffffffffffffffffffffffffffffffffffffffffffff1916827bffffffffffffffffffffffffffffffffffffffffffffffffffffffff1916149050919050565b6000811161104b576040517f08c379a0000000000000000000000000000000000000000000000000000000008152600401611042906136c6565b60405180910390fd5b60005b818110156110f75761106233600a54611a18565b611078600a54611073600a54611be6565b611d93565b3360096000600a54815260200190815260200160002060006101000a81548173ffffffffffffffffffffffffffffffffffffffff021916908373ffffffffffffffffffffffffffffffffffffffff160217905550600a60008154809291906110df9061398f565b919050555080806110ef9061398f565b91505061104e565b5050565b60008073ffffffffffffffffffffffffffffffffffffffff166002600084815260200190815260200160002060009054906101000a900473ffffffffffffffffffffffffffffffffffffffff1673ffffffffffffffffffffffffffffffffffffffff1614159050919050565b600033905090565b816004600083815260200190815260200160002060006101000a81548173ffffffffffffffffffffffffffffffffffffffff021916908373ffffffffffffffffffffffffffffffffffffffff160217905550808273ffffffffffffffffffffffffffffffffffffffff166111e2836108a3565b73ffffffffffffffffffffffffffffffffffffffff167f8c5be1e5ebec7d5bd14f71427d1e84f3dd0314c0f7b2291e5b200ac8c7c3b92560405160405180910390a45050565b6000611233826110fb565b611272576040517f08c379a0000000000000000000000000000000000000000000000000000000008152600401611269906134e6565b60405180910390fd5b600061127d836108a3565b90508073ffffffffffffffffffffffffffffffffffffffff168473ffffffffffffffffffffffffffffffffffffffff1614806112ec57508373ffffffffffffffffffffffffffffffffffffffff166112d48461066a565b73ffffffffffffffffffffffffffffffffffffffff16145b806112fd57506112fc8185610f0a565b5b91505092915050565b8273ffffffffffffffffffffffffffffffffffffffff16611326826108a3565b73ffffffffffffffffffffffffffffffffffffffff161461137c576040517f08c379a000000000000000000000000000000000000000000000000000000000815260040161137390613646565b60405180910390fd5b600073ffffffffffffffffffffffffffffffffffffffff168273ffffffffffffffffffffffffffffffffffffffff1614156113ec576040517f08c379a00000000000000000000000000000000000000000000000000000000081526004016113e390613486565b60405180910390fd5b6113f7838383611e07565b61140260008261116f565b6001600360008573ffffffffffffffffffffffffffffffffffffffff1673ffffffffffffffffffffffffffffffffffffffff1681526020019081526020016000206000828254611452919061385c565b925050819055506001600360008473ffffffffffffffffffffffffffffffffffffffff1673ffffffffffffffffffffffffffffffffffffffff16815260200190815260200160002060008282546114a991906137d5565b92505081905550816002600083815260200190815260200160002060006101000a81548173ffffffffffffffffffffffffffffffffffffffff021916908373ffffffffffffffffffffffffffffffffffffffff160217905550808273ffffffffffffffffffffffffffffffffffffffff168473ffffffffffffffffffffffffffffffffffffffff167fddf252ad1be2c89b69c2b068fc378daa952ba7f163c4a11628f55a4df523b3ef60405160405180910390a4505050565b6009600084815260200190815260200160002060009054906101000a900473ffffffffffffffffffffffffffffffffffffffff1673ffffffffffffffffffffffffffffffffffffffff163373ffffffffffffffffffffffffffffffffffffffff1614611603576040517f08c379a00000000000000000000000000000000000000000000000000000000081526004016115fa906135c6565b60405180910390fd5b60006008600085815260200190815260200160002080546116239061395d565b905014611665576040517f08c379a000000000000000000000000000000000000000000000000000000000815260040161165c90613446565b60405180910390fd5b6000611670836118d4565b9050600061167e8284611962565b90506009600086815260200190815260200160002060009054906101000a900473ffffffffffffffffffffffffffffffffffffffff1673ffffffffffffffffffffffffffffffffffffffff168173ffffffffffffffffffffffffffffffffffffffff1614611721576040517f08c379a0000000000000000000000000000000000000000000000000000000008152600401611718906133e6565b60405180910390fd5b82600860008781526020019081526020016000209080519060200190611748929190612141565b50843373ffffffffffffffffffffffffffffffffffffffff167ff4b7ab5b8fc49d6d35d323cae6a96e1441b461f862dfc5aff92e806e2839b5b060405160405180910390a35050505050565b61179f848484611306565b6117ab84848484611e0c565b6117ea576040517f08c379a00000000000000000000000000000000000000000000000000000000081526004016117e190613426565b60405180910390fd5b50505050565b60606040518060400160405280601b81526020017f68747470733a2f2f746f6b656e77616c6b2e636f6d2f6e6674732f0000000000815250905090565b6060611838826110fb565b611877576040517f08c379a000000000000000000000000000000000000000000000000000000000815260040161186e90613666565b60405180910390fd5b60006118816117f0565b905060008151116118a157604051806020016040528060008152506118cc565b806118ab84611be6565b6040516020016118bc9291906131e4565b6040516020818303038152906040525b915050919050565b60006007547f1e42c447b01f5573e84d49a0ca5625af0baaf3c2e093f2bd448e06d657f3582e3084602001518560400151866060015160405160200161191e9594939291906132dc565b60405160208183030381529060405280519060200120604051602001611945929190613208565b604051602081830303815290604052805190602001209050919050565b600060418251146119a8576040517f08c379a000000000000000000000000000000000000000000000000000000000815260040161199f90613406565b60405180910390fd5b60008060006020850151925060408501519150606085015160001a90506119d186828585611fa3565b935050505092915050565b600081518351146119f05760009050611a12565b6000806000855190506020860192506020850191508082208184201493505050505b92915050565b600073ffffffffffffffffffffffffffffffffffffffff168273ffffffffffffffffffffffffffffffffffffffff161415611a88576040517f08c379a0000000000000000000000000000000000000000000000000000000008152600401611a7f906135a6565b60405180910390fd5b611a91816110fb565b15611ad1576040517f08c379a0000000000000000000000000000000000000000000000000000000008152600401611ac890613466565b60405180910390fd5b611add60008383611e07565b6001600360008473ffffffffffffffffffffffffffffffffffffffff1673ffffffffffffffffffffffffffffffffffffffff1681526020019081526020016000206000828254611b2d91906137d5565b92505081905550816002600083815260200190815260200160002060006101000a81548173ffffffffffffffffffffffffffffffffffffffff021916908373ffffffffffffffffffffffffffffffffffffffff160217905550808273ffffffffffffffffffffffffffffffffffffffff16600073ffffffffffffffffffffffffffffffffffffffff167fddf252ad1be2c89b69c2b068fc378daa952ba7f163c4a11628f55a4df523b3ef60405160405180910390a45050565b60606000821415611c2e576040518060400160405280600181526020017f30000000000000000000000000000000000000000000000000000000000000008152509050611d8e565b600082905060005b60008214611c60578080611c499061398f565b915050600a82611c59919061382b565b9150611c36565b60008167ffffffffffffffff811115611ca2577f4e487b7100000000000000000000000000000000000000000000000000000000600052604160045260246000fd5b6040519080825280601f01601f191660200182016040528015611cd45781602001600182028036833780820191505090505b5090505b60008514611d8757600182611ced919061385c565b9150600a85611cfc91906139e2565b6030611d0891906137d5565b60f81b818381518110611d44577f4e487b7100000000000000000000000000000000000000000000000000000000600052603260045260246000fd5b60200101907effffffffffffffffffffffffffffffffffffffffffffffffffffffffffffff1916908160001a905350600a85611d80919061382b565b9450611cd8565b8093505050505b919050565b611d9c826110fb565b611ddb576040517f08c379a0000000000000000000000000000000000000000000000000000000008152600401611dd290613566565b60405180910390fd5b80600660008481526020019081526020016000209080519060200190611e029291906121c7565b505050565b505050565b6000611e2d8473ffffffffffffffffffffffffffffffffffffffff1661212e565b15611f96578373ffffffffffffffffffffffffffffffffffffffff1663150b7a02611e56611167565b8786866040518563ffffffff1660e01b8152600401611e78949392919061325a565b602060405180830381600087803b158015611e9257600080fd5b505af1925050508015611ec357506040513d601f19601f82011682018060405250810190611ec09190612617565b60015b611f46573d8060008114611ef3576040519150601f19603f3d011682016040523d82523d6000602084013e611ef8565b606091505b50600081511415611f3e576040517f08c379a0000000000000000000000000000000000000000000000000000000008152600401611f3590613426565b60405180910390fd5b805181602001fd5b63150b7a0260e01b7bffffffffffffffffffffffffffffffffffffffffffffffffffffffff1916817bffffffffffffffffffffffffffffffffffffffffffffffffffffffff191614915050611f9b565b600190505b949350505050565b60007f7fffffffffffffffffffffffffffffff5d576e7357a4501ddfe92f46681b20a08260001c111561200b576040517f08c379a0000000000000000000000000000000000000000000000000000000008152600401612002906134c6565b60405180910390fd5b601b8460ff1614806120205750601c8460ff16145b61205f576040517f08c379a000000000000000000000000000000000000000000000000000000000815260040161205690613586565b60405180910390fd5b600060018686868660405160008152602001604052604051612084949392919061333d565b6020604051602081039080840390855afa1580156120a6573d6000803e3d6000fd5b505050602060405103519050600073ffffffffffffffffffffffffffffffffffffffff168173ffffffffffffffffffffffffffffffffffffffff161415612122576040517f08c379a0000000000000000000000000000000000000000000000000000000008152600401612119906133c6565b60405180910390fd5b80915050949350505050565b600080823b905060008111915050919050565b82805461214d9061395d565b90600052602060002090601f01602090048101928261216f57600085556121b6565b82601f1061218857805160ff19168380011785556121b6565b828001600101855582156121b6579182015b828111156121b557825182559160200191906001019061219a565b5b5090506121c3919061224d565b5090565b8280546121d39061395d565b90600052602060002090601f0160209004810192826121f5576000855561223c565b82601f1061220e57805160ff191683800117855561223c565b8280016001018555821561223c579182015b8281111561223b578251825591602001919060010190612220565b5b509050612249919061224d565b5090565b5b8082111561226657600081600090555060010161224e565b5090565b600061227d61227884613732565b613701565b90508281526020810184848401111561229557600080fd5b6122a084828561391b565b509392505050565b60006122bb6122b684613762565b613701565b9050828152602081018484840111156122d357600080fd5b6122de84828561391b565b509392505050565b6000813590506122f581613ae0565b92915050565b60008135905061230a81613af7565b92915050565b60008135905061231f81613b0e565b92915050565b60008151905061233481613b0e565b92915050565b600082601f83011261234b57600080fd5b813561235b84826020860161226a565b91505092915050565b600082601f83011261237557600080fd5b81356123858482602086016122a8565b91505092915050565b6000608082840312156123a057600080fd5b6123aa6080613701565b905060006123ba848285016122e6565b600083015250602082013567ffffffffffffffff8111156123da57600080fd5b6123e684828501612364565b60208301525060406123fa848285016122e6565b604083015250606082013567ffffffffffffffff81111561241a57600080fd5b61242684828501612364565b60608301525092915050565b60008135905061244181613b25565b92915050565b60006020828403121561245957600080fd5b6000612467848285016122e6565b91505092915050565b6000806040838503121561248357600080fd5b6000612491858286016122e6565b92505060206124a2858286016122e6565b9150509250929050565b6000806000606084860312156124c157600080fd5b60006124cf868287016122e6565b93505060206124e0868287016122e6565b92505060406124f186828701612432565b9150509250925092565b6000806000806080858703121561251157600080fd5b600061251f878288016122e6565b9450506020612530878288016122e6565b935050604061254187828801612432565b925050606085013567ffffffffffffffff81111561255e57600080fd5b61256a8782880161233a565b91505092959194509250565b6000806040838503121561258957600080fd5b6000612597858286016122e6565b92505060206125a8858286016122fb565b9150509250929050565b600080604083850312156125c557600080fd5b60006125d3858286016122e6565b92505060206125e485828601612432565b9150509250929050565b60006020828403121561260057600080fd5b600061260e84828501612310565b91505092915050565b60006020828403121561262957600080fd5b600061263784828501612325565b91505092915050565b60008060006060848603121561265557600080fd5b600084013567ffffffffffffffff81111561266f57600080fd5b61267b8682870161238e565b935050602084013567ffffffffffffffff81111561269857600080fd5b6126a48682870161233a565b92505060406126b586828701612432565b9150509250925092565b6000602082840312156126d157600080fd5b60006126df84828501612432565b91505092915050565b6000806000606084860312156126fd57600080fd5b600061270b86828701612432565b935050602084013567ffffffffffffffff81111561272857600080fd5b6127348682870161238e565b925050604084013567ffffffffffffffff81111561275157600080fd5b61275d8682870161233a565b9150509250925092565b61277081613890565b82525050565b61277f816138a2565b82525050565b61278e816138ae565b82525050565b6127a56127a0826138ae565b6139d8565b82525050565b60006127b682613792565b6127c081856137a8565b93506127d081856020860161392a565b6127d981613acf565b840191505092915050565b60006127ef8261379d565b6127f981856137b9565b935061280981856020860161392a565b61281281613acf565b840191505092915050565b60006128288261379d565b61283281856137ca565b935061284281856020860161392a565b80840191505092915050565b600061285b6018836137b9565b91507f45434453413a20696e76616c6964207369676e617475726500000000000000006000830152602082019050919050565b600061289b602b836137b9565b91507f455243373231457874656e73696f6e733a20617274697374207369676e61747560008301527f7265206d69736d617463680000000000000000000000000000000000000000006020830152604082019050919050565b6000612901601f836137b9565b91507f45434453413a20696e76616c6964207369676e6174757265206c656e677468006000830152602082019050919050565b60006129416032836137b9565b91507f4552433732313a207472616e7366657220746f206e6f6e20455243373231526560008301527f63656976657220696d706c656d656e74657200000000000000000000000000006020830152604082019050919050565b60006129a7602e836137b9565b91507f455243373231457874656e73696f6e733a207468697320746f6b656e2069732060008301527f616c7265616479207369676e65640000000000000000000000000000000000006020830152604082019050919050565b6000612a0d601c836137b9565b91507f4552433732313a20746f6b656e20616c7265616479206d696e746564000000006000830152602082019050919050565b6000612a4d6002836137ca565b91507f19010000000000000000000000000000000000000000000000000000000000006000830152600282019050919050565b6000612a8d6024836137b9565b91507f4552433732313a207472616e7366657220746f20746865207a65726f2061646460008301527f72657373000000000000000000000000000000000000000000000000000000006020830152604082019050919050565b6000612af36019836137b9565b91507f4552433732313a20617070726f766520746f2063616c6c6572000000000000006000830152602082019050919050565b6000612b336022836137b9565b91507f45434453413a20696e76616c6964207369676e6174757265202773272076616c60008301527f75650000000000000000000000000000000000000000000000000000000000006020830152604082019050919050565b6000612b99602c836137b9565b91507f4552433732313a206f70657261746f7220717565727920666f72206e6f6e657860008301527f697374656e7420746f6b656e00000000000000000000000000000000000000006020830152604082019050919050565b6000612bff6038836137b9565b91507f4552433732313a20617070726f76652063616c6c6572206973206e6f74206f7760008301527f6e6572206e6f7220617070726f76656420666f7220616c6c00000000000000006020830152604082019050919050565b6000612c65602a836137b9565b91507f4552433732313a2062616c616e636520717565727920666f7220746865207a6560008301527f726f2061646472657373000000000000000000000000000000000000000000006020830152604082019050919050565b6000612ccb6029836137b9565b91507f4552433732313a206f776e657220717565727920666f72206e6f6e657869737460008301527f656e7420746f6b656e00000000000000000000000000000000000000000000006020830152604082019050919050565b6000612d31602e836137b9565b91507f45524337323155524953746f726167653a2055524920736574206f66206e6f6e60008301527f6578697374656e7420746f6b656e0000000000000000000000000000000000006020830152604082019050919050565b6000612d976022836137b9565b91507f45434453413a20696e76616c6964207369676e6174757265202776272076616c60008301527f75650000000000000000000000000000000000000000000000000000000000006020830152604082019050919050565b6000612dfd6020836137b9565b91507f4552433732313a206d696e7420746f20746865207a65726f20616464726573736000830152602082019050919050565b6000612e3d6035836137b9565b91507f455243373231457874656e73696f6e733a206f6e6c792074686520617274697360008301527f74206d6179207369676e20746865697220776f726b00000000000000000000006020830152604082019050919050565b6000612ea36031836137b9565b91507f45524337323155524953746f726167653a2055524920717565727920666f722060008301527f6e6f6e6578697374656e7420746f6b656e0000000000000000000000000000006020830152604082019050919050565b6000612f09602c836137b9565b91507f4552433732313a20617070726f76656420717565727920666f72206e6f6e657860008301527f697374656e7420746f6b656e00000000000000000000000000000000000000006020830152604082019050919050565b6000612f6f6031836137b9565b91507f455243373231457874656e73696f6e733a206e6f207369676e6174757265206560008301527f786973747320666f7220746869732049640000000000000000000000000000006020830152604082019050919050565b6000612fd56029836137b9565b91507f4552433732313a207472616e73666572206f6620746f6b656e2074686174206960008301527f73206e6f74206f776e00000000000000000000000000000000000000000000006020830152604082019050919050565b600061303b602f836137b9565b91507f4552433732314d657461646174613a2055524920717565727920666f72206e6f60008301527f6e6578697374656e7420746f6b656e00000000000000000000000000000000006020830152604082019050919050565b60006130a16021836137b9565b91507f4552433732313a20617070726f76616c20746f2063757272656e74206f776e6560008301527f72000000000000000000000000000000000000000000000000000000000000006020830152604082019050919050565b60006131076031836137b9565b91507f4552433732313a207472616e736665722063616c6c6572206973206e6f74206f60008301527f776e6572206e6f7220617070726f7665640000000000000000000000000000006020830152604082019050919050565b600061316d603e836137b9565b91507f455243373231457874656e73696f6e733a207468652065646974696f6e20737560008301527f70706c79206973206e6f742073657420746f206d6f7265207468616e203000006020830152604082019050919050565b6131cf81613904565b82525050565b6131de8161390e565b82525050565b60006131f0828561281d565b91506131fc828461281d565b91508190509392505050565b600061321382612a40565b915061321f8285612794565b60208201915061322f8284612794565b6020820191508190509392505050565b60006020820190506132546000830184612767565b92915050565b600060808201905061326f6000830187612767565b61327c6020830186612767565b61328960408301856131c6565b818103606083015261329b81846127ab565b905095945050505050565b60006020820190506132bb6000830184612776565b92915050565b60006020820190506132d66000830184612785565b92915050565b600060a0820190506132f16000830188612785565b6132fe6020830187612767565b818103604083015261331081866127e4565b905061331f6060830185612767565b818103608083015261333181846127e4565b90509695505050505050565b60006080820190506133526000830187612785565b61335f60208301866131d5565b61336c6040830185612785565b6133796060830184612785565b95945050505050565b6000602082019050818103600083015261339c81846127ab565b905092915050565b600060208201905081810360008301526133be81846127e4565b905092915050565b600060208201905081810360008301526133df8161284e565b9050919050565b600060208201905081810360008301526133ff8161288e565b9050919050565b6000602082019050818103600083015261341f816128f4565b9050919050565b6000602082019050818103600083015261343f81612934565b9050919050565b6000602082019050818103600083015261345f8161299a565b9050919050565b6000602082019050818103600083015261347f81612a00565b9050919050565b6000602082019050818103600083015261349f81612a80565b9050919050565b600060208201905081810360008301526134bf81612ae6565b9050919050565b600060208201905081810360008301526134df81612b26565b9050919050565b600060208201905081810360008301526134ff81612b8c565b9050919050565b6000602082019050818103600083015261351f81612bf2565b9050919050565b6000602082019050818103600083015261353f81612c58565b9050919050565b6000602082019050818103600083015261355f81612cbe565b9050919050565b6000602082019050818103600083015261357f81612d24565b9050919050565b6000602082019050818103600083015261359f81612d8a565b9050919050565b600060208201905081810360008301526135bf81612df0565b9050919050565b600060208201905081810360008301526135df81612e30565b9050919050565b600060208201905081810360008301526135ff81612e96565b9050919050565b6000602082019050818103600083015261361f81612efc565b9050919050565b6000602082019050818103600083015261363f81612f62565b9050919050565b6000602082019050818103600083015261365f81612fc8565b9050919050565b6000602082019050818103600083015261367f8161302e565b9050919050565b6000602082019050818103600083015261369f81613094565b9050919050565b600060208201905081810360008301526136bf816130fa565b9050919050565b600060208201905081810360008301526136df81613160565b9050919050565b60006020820190506136fb60008301846131c6565b92915050565b6000604051905081810181811067ffffffffffffffff8211171561372857613727613aa0565b5b8060405250919050565b600067ffffffffffffffff82111561374d5761374c613aa0565b5b601f19601f8301169050602081019050919050565b600067ffffffffffffffff82111561377d5761377c613aa0565b5b601f19601f8301169050602081019050919050565b600081519050919050565b600081519050919050565b600082825260208201905092915050565b600082825260208201905092915050565b600081905092915050565b60006137e082613904565b91506137eb83613904565b9250827fffffffffffffffffffffffffffffffffffffffffffffffffffffffffffffffff038211156138205761381f613a13565b5b828201905092915050565b600061383682613904565b915061384183613904565b92508261385157613850613a42565b5b828204905092915050565b600061386782613904565b915061387283613904565b92508282101561388557613884613a13565b5b828203905092915050565b600061389b826138e4565b9050919050565b60008115159050919050565b6000819050919050565b60007fffffffff0000000000000000000000000000000000000000000000000000000082169050919050565b600073ffffffffffffffffffffffffffffffffffffffff82169050919050565b6000819050919050565b600060ff82169050919050565b82818337600083830152505050565b60005b8381101561394857808201518184015260208101905061392d565b83811115613957576000848401525b50505050565b6000600282049050600182168061397557607f821691505b6020821081141561398957613988613a71565b5b50919050565b600061399a82613904565b91507fffffffffffffffffffffffffffffffffffffffffffffffffffffffffffffffff8214156139cd576139cc613a13565b5b600182019050919050565b6000819050919050565b60006139ed82613904565b91506139f883613904565b925082613a0857613a07613a42565b5b828206905092915050565b7f4e487b7100000000000000000000000000000000000000000000000000000000600052601160045260246000fd5b7f4e487b7100000000000000000000000000000000000000000000000000000000600052601260045260246000fd5b7f4e487b7100000000000000000000000000000000000000000000000000000000600052602260045260246000fd5b7f4e487b7100000000000000000000000000000000000000000000000000000000600052604160045260246000fd5b6000601f19601f8301169050919050565b613ae981613890565b8114613af457600080fd5b50565b613b00816138a2565b8114613b0b57600080fd5b50565b613b17816138b8565b8114613b2257600080fd5b50565b613b2e81613904565b8114613b3957600080fd5b5056fea264697066735822122064522b59ea124fb74b5d722a11f4bb6e9f41f2ee2ce4395458d874116783a8bc64736f6c63430008000033",
  "linkReferences": {},
  "deployedLinkReferences": {}
}