{
  "_format": "hh-sol-artifact-1",
  "contractName": "Governance",
  "sourceName": "contracts/Governance.sol",
  "abi": [
    {
      "inputs": [
        {
          "internalType": "address[]",
          "name": "heads_",
          "type": "address[]"
        },
        {
          "internalType": "address",
          "name": "governanceToken_",
          "type": "address"
        },
        {
          "internalType": "address",
          "name": "safe_",
          "type": "address"
        },
        {
          "internalType": "uint256",
          "name": "proposalTime_",
          "type": "uint256"
        },
        {
          "internalType": "uint256",
          "name": "threshold_",
          "type": "uint256"
        },
        {
          "internalType": "uint256",
          "name": "minimumProposalAmount_",
          "type": "uint256"
        }
      ],
      "stateMutability": "nonpayable",
      "type": "constructor"
    },
    {
      "anonymous": false,
      "inputs": [
        {
          "indexed": false,
          "internalType": "uint256",
          "name": "endDate",
          "type": "uint256"
        }
      ],
      "name": "GracePeriodStarted",
      "type": "event"
    },
    {
      "anonymous": false,
      "inputs": [
        {
          "indexed": false,
          "internalType": "uint256",
          "name": "number",
          "type": "uint256"
        }
      ],
      "name": "ProposalCreated",
      "type": "event"
    },
    {
      "inputs": [
        {
          "internalType": "address",
          "name": "",
          "type": "address"
        }
      ],
      "name": "_members",
      "outputs": [
        {
          "components": [
            {
              "internalType": "bool",
              "name": "headOfHouse",
              "type": "bool"
            },
            {
              "internalType": "bool",
              "name": "member",
              "type": "bool"
            }
          ],
          "internalType": "struct IDAO.Role",
          "name": "roles",
          "type": "tuple"
        },
        {
          "internalType": "bool",
          "name": "activeProposal",
          "type": "bool"
        }
      ],
      "stateMutability": "view",
      "type": "function"
    },
    {
      "inputs": [
        {
          "internalType": "uint256",
          "name": "",
          "type": "uint256"
        }
      ],
      "name": "_proposals",
      "outputs": [
        {
          "internalType": "uint256",
          "name": "value",
          "type": "uint256"
        },
        {
          "components": [
            {
              "internalType": "bool",
              "name": "headOfHouse",
              "type": "bool"
            },
            {
              "internalType": "bool",
              "name": "member",
              "type": "bool"
            }
          ],
          "internalType": "struct IDAO.Role",
          "name": "role",
          "type": "tuple"
        },
        {
          "internalType": "uint256",
          "name": "yesVotes",
          "type": "uint256"
        },
        {
          "internalType": "uint256",
          "name": "noVotes",
          "type": "uint256"
        },
        {
          "internalType": "bool",
          "name": "executed",
          "type": "bool"
        },
        {
          "internalType": "bool",
          "name": "queued",
          "type": "bool"
        },
        {
          "internalType": "uint256",
          "name": "deadline",
          "type": "uint256"
        },
        {
          "internalType": "address",
          "name": "proposer",
          "type": "address"
        },
        {
          "internalType": "bool",
          "name": "canceled",
          "type": "bool"
        },
        {
          "internalType": "uint256",
          "name": "gracePeriod",
          "type": "uint256"
        },
        {
          "internalType": "address",
          "name": "targetAddress",
          "type": "address"
        },
        {
          "internalType": "bytes",
          "name": "data",
          "type": "bytes"
        },
        {
          "internalType": "enum Enum.Operation",
          "name": "operation",
          "type": "uint8"
        }
      ],
      "stateMutability": "view",
      "type": "function"
    },
    {
      "inputs": [
        {
          "internalType": "uint256",
          "name": "proposalId",
          "type": "uint256"
        }
      ],
      "name": "cancelProposal",
      "outputs": [],
      "stateMutability": "nonpayable",
      "type": "function"
    },
    {
      "inputs": [
        {
          "internalType": "uint256",
          "name": "proposalId",
          "type": "uint256"
        }
      ],
      "name": "executeModularProposal",
      "outputs": [],
      "stateMutability": "nonpayable",
      "type": "function"
    },
    {
      "inputs": [],
      "name": "gracePeriod",
      "outputs": [
        {
          "internalType": "uint256",
          "name": "",
          "type": "uint256"
        }
      ],
      "stateMutability": "view",
      "type": "function"
    },
    {
      "inputs": [
        {
          "internalType": "address",
          "name": "member",
          "type": "address"
        }
      ],
      "name": "headOfHouseEnterMember",
      "outputs": [],
      "stateMutability": "nonpayable",
      "type": "function"
    },
    {
      "inputs": [
        {
          "internalType": "address",
          "name": "member",
          "type": "address"
        }
      ],
      "name": "headOfHouseRemoveMember",
      "outputs": [],
      "stateMutability": "nonpayable",
      "type": "function"
    },
    {
      "inputs": [],
      "name": "memberCount",
      "outputs": [
        {
          "internalType": "uint256",
          "name": "",
          "type": "uint256"
        }
      ],
      "stateMutability": "view",
      "type": "function"
    },
    {
      "inputs": [],
      "name": "minimumProposalAmount",
      "outputs": [
        {
          "internalType": "uint256",
          "name": "",
          "type": "uint256"
        }
      ],
      "stateMutability": "view",
      "type": "function"
    },
    {
      "inputs": [
        {
          "internalType": "uint256",
          "name": "proposalId",
          "type": "uint256"
        }
      ],
      "name": "startModularGracePeriod",
      "outputs": [],
      "stateMutability": "nonpayable",
      "type": "function"
    },
    {
      "inputs": [
        {
          "internalType": "address",
          "name": "to",
          "type": "address"
        },
        {
          "internalType": "uint256",
          "name": "value",
          "type": "uint256"
        },
        {
          "internalType": "bytes",
          "name": "data",
          "type": "bytes"
        }
      ],
      "name": "submitModularProposal",
      "outputs": [],
      "stateMutability": "nonpayable",
      "type": "function"
    },
    {
      "inputs": [],
      "name": "threshold",
      "outputs": [
        {
          "internalType": "uint256",
          "name": "",
          "type": "uint256"
        }
      ],
      "stateMutability": "view",
      "type": "function"
    },
    {
      "inputs": [],
      "name": "totalProposalCount",
      "outputs": [
        {
          "internalType": "uint256",
          "name": "",
          "type": "uint256"
        }
      ],
      "stateMutability": "view",
      "type": "function"
    },
    {
      "inputs": [
        {
          "internalType": "uint256",
          "name": "gracePeriod",
          "type": "uint256"
        }
      ],
      "name": "updateGracePeriod",
      "outputs": [],
      "stateMutability": "nonpayable",
      "type": "function"
    },
    {
      "inputs": [
        {
          "internalType": "uint256",
          "name": "minimumProposalAmount",
          "type": "uint256"
        }
      ],
      "name": "updateMinimumProposalAmount",
      "outputs": [],
      "stateMutability": "nonpayable",
      "type": "function"
    },
    {
      "inputs": [
        {
          "internalType": "uint256",
          "name": "newTime",
          "type": "uint256"
        }
      ],
      "name": "updateProposalTime",
      "outputs": [],
      "stateMutability": "nonpayable",
      "type": "function"
    },
    {
      "inputs": [
        {
          "internalType": "uint256",
          "name": "threshold",
          "type": "uint256"
        }
      ],
      "name": "updateThreshold",
      "outputs": [],
      "stateMutability": "nonpayable",
      "type": "function"
    },
    {
      "inputs": [
        {
          "internalType": "uint256",
          "name": "proposalId",
          "type": "uint256"
        },
        {
          "internalType": "bool",
          "name": "vote",
          "type": "bool"
        }
      ],
      "name": "vote",
      "outputs": [],
      "stateMutability": "nonpayable",
      "type": "function"
    }
  ],
  "bytecode": "0x6080604052603c6003553480156200001657600080fd5b5060405162001d2038038062001d208339810160408190526200003991620001fb565b60005b8651811015620001895760006001600160a01b03168782815181106200007257634e487b7160e01b600052603260045260246000fd5b60200260200101516001600160a01b031614156200008f57600080fd5b600160086000898481518110620000b657634e487b7160e01b600052603260045260246000fd5b60200260200101516001600160a01b03166001600160a01b0316815260200190815260200160002060000160000160006101000a81548160ff0219169083151502179055506001600860008984815181106200012257634e487b7160e01b600052603260045260246000fd5b6020908102919091018101516001600160a01b03168252810191909152604001600090812080549215156101000261ff00199093169290921790915560018054916200016e836200032d565b9190505550808062000180906200032d565b9150506200003c565b50600680546001600160a01b038087166001600160a01b0319928316179092556007805492881692909116919091179055620001c783603c6200030b565b600255600491909155600555506200037792505050565b80516001600160a01b0381168114620001f657600080fd5b919050565b60008060008060008060c0878903121562000214578182fd5b86516001600160401b03808211156200022b578384fd5b818901915089601f8301126200023f578384fd5b815160208282111562000256576200025662000361565b8082026040518282820101818110868211171562000278576200027862000361565b604052838152828101945085830182870184018f101562000297578889fd5b8896505b84871015620002c457620002af81620001de565b8652600196909601959483019483016200029b565b509a50620002d690508b8201620001de565b985050505050620002ea60408801620001de565b9350606087015192506080870151915060a087015190509295509295509295565b60008160001904831182151516156200032857620003286200034b565b500290565b60006000198214156200034457620003446200034b565b5060010190565b634e487b7160e01b600052601160045260246000fd5b634e487b7160e01b600052604160045260246000fd5b61199980620003876000396000f3fe608060405234801561001057600080fd5b50600436106101165760003560e01c806398c69868116100a2578063c9d27afe11610071578063c9d27afe14610217578063cda57a221461022a578063d7d7442f1461024b578063e0a8f6f51461025e578063ead0eedf1461027157610116565b806398c69868146101e1578063a06db7dc146101f4578063a860bd4f146101fc578063c11e76f11461020457610116565b80635ab98d5a116100e95780635ab98d5a146101825780635ece30ab14610195578063663c96c8146101a857806387e06c48146101bb5780638a08428a146101ce57610116565b80630a4948401461011b57806311aee3801461015057806326db8f651461016557806342cde4e81461017a575b600080fd5b61012e61012936600461123d565b610279565b6040516101479d9c9b9a999897969594939291906117db565b60405180910390f35b6101586103a5565b60405161014791906117d2565b61017861017336600461123d565b6103ab565b005b6101586103e3565b61017861019036600461123d565b6103e9565b6101786101a336600461123d565b610418565b6101786101b6366004611164565b610447565b6101786101c936600461114a565b6106f6565b6101786101dc36600461114a565b6107fc565b6101786101ef36600461123d565b6108f6565b610158610a88565b610158610a8e565b61017861021236600461123d565b610a94565b61017861022536600461126d565b610c9f565b61023d61023836600461114a565b610f40565b6040516101479291906117b5565b61017861025936600461123d565b610f7e565b61017861026c36600461123d565b610fad565b61015861107c565b60096020818152600092835260409283902080548451808601909552600182015460ff8082161515875261010091829004811615159487019490945260028301546003840154600485015460058601546006870154600788015499880154600a89018054989c9b969a9599858716999890950486169793966001600160a01b0380851697600160a01b9095049094169590949390921692610319906118d0565b80601f0160208091040260200160405190810160405280929190818152602001828054610345906118d0565b80156103925780601f1061036757610100808354040283529160200191610392565b820191906000526020600020905b81548152906001019060200180831161037557829003601f168201915b505050600b909301549192505060ff168d565b60015490565b6006546001600160a01b031633146103de5760405162461bcd60e51b81526004016103d59061157a565b60405180910390fd5b600555565b60045490565b6006546001600160a01b031633146104135760405162461bcd60e51b81526004016103d59061157a565b600355565b6006546001600160a01b031633146104425760405162461bcd60e51b81526004016103d59061157a565b600255565b3360009081526008602052604090206001015460ff161561047a5760405162461bcd60e51b81526004016103d5906114fd565b6005546007546040516370a0823160e01b81526001600160a01b03909116906370a08231906104ad90339060040161132f565b60206040518083038186803b1580156104c557600080fd5b505afa1580156104d9573d6000803e3d6000fd5b505050506040513d601f19601f820116820180604052508101906104fd9190611255565b101561051b5760405162461bcd60e51b81526004016103d5906116d1565b3360008181526008602090815260408083206001908101805460ff191690911790558254835260099091529081902084905560075490516370a0823160e01b81526001600160a01b03909116916370a082319161057b919060040161132f565b60206040518083038186803b15801561059357600080fd5b505afa1580156105a7573d6000803e3d6000fd5b505050506040513d601f19601f820116820180604052508101906105cb9190611255565b600080548152600960205260409020600290810191909155546105ee904261188a565b60008054815260096020818152604080842060050194909455825483528383206006018054336001600160a01b031991821681179092558454855285852091855260089091018252848420805460ff191660011790558354845282825284842090920180549092166001600160a01b0388161790915581548252919020825161067f92600a90920191840190611095565b50600080548152600960205260408120600b01805460ff19169055805490806106a78361190b565b91905055507fc2c021f5d73c63c481d336fbbafec58f694fc45095f00b02d2deb8cca59afe0760016000546106dc91906118a2565b6040516106e991906117d2565b60405180910390a1505050565b6006546001600160a01b031633146107205760405162461bcd60e51b81526004016103d59061157a565b6005546007546040516370a0823160e01b81526001600160a01b03909116906370a082319061075390859060040161132f565b60206040518083038186803b15801561076b57600080fd5b505afa15801561077f573d6000803e3d6000fd5b505050506040513d601f19601f820116820180604052508101906107a39190611255565b10156107c15760405162461bcd60e51b81526004016103d5906115b1565b6001600160a01b0381166000908152600860205260408120805461ff00191661010017905560018054916107f48361190b565b919050555050565b6006546001600160a01b031633146108265760405162461bcd60e51b81526004016103d59061157a565b6005546007546040516370a0823160e01b81526001600160a01b03909116906370a082319061085990859060040161132f565b60206040518083038186803b15801561087157600080fd5b505afa158015610885573d6000803e3d6000fd5b505050506040513d601f19601f820116820180604052508101906108a99190611255565b10156108c75760405162461bcd60e51b81526004016103d5906115b1565b6001600160a01b0381166000908152600860205260408120805461ffff1916905560018054916107f4836118b9565b6000818152600960205260409020600601548190600160a01b900460ff16156109315760405162461bcd60e51b81526004016103d590611720565b60008181526009602052604090206004015460ff16156109635760405162461bcd60e51b81526004016103d59061177e565b60045460008281526009602052604090206002015410156109965760405162461bcd60e51b81526004016103d590611655565b6000818152600960205260409020600381015460029091015410156109cd5760405162461bcd60e51b81526004016103d59061174f565b600082815260096020526040902060070154156109fc5760405162461bcd60e51b81526004016103d59061145a565b600082815260096020526040902060050154421015610a2d5760405162461bcd60e51b81526004016103d590611416565b600354610a3a904261188a565b60008381526009602052604090819020600701829055517f8f8e13a8081be398c5032b04ccda337e916cf2d86c3708db9a734e6db8eb549091610a7c916117d2565b60405180910390a15050565b60035490565b60055490565b6000818152600960205260409020600601548190600160a01b900460ff1615610acf5760405162461bcd60e51b81526004016103d590611720565b60008181526009602052604090206004015460ff1615610b015760405162461bcd60e51b81526004016103d59061177e565b6004546000828152600960205260409020600201541015610b345760405162461bcd60e51b81526004016103d590611655565b600081815260096020526040902060038101546002909101541015610b6b5760405162461bcd60e51b81526004016103d59061174f565b6000828152600960205260409020600701544210801590610b9c575060008281526009602052604090206007015415155b610bb85760405162461bcd60e51b81526004016103d59061169a565b60008281526009602081815260408084206006808201546001600160a01b039081168752600885528387206001908101805460ff19908116909155978a9052948690526004808401805490981690951790965554938101548154600b830154935163468721a760e01b81529587169663468721a796610c489693909116949193600a019260ff9092169101611343565b602060405180830381600087803b158015610c6257600080fd5b505af1158015610c76573d6000803e3d6000fd5b505050506040513d601f19601f82011682018060405250810190610c9a9190611221565b505050565b3360009081526008602052604090205460ff610100909104161515600114610cd95760405162461bcd60e51b81526004016103d5906115f8565b600082815260096020908152604080832033845260080190915290205460ff1615610d165760405162461bcd60e51b81526004016103d59061149f565b600082815260096020526040902060060154600160a01b900460ff1615610d4f5760405162461bcd60e51b81526004016103d5906114c6565b60008281526009602052604090206004015460ff1615610d815760405162461bcd60e51b81526004016103d590611543565b600082815260096020526040902060050154421115610db25760405162461bcd60e51b81526004016103d59061161e565b60008281526009602090815260408083203384526008019091529020805460ff1916600117905580610e8f576007546040516370a0823160e01b8152610e78916001600160a01b0316906370a0823190610e1090339060040161132f565b60206040518083038186803b158015610e2857600080fd5b505afa158015610e3c573d6000803e3d6000fd5b505050506040513d601f19601f82011682018060405250810190610e609190611255565b60008481526009602052604090206003015490611082565b600083815260096020526040902060030155610f3c565b6007546040516370a0823160e01b8152610f29916001600160a01b0316906370a0823190610ec190339060040161132f565b60206040518083038186803b158015610ed957600080fd5b505afa158015610eed573d6000803e3d6000fd5b505050506040513d601f19601f82011682018060405250810190610f119190611255565b60008481526009602052604090206002015490611082565b6000838152600960205260409020600201555b5050565b6008602090815260009182526040918290208251808401909352805460ff808216151585526101009091048116151592840192909252600101541682565b6006546001600160a01b03163314610fa85760405162461bcd60e51b81526004016103d59061157a565b600455565b600081815260096020526040902060060154600160a01b900460ff1615610fd357600080fd5b60008181526009602052604090206004015460ff1615610ff257600080fd5b60008181526009602052604090206005015442111561101057600080fd5b6000818152600960205260409020600601546001600160a01b0316331461103657600080fd5b6000908152600960209081526040808320600601805460ff60a01b1916600160a01b17908190556001600160a01b0316835260089091529020600101805460ff19169055565b60005490565b600061108e828461188a565b9392505050565b8280546110a1906118d0565b90600052602060002090601f0160209004810192826110c35760008555611109565b82601f106110dc57805160ff1916838001178555611109565b82800160010185558215611109579182015b828111156111095782518255916020019190600101906110ee565b50611115929150611119565b5090565b5b80821115611115576000815560010161111a565b80356001600160a01b038116811461114557600080fd5b919050565b60006020828403121561115b578081fd5b61108e8261112e565b600080600060608486031215611178578182fd5b6111818461112e565b92506020808501359250604085013567ffffffffffffffff808211156111a5578384fd5b818701915087601f8301126111b8578384fd5b8135818111156111ca576111ca61193c565b604051601f8201601f19168101850183811182821017156111ed576111ed61193c565b60405281815283820185018a1015611203578586fd5b81858501868301378585838301015280955050505050509250925092565b600060208284031215611232578081fd5b815161108e81611952565b60006020828403121561124e578081fd5b5035919050565b600060208284031215611266578081fd5b5051919050565b6000806040838503121561127f578182fd5b82359150602083013561129181611952565b809150509250929050565b6001600160a01b03169052565b15159052565b60008151808452815b818110156112d4576020818501810151868301820152016112b8565b818111156112e55782602083870101525b50601f01601f19169290920160200192915050565b6002811061131857634e487b7160e01b600052602160045260246000fd5b9052565b8051151582526020908101511515910152565b6001600160a01b0391909116815260200190565b6001600160a01b038516815260208082018590526080604083015283546000919082906002810460018281168061137b57607f831692505b85831081141561139957634e487b7160e01b87526022600452602487fd5b6113a68360808a016117d2565b8180156113ba57600181146113cb576113f5565b60ff198616825287820196506113f5565b6113d48c61187e565b895b868110156113ef578154848201529085019089016113d6565b83019750505b505050505050809250505061140d60608301846112fa565b95945050505050565b60208082526024908201527f70726f706f73616c20646561646c696e6520686173206e6f7420706173736564604082015263081e595d60e21b606082015260800190565b60208082526025908201527f70726f706f73616c20616c726561647920656e74657265642067726163652070604082015264195c9a5bd960da1b606082015260800190565b6020808252600d908201526c185b1c9958591e481d9bdd1959609a1b604082015260600190565b6020808252601a908201527f70726f706f73616c20686173206265656e2063616e63656c6564000000000000604082015260600190565b60208082526026908201527f6d656d656265722068617320616e206163746976652070726f706f73616c20616040820152656c726561647960d01b606082015260800190565b6020808252601c908201527f70726f706f73616c20697320616c726561647920657865637574656400000000604082015260600190565b6020808252601a908201527f6f6e6c7920676e6f7369732073616665206d617920656e746572000000000000604082015260600190565b60208082526027908201527f73706f6e736f7220646f6573206e6f74206861766520656e6f75676820676f7660408201526620746f6b656e7360c81b606082015260800190565b6020808252600c908201526b3737ba10309036b2b6b132b960a11b604082015260600190565b6020808252601d908201527f70726f706f73616c20697320706173742074686520646561646c696e65000000604082015260600190565b60208082526025908201527f70726f706f73616c20646f6573206e6f74206d65657420766f746520746872656040820152641cda1bdb1960da1b606082015260800190565b6020808252601c908201527f677261636520706572696f6420686173206e6f7420656c617073656400000000604082015260600190565b6020808252602f908201527f7375626d69742070726f706f73616c20646f6573206e6f74206861766520656e60408201526e6f75676820676f7620746f6b656e7360881b606082015260800190565b6020808252601590820152741c1c9bdc1bdcd85b081dd85cc818d85b98d95b1959605a1b604082015260600190565b6020808252601590820152746e6f20766f746573206f757477656967682079657360581b604082015260600190565b60208082526019908201527f70726f706f73616c20616c726561647920657865637574656400000000000000604082015260600190565b606081016117c3828561131c565b82151560408301529392505050565b90815260200190565b60008e82526117ed602083018f61131c565b606082018d9052608082018c90528a151560a083015289151560c083015260e082018990526001600160a01b0388166101008301526118306101208301886112a9565b8561014083015261184561016083018661129c565b6101c061018083015261185c6101c08301856112af565b905061186c6101a08301846112fa565b9e9d5050505050505050505050505050565b60009081526020902090565b6000821982111561189d5761189d611926565b500190565b6000828210156118b4576118b4611926565b500390565b6000816118c8576118c8611926565b506000190190565b6002810460018216806118e457607f821691505b6020821081141561190557634e487b7160e01b600052602260045260246000fd5b50919050565b600060001982141561191f5761191f611926565b5060010190565b634e487b7160e01b600052601160045260246000fd5b634e487b7160e01b600052604160045260246000fd5b801515811461196057600080fd5b5056fea2646970667358221220530c9a6a26869b769ebca597b5fcca4f996b4a20366609581f8ecff4498c247864736f6c63430008000033",
  "linkReferences": {},
  "deployedLinkReferences": {}
}