{
  "_format": "hh-sol-artifact-1",
  "contractName": "HouseDAOGovernance",
  "sourceName": "contracts/HouseDAOGovernance.sol",
  "abi": [
    {
      "inputs": [
        {
          "internalType": "address[]",
          "name": "heads",
          "type": "address[]"
        },
        {
          "internalType": "address",
          "name": "_governanceToken",
          "type": "address"
        },
        {
          "internalType": "uint256",
          "name": "_entryAmount",
          "type": "uint256"
        },
        {
          "internalType": "uint256",
          "name": "_proposalTime",
          "type": "uint256"
        },
        {
          "internalType": "uint256",
          "name": "_totalGovernanceSupply",
          "type": "uint256"
        },
        {
          "internalType": "uint256",
          "name": "_threshold",
          "type": "uint256"
        },
        {
          "internalType": "uint256",
          "name": "_minimumProposalAmount",
          "type": "uint256"
        },
        {
          "internalType": "uint256",
          "name": "_entryReward",
          "type": "uint256"
        },
        {
          "internalType": "address",
          "name": "_weth",
          "type": "address"
        }
      ],
      "stateMutability": "nonpayable",
      "type": "constructor"
    },
    {
      "anonymous": false,
      "inputs": [
        {
          "indexed": false,
          "internalType": "uint256",
          "name": "number",
          "type": "uint256"
        }
      ],
      "name": "ProposalCreated",
      "type": "event"
    },
    {
      "inputs": [],
      "name": "WETH",
      "outputs": [
        {
          "internalType": "address",
          "name": "",
          "type": "address"
        }
      ],
      "stateMutability": "view",
      "type": "function"
    },
    {
      "inputs": [
        {
          "internalType": "uint256",
          "name": "_contribution",
          "type": "uint256"
        }
      ],
      "name": "addMoreContribution",
      "outputs": [],
      "stateMutability": "nonpayable",
      "type": "function"
    },
    {
      "inputs": [
        {
          "internalType": "uint256",
          "name": "_threshold",
          "type": "uint256"
        }
      ],
      "name": "adminUpdateThreshold",
      "outputs": [],
      "stateMutability": "nonpayable",
      "type": "function"
    },
    {
      "inputs": [],
      "name": "balance",
      "outputs": [
        {
          "internalType": "uint256",
          "name": "",
          "type": "uint256"
        }
      ],
      "stateMutability": "view",
      "type": "function"
    },
    {
      "inputs": [
        {
          "internalType": "uint256",
          "name": "_proposalId",
          "type": "uint256"
        }
      ],
      "name": "cancelEnterDAO",
      "outputs": [],
      "stateMutability": "nonpayable",
      "type": "function"
    },
    {
      "inputs": [
        {
          "internalType": "uint256",
          "name": "_proposalId",
          "type": "uint256"
        }
      ],
      "name": "cancelProposal",
      "outputs": [],
      "stateMutability": "nonpayable",
      "type": "function"
    },
    {
      "inputs": [],
      "name": "entryAmount",
      "outputs": [
        {
          "internalType": "uint256",
          "name": "",
          "type": "uint256"
        }
      ],
      "stateMutability": "view",
      "type": "function"
    },
    {
      "inputs": [],
      "name": "entryReward",
      "outputs": [
        {
          "internalType": "uint256",
          "name": "",
          "type": "uint256"
        }
      ],
      "stateMutability": "view",
      "type": "function"
    },
    {
      "inputs": [
        {
          "internalType": "uint256",
          "name": "_proposalId",
          "type": "uint256"
        }
      ],
      "name": "executeChangeRoleProposal",
      "outputs": [],
      "stateMutability": "nonpayable",
      "type": "function"
    },
    {
      "inputs": [
        {
          "internalType": "uint256",
          "name": "_proposalId",
          "type": "uint256"
        }
      ],
      "name": "executeEnterDAOProposal",
      "outputs": [],
      "stateMutability": "nonpayable",
      "type": "function"
    },
    {
      "inputs": [
        {
          "internalType": "uint256",
          "name": "_proposalId",
          "type": "uint256"
        }
      ],
      "name": "executeFundingProposal",
      "outputs": [],
      "stateMutability": "nonpayable",
      "type": "function"
    },
    {
      "inputs": [],
      "name": "fundedProjects",
      "outputs": [
        {
          "internalType": "uint256",
          "name": "",
          "type": "uint256"
        }
      ],
      "stateMutability": "view",
      "type": "function"
    },
    {
      "inputs": [],
      "name": "governanceToken",
      "outputs": [
        {
          "internalType": "address",
          "name": "",
          "type": "address"
        }
      ],
      "stateMutability": "view",
      "type": "function"
    },
    {
      "inputs": [],
      "name": "gracePeriod",
      "outputs": [
        {
          "internalType": "uint256",
          "name": "",
          "type": "uint256"
        }
      ],
      "stateMutability": "view",
      "type": "function"
    },
    {
      "inputs": [
        {
          "internalType": "address",
          "name": "_member",
          "type": "address"
        },
        {
          "internalType": "uint256",
          "name": "_contribution",
          "type": "uint256"
        }
      ],
      "name": "headOfHouseEnterMember",
      "outputs": [],
      "stateMutability": "nonpayable",
      "type": "function"
    },
    {
      "inputs": [],
      "name": "init",
      "outputs": [],
      "stateMutability": "nonpayable",
      "type": "function"
    },
    {
      "inputs": [],
      "name": "initialized",
      "outputs": [
        {
          "internalType": "bool",
          "name": "",
          "type": "bool"
        }
      ],
      "stateMutability": "view",
      "type": "function"
    },
    {
      "inputs": [
        {
          "internalType": "uint256",
          "name": "_contribution",
          "type": "uint256"
        },
        {
          "components": [
            {
              "internalType": "bool",
              "name": "headOfHouse",
              "type": "bool"
            },
            {
              "internalType": "bool",
              "name": "member",
              "type": "bool"
            }
          ],
          "internalType": "struct IHouseDAO.Role",
          "name": "_role",
          "type": "tuple"
        }
      ],
      "name": "joinDAOProposal",
      "outputs": [],
      "stateMutability": "nonpayable",
      "type": "function"
    },
    {
      "inputs": [],
      "name": "memberCount",
      "outputs": [
        {
          "internalType": "uint256",
          "name": "",
          "type": "uint256"
        }
      ],
      "stateMutability": "view",
      "type": "function"
    },
    {
      "inputs": [
        {
          "internalType": "address",
          "name": "",
          "type": "address"
        }
      ],
      "name": "members",
      "outputs": [
        {
          "internalType": "uint256",
          "name": "shares",
          "type": "uint256"
        },
        {
          "components": [
            {
              "internalType": "bool",
              "name": "headOfHouse",
              "type": "bool"
            },
            {
              "internalType": "bool",
              "name": "member",
              "type": "bool"
            }
          ],
          "internalType": "struct IHouseDAO.Role",
          "name": "roles",
          "type": "tuple"
        },
        {
          "internalType": "bool",
          "name": "activeProposal",
          "type": "bool"
        }
      ],
      "stateMutability": "view",
      "type": "function"
    },
    {
      "inputs": [],
      "name": "minimumProposalAmount",
      "outputs": [
        {
          "internalType": "uint256",
          "name": "",
          "type": "uint256"
        }
      ],
      "stateMutability": "view",
      "type": "function"
    },
    {
      "inputs": [],
      "name": "name",
      "outputs": [
        {
          "internalType": "string",
          "name": "",
          "type": "string"
        }
      ],
      "stateMutability": "view",
      "type": "function"
    },
    {
      "inputs": [],
      "name": "proposalTime",
      "outputs": [
        {
          "internalType": "uint256",
          "name": "",
          "type": "uint256"
        }
      ],
      "stateMutability": "view",
      "type": "function"
    },
    {
      "inputs": [
        {
          "internalType": "uint256",
          "name": "",
          "type": "uint256"
        }
      ],
      "name": "proposals",
      "outputs": [
        {
          "internalType": "uint256",
          "name": "fundsRequested",
          "type": "uint256"
        },
        {
          "internalType": "uint8",
          "name": "proposalType",
          "type": "uint8"
        },
        {
          "internalType": "address",
          "name": "targetAddress",
          "type": "address"
        },
        {
          "components": [
            {
              "internalType": "bool",
              "name": "headOfHouse",
              "type": "bool"
            },
            {
              "internalType": "bool",
              "name": "member",
              "type": "bool"
            }
          ],
          "internalType": "struct IHouseDAO.Role",
          "name": "role",
          "type": "tuple"
        },
        {
          "internalType": "uint256",
          "name": "yesVotes",
          "type": "uint256"
        },
        {
          "internalType": "uint256",
          "name": "noVotes",
          "type": "uint256"
        },
        {
          "internalType": "bool",
          "name": "executed",
          "type": "bool"
        },
        {
          "internalType": "uint256",
          "name": "deadline",
          "type": "uint256"
        },
        {
          "internalType": "address",
          "name": "proposer",
          "type": "address"
        },
        {
          "internalType": "bool",
          "name": "canceled",
          "type": "bool"
        },
        {
          "internalType": "uint256",
          "name": "gracePeriod",
          "type": "uint256"
        }
      ],
      "stateMutability": "view",
      "type": "function"
    },
    {
      "inputs": [],
      "name": "remainingSupply",
      "outputs": [
        {
          "internalType": "uint256",
          "name": "",
          "type": "uint256"
        }
      ],
      "stateMutability": "view",
      "type": "function"
    },
    {
      "inputs": [
        {
          "internalType": "address",
          "name": "_nftAddress",
          "type": "address"
        },
        {
          "internalType": "uint256",
          "name": "_nftId",
          "type": "uint256"
        },
        {
          "internalType": "address",
          "name": "_recipient",
          "type": "address"
        }
      ],
      "name": "sendNFT",
      "outputs": [],
      "stateMutability": "nonpayable",
      "type": "function"
    },
    {
      "inputs": [
        {
          "internalType": "uint256",
          "name": "_proposalId",
          "type": "uint256"
        }
      ],
      "name": "startFundingProposalGracePeriod",
      "outputs": [],
      "stateMutability": "nonpayable",
      "type": "function"
    },
    {
      "inputs": [],
      "name": "submitModularProposal",
      "outputs": [],
      "stateMutability": "nonpayable",
      "type": "function"
    },
    {
      "inputs": [
        {
          "components": [
            {
              "internalType": "bool",
              "name": "headOfHouse",
              "type": "bool"
            },
            {
              "internalType": "bool",
              "name": "member",
              "type": "bool"
            }
          ],
          "internalType": "struct IHouseDAO.Role",
          "name": "_role",
          "type": "tuple"
        },
        {
          "internalType": "address",
          "name": "_recipient",
          "type": "address"
        },
        {
          "internalType": "uint256",
          "name": "_funding",
          "type": "uint256"
        },
        {
          "internalType": "uint8",
          "name": "_proposalType",
          "type": "uint8"
        }
      ],
      "name": "submitProposal",
      "outputs": [],
      "stateMutability": "nonpayable",
      "type": "function"
    },
    {
      "inputs": [],
      "name": "threshold",
      "outputs": [
        {
          "internalType": "uint256",
          "name": "",
          "type": "uint256"
        }
      ],
      "stateMutability": "view",
      "type": "function"
    },
    {
      "inputs": [],
      "name": "totalContribution",
      "outputs": [
        {
          "internalType": "uint256",
          "name": "",
          "type": "uint256"
        }
      ],
      "stateMutability": "view",
      "type": "function"
    },
    {
      "inputs": [],
      "name": "totalGovernanceSupply",
      "outputs": [
        {
          "internalType": "uint256",
          "name": "",
          "type": "uint256"
        }
      ],
      "stateMutability": "view",
      "type": "function"
    },
    {
      "inputs": [],
      "name": "totalProposalCount",
      "outputs": [
        {
          "internalType": "uint256",
          "name": "",
          "type": "uint256"
        }
      ],
      "stateMutability": "view",
      "type": "function"
    },
    {
      "inputs": [
        {
          "internalType": "uint256",
          "name": "_proposalId",
          "type": "uint256"
        },
        {
          "internalType": "bool",
          "name": "_vote",
          "type": "bool"
        }
      ],
      "name": "vote",
      "outputs": [],
      "stateMutability": "nonpayable",
      "type": "function"
    },
    {
      "inputs": [],
      "name": "withdraw",
      "outputs": [],
      "stateMutability": "nonpayable",
      "type": "function"
    }
  ],
  "bytecode": "0x60806040526203f4806007556000601260006101000a81548173ffffffffffffffffffffffffffffffffffffffff021916908373ffffffffffffffffffffffffffffffffffffffff1602179055503480156200005a57600080fd5b5060405162005d8538038062005d8583398181016040528101906200008091906200041a565b60005b89518110156200027757600073ffffffffffffffffffffffffffffffffffffffff168a8281518110620000df577f4e487b7100000000000000000000000000000000000000000000000000000000600052603260045260246000fd5b602002602001015173ffffffffffffffffffffffffffffffffffffffff1614156200010957600080fd5b6001600260008c848151811062000149577f4e487b7100000000000000000000000000000000000000000000000000000000600052603260045260246000fd5b602002602001015173ffffffffffffffffffffffffffffffffffffffff1673ffffffffffffffffffffffffffffffffffffffff16815260200190815260200160002060010160000160006101000a81548160ff0219169083151502179055506001600260008c8481518110620001e8577f4e487b7100000000000000000000000000000000000000000000000000000000600052603260045260246000fd5b602002602001015173ffffffffffffffffffffffffffffffffffffffff1673ffffffffffffffffffffffffffffffffffffffff16815260200190815260200160002060010160000160016101000a81548160ff021916908315150217905550600560008154809291906200025c906200060e565b919050555080806200026e906200060e565b91505062000083565b5087601160006101000a81548173ffffffffffffffffffffffffffffffffffffffff021916908373ffffffffffffffffffffffffffffffffffffffff16021790555086600b819055506201518086620002d191906200056f565b60068190555083600a8190555084600d8190555084600e8190555082600c8190555081600f8190555080601260006101000a81548173ffffffffffffffffffffffffffffffffffffffff021916908373ffffffffffffffffffffffffffffffffffffffff160217905550505050505050505050620006ee565b6000620003616200035b8462000540565b6200050c565b905080838252602082019050828560208602820111156200038157600080fd5b60005b85811015620003b557816200039a8882620003bf565b84526020840193506020830192505060018101905062000384565b5050509392505050565b600081519050620003d081620006ba565b92915050565b600082601f830112620003e857600080fd5b8151620003fa8482602086016200034a565b91505092915050565b6000815190506200041481620006d4565b92915050565b60008060008060008060008060006101208a8c0312156200043a57600080fd5b60008a015167ffffffffffffffff8111156200045557600080fd5b620004638c828d01620003d6565b9950506020620004768c828d01620003bf565b9850506040620004898c828d0162000403565b97505060606200049c8c828d0162000403565b9650506080620004af8c828d0162000403565b95505060a0620004c28c828d0162000403565b94505060c0620004d58c828d0162000403565b93505060e0620004e88c828d0162000403565b925050610100620004fc8c828d01620003bf565b9150509295985092959850929598565b6000604051905081810181811067ffffffffffffffff821117156200053657620005356200068b565b5b8060405250919050565b600067ffffffffffffffff8211156200055e576200055d6200068b565b5b602082029050602081019050919050565b60006200057c8262000604565b9150620005898362000604565b9250817fffffffffffffffffffffffffffffffffffffffffffffffffffffffffffffffff0483118215151615620005c557620005c46200065c565b5b828202905092915050565b6000620005dd82620005e4565b9050919050565b600073ffffffffffffffffffffffffffffffffffffffff82169050919050565b6000819050919050565b60006200061b8262000604565b91507fffffffffffffffffffffffffffffffffffffffffffffffffffffffffffffffff8214156200065157620006506200065c565b5b600182019050919050565b7f4e487b7100000000000000000000000000000000000000000000000000000000600052601160045260246000fd5b7f4e487b7100000000000000000000000000000000000000000000000000000000600052604160045260246000fd5b620006c581620005d0565b8114620006d157600080fd5b50565b620006df8162000604565b8114620006eb57600080fd5b50565b61568780620006fe6000396000f3fe608060405234801561001057600080fd5b50600436106102115760003560e01c80637e44d78811610125578063b69ef8a8116100ad578063e0a8f6f51161007c578063e0a8f6f51461058a578063e1c7392a146105a6578063ead0eedf146105b0578063f96dae0a146105ce578063f99931f0146105ec57610211565b8063b69ef8a814610514578063c9d27afe14610532578063cd38b7721461054e578063da0239a61461056c57610211565b80639f23da67116100f45780639f23da6714610482578063a06db7dc1461049e578063a860bd4f146104bc578063ad15140c146104da578063ad5c4648146104f657610211565b80637e44d78814610410578063844ccf7d1461042c5780638c9f6bc314610448578063991def3c1461046457610211565b8063184a0ae9116101a857806342cde4e81161017757806342cde4e81461038257806349774ae2146103a057806354c37def146103bc5780635d3a8363146103d85780637aee47cf146103f457610211565b8063184a0ae914610334578063243a86af146103525780632947eac51461035c5780633ccfd60b1461037857610211565b80630dc30c7b116101e45780630dc30c7b146102be5780630dcf4b8f146102da57806311aee380146102f8578063158ef93e1461031657610211565b8063013cf08b1461021657806303d0f7201461025057806306fdde031461026e57806308ae4b0c1461028c575b600080fd5b610230600480360381019061022b9190614168565b61060a565b6040516102479b9a99989796959493929190615217565b60405180910390f35b61025861070b565b60405161026591906151c5565b60405180910390f35b610276610711565b6040516102839190614d83565b60405180910390f35b6102a660048036038101906102a19190614028565b61079f565b6040516102b5939291906151e0565b60405180910390f35b6102d860048036038101906102d39190614168565b610816565b005b6102e2610aa3565b6040516102ef91906151c5565b60405180910390f35b610300610aa9565b60405161030d91906151c5565b60405180910390f35b61031e610aaf565b60405161032b9190614d68565b60405180910390f35b61033c610ac0565b60405161034991906151c5565b60405180910390f35b61035a610ac6565b005b610376600480360381019061037191906141f6565b610ac8565b005b6103806110fe565b005b61038a611451565b60405161039791906151c5565b60405180910390f35b6103ba60048036038101906103b59190614168565b611457565b005b6103d660048036038101906103d19190614168565b611a8d565b005b6103f260048036038101906103ed9190614105565b611ef3565b005b61040e60048036038101906104099190614168565b612435565b005b61042a60048036038101906104259190614168565b6124d8565b005b6104466004803603810190610441919061408d565b612779565b005b610462600480360381019061045d9190614051565b612966565b005b61046c612f70565b60405161047991906151c5565b60405180910390f35b61049c60048036038101906104979190614168565b612f76565b005b6104a661328a565b6040516104b391906151c5565b60405180910390f35b6104c4613290565b6040516104d191906151c5565b60405180910390f35b6104f460048036038101906104ef9190614168565b613296565b005b6104fe61364d565b60405161050b9190614ced565b60405180910390f35b61051c613673565b60405161052991906151c5565b60405180910390f35b61054c600480360381019061054791906141ba565b613679565b005b610556613b43565b60405161056391906151c5565b60405180910390f35b610574613b49565b60405161058191906151c5565b60405180910390f35b6105a4600480360381019061059f9190614168565b613b4f565b005b6105ae613d0b565b005b6105b8613ed4565b6040516105c591906151c5565b60405180910390f35b6105d6613eda565b6040516105e39190614ced565b60405180910390f35b6105f4613f00565b60405161060191906151c5565b60405180910390f35b60036020528060005260406000206000915090508060000154908060010160009054906101000a900460ff16908060010160019054906101000a900473ffffffffffffffffffffffffffffffffffffffff1690806002016040518060400160405290816000820160009054906101000a900460ff161515151581526020016000820160019054906101000a900460ff161515151581525050908060030154908060040154908060050160009054906101000a900460ff16908060060154908060070160009054906101000a900473ffffffffffffffffffffffffffffffffffffffff16908060070160149054906101000a900460ff1690806008015490508b565b60105481565b6001805461071e906154ad565b80601f016020809104026020016040519081016040528092919081815260200182805461074a906154ad565b80156107975780601f1061076c57610100808354040283529160200191610797565b820191906000526020600020905b81548152906001019060200180831161077a57829003601f168201915b505050505081565b6002602052806000526040600020600091509050806000015490806001016040518060400160405290816000820160009054906101000a900460ff161515151581526020016000820160019054906101000a900460ff161515151581525050908060020160009054906101000a900460ff16905083565b80600015156003600083815260200190815260200160002060070160149054906101000a900460ff16151514610881576040517f08c379a000000000000000000000000000000000000000000000000000000000815260040161087890615145565b60405180910390fd5b600015156003600083815260200190815260200160002060050160009054906101000a900460ff161515146108eb576040517f08c379a00000000000000000000000000000000000000000000000000000000081526004016108e2906151a5565b60405180910390fd5b600a5460036000838152602001908152602001600020600301541015610946576040517f08c379a000000000000000000000000000000000000000000000000000000000815260040161093d90614da5565b60405180910390fd5b6003600082815260200190815260200160002060040154600360008381526020019081526020016000206003015410156109b5576040517f08c379a00000000000000000000000000000000000000000000000000000000081526004016109ac90615165565b60405180910390fd5b60006003600084815260200190815260200160002060010160009054906101000a900460ff1660ff1614610a1e576040517f08c379a0000000000000000000000000000000000000000000000000000000008152600401610a1590615105565b60405180910390fd5b6000600360008481526020019081526020016000206008015414610a77576040517f08c379a0000000000000000000000000000000000000000000000000000000008152600401610a6e90614e05565b60405180910390fd5b60075442610a859190615310565b60036000848152602001908152602001600020600801819055505050565b60085481565b60055481565b60008054906101000a900460ff1681565b60065481565b565b60001515600260003373ffffffffffffffffffffffffffffffffffffffff1673ffffffffffffffffffffffffffffffffffffffff16815260200190815260200160002060010160000160019054906101000a900460ff16151514610b61576040517f08c379a0000000000000000000000000000000000000000000000000000000008152600401610b58906150e5565b60405180910390fd5b600b54821015610ba6576040517f08c379a0000000000000000000000000000000000000000000000000000000008152600401610b9d90615045565b60405180910390fd5b81601260009054906101000a900473ffffffffffffffffffffffffffffffffffffffff1673ffffffffffffffffffffffffffffffffffffffff166370a08231336040518263ffffffff1660e01b8152600401610c029190614ced565b60206040518083038186803b158015610c1a57600080fd5b505afa158015610c2e573d6000803e3d6000fd5b505050506040513d601f19601f82011682018060405250810190610c529190614191565b1015610c93576040517f08c379a0000000000000000000000000000000000000000000000000000000008152600401610c8a90614dc5565b60405180910390fd5b600c54601160009054906101000a900473ffffffffffffffffffffffffffffffffffffffff1673ffffffffffffffffffffffffffffffffffffffff166370a08231336040518263ffffffff1660e01b8152600401610cf19190614ced565b60206040518083038186803b158015610d0957600080fd5b505afa158015610d1d573d6000803e3d6000fd5b505050506040513d601f19601f82011682018060405250810190610d419190614191565b1015610d82576040517f08c379a0000000000000000000000000000000000000000000000000000000008152600401610d7990615065565b60405180910390fd5b81600360006004548152602001908152602001600020600001819055508060036000600454815260200190815260200160002060020160008201518160000160006101000a81548160ff02191690831515021790555060208201518160000160016101000a81548160ff021916908315150217905550905050600260036000600454815260200190815260200160002060010160006101000a81548160ff021916908360ff160217905550601160009054906101000a900473ffffffffffffffffffffffffffffffffffffffff1673ffffffffffffffffffffffffffffffffffffffff166370a08231336040518263ffffffff1660e01b8152600401610e889190614ced565b60206040518083038186803b158015610ea057600080fd5b505afa158015610eb4573d6000803e3d6000fd5b505050506040513d601f19601f82011682018060405250810190610ed89190614191565b6003600060045481526020019081526020016000206003018190555060065442610f029190615310565b600360006004548152602001908152602001600020600601819055503360036000600454815260200190815260200160002060070160006101000a81548173ffffffffffffffffffffffffffffffffffffffff021916908373ffffffffffffffffffffffffffffffffffffffff160217905550600160036000600454815260200190815260200160002060090160003373ffffffffffffffffffffffffffffffffffffffff1673ffffffffffffffffffffffffffffffffffffffff16815260200190815260200160002060006101000a81548160ff02191690831515021790555060046000815480929190610ff6906154df565b9190505550601260009054906101000a900473ffffffffffffffffffffffffffffffffffffffff1673ffffffffffffffffffffffffffffffffffffffff166323b872dd3330856040518463ffffffff1660e01b815260040161105a93929190614d08565b602060405180830381600087803b15801561107457600080fd5b505af1158015611088573d6000803e3d6000fd5b505050506040513d601f19601f820116820180604052508101906110ac91906140dc565b6110b557600080fd5b7fc2c021f5d73c63c481d336fbbafec58f694fc45095f00b02d2deb8cca59afe0760016004546110e591906153f1565b6040516110f291906151c5565b60405180910390a15050565b60011515600260003373ffffffffffffffffffffffffffffffffffffffff1673ffffffffffffffffffffffffffffffffffffffff16815260200190815260200160002060010160000160019054906101000a900460ff16151514611197576040517f08c379a000000000000000000000000000000000000000000000000000000000815260040161118e90614fa5565b60405180910390fd5b6000600260003373ffffffffffffffffffffffffffffffffffffffff1673ffffffffffffffffffffffffffffffffffffffff168152602001908152602001600020600001541161121c576040517f08c379a000000000000000000000000000000000000000000000000000000000815260040161121390615005565b60405180910390fd5b600060095411611261576040517f08c379a0000000000000000000000000000000000000000000000000000000008152600401611258906150a5565b60405180910390fd5b60006112ba600954600260003373ffffffffffffffffffffffffffffffffffffffff1673ffffffffffffffffffffffffffffffffffffffff16815260200190815260200160002060000154613f0690919063ffffffff16565b905060006112d360085483613f1c90919063ffffffff16565b905061132c600260003373ffffffffffffffffffffffffffffffffffffffff1673ffffffffffffffffffffffffffffffffffffffff16815260200190815260200160002060000154600854613f3290919063ffffffff16565b6008819055506000600260003373ffffffffffffffffffffffffffffffffffffffff1673ffffffffffffffffffffffffffffffffffffffff1681526020019081526020016000206000018190555061138f81600954613f3290919063ffffffff16565b600981905550601260009054906101000a900473ffffffffffffffffffffffffffffffffffffffff1673ffffffffffffffffffffffffffffffffffffffff1663a9059cbb33836040518363ffffffff1660e01b81526004016113f2929190614d3f565b602060405180830381600087803b15801561140c57600080fd5b505af1158015611420573d6000803e3d6000fd5b505050506040513d601f19601f8201168201806040525081019061144491906140dc565b61144d57600080fd5b5050565b600a5481565b80600015156003600083815260200190815260200160002060070160149054906101000a900460ff161515146114c2576040517f08c379a00000000000000000000000000000000000000000000000000000000081526004016114b990615145565b60405180910390fd5b600015156003600083815260200190815260200160002060050160009054906101000a900460ff1615151461152c576040517f08c379a0000000000000000000000000000000000000000000000000000000008152600401611523906151a5565b60405180910390fd5b600a5460036000838152602001908152602001600020600301541015611587576040517f08c379a000000000000000000000000000000000000000000000000000000000815260040161157e90614da5565b60405180910390fd5b6003600082815260200190815260200160002060040154600360008381526020019081526020016000206003015410156115f6576040517f08c379a00000000000000000000000000000000000000000000000000000000081526004016115ed90615165565b60405180910390fd5b60026003600084815260200190815260200160002060010160009054906101000a900460ff1660ff161461165f576040517f08c379a000000000000000000000000000000000000000000000000000000000815260040161165690614e25565b60405180910390fd5b6001600260006003600086815260200190815260200160002060070160009054906101000a900473ffffffffffffffffffffffffffffffffffffffff1673ffffffffffffffffffffffffffffffffffffffff1673ffffffffffffffffffffffffffffffffffffffff16815260200190815260200160002060010160000160016101000a81548160ff0219169083151502179055506003600083815260200190815260200160002060000154600260006003600086815260200190815260200160002060070160009054906101000a900473ffffffffffffffffffffffffffffffffffffffff1673ffffffffffffffffffffffffffffffffffffffff1673ffffffffffffffffffffffffffffffffffffffff1681526020019081526020016000206000018190555060016003600084815260200190815260200160002060050160006101000a81548160ff0219169083151502179055506000600260006003600086815260200190815260200160002060070160009054906101000a900473ffffffffffffffffffffffffffffffffffffffff1673ffffffffffffffffffffffffffffffffffffffff1673ffffffffffffffffffffffffffffffffffffffff16815260200190815260200160002060020160006101000a81548160ff0219169083151502179055506118716003600084815260200190815260200160002060000154600854613f4890919063ffffffff16565b6008819055506118a26003600084815260200190815260200160002060000154600954613f4890919063ffffffff16565b600981905550600560008154809291906118bb906154df565b91905055506000600f5411801561197e5750601160009054906101000a900473ffffffffffffffffffffffffffffffffffffffff1673ffffffffffffffffffffffffffffffffffffffff166370a08231306040518263ffffffff1660e01b81526004016119289190614ced565b60206040518083038186803b15801561194057600080fd5b505afa158015611954573d6000803e3d6000fd5b505050506040513d601f19601f820116820180604052508101906119789190614191565b600f5411155b15611a895761199a600f54600e54613f3290919063ffffffff16565b600e81905550601160009054906101000a900473ffffffffffffffffffffffffffffffffffffffff1673ffffffffffffffffffffffffffffffffffffffff1663a9059cbb6003600085815260200190815260200160002060070160009054906101000a900473ffffffffffffffffffffffffffffffffffffffff16600f546040518363ffffffff1660e01b8152600401611a35929190614d3f565b602060405180830381600087803b158015611a4f57600080fd5b505af1158015611a63573d6000803e3d6000fd5b505050506040513d601f19601f82011682018060405250810190611a8791906140dc565b505b5050565b80600015156003600083815260200190815260200160002060070160149054906101000a900460ff16151514611af8576040517f08c379a0000000000000000000000000000000000000000000000000000000008152600401611aef90615145565b60405180910390fd5b600015156003600083815260200190815260200160002060050160009054906101000a900460ff16151514611b62576040517f08c379a0000000000000000000000000000000000000000000000000000000008152600401611b59906151a5565b60405180910390fd5b600a5460036000838152602001908152602001600020600301541015611bbd576040517f08c379a0000000000000000000000000000000000000000000000000000000008152600401611bb490614da5565b60405180910390fd5b600360008281526020019081526020016000206004015460036000838152602001908152602001600020600301541015611c2c576040517f08c379a0000000000000000000000000000000000000000000000000000000008152600401611c2390615165565b60405180910390fd5b60036000838152602001908152602001600020600001546009541015611c87576040517f08c379a0000000000000000000000000000000000000000000000000000000008152600401611c7e90614ee5565b60405180910390fd5b6003600083815260200190815260200160002060080154421015611ce0576040517f08c379a0000000000000000000000000000000000000000000000000000000008152600401611cd7906150c5565b60405180910390fd5b611d0b6003600084815260200190815260200160002060000154600954613f3290919063ffffffff16565b6009819055506000600260006003600086815260200190815260200160002060070160009054906101000a900473ffffffffffffffffffffffffffffffffffffffff1673ffffffffffffffffffffffffffffffffffffffff1673ffffffffffffffffffffffffffffffffffffffff16815260200190815260200160002060020160006101000a81548160ff02191690831515021790555060016003600084815260200190815260200160002060050160006101000a81548160ff02191690831515021790555060106000815480929190611de4906154df565b9190505550601260009054906101000a900473ffffffffffffffffffffffffffffffffffffffff1673ffffffffffffffffffffffffffffffffffffffff166323b872dd306003600086815260200190815260200160002060010160019054906101000a900473ffffffffffffffffffffffffffffffffffffffff1660036000878152602001908152602001600020600001546040518463ffffffff1660e01b8152600401611e9493929190614d08565b602060405180830381600087803b158015611eae57600080fd5b505af1158015611ec2573d6000803e3d6000fd5b505050506040513d601f19601f82011682018060405250810190611ee691906140dc565b611eef57600080fd5b5050565b60011515600260003373ffffffffffffffffffffffffffffffffffffffff1673ffffffffffffffffffffffffffffffffffffffff16815260200190815260200160002060010160000160019054906101000a900460ff16151514611f8c576040517f08c379a0000000000000000000000000000000000000000000000000000000008152600401611f8390614fa5565b60405180910390fd5b816009541015611fd1576040517f08c379a0000000000000000000000000000000000000000000000000000000008152600401611fc890614fc5565b60405180910390fd5b600c54601160009054906101000a900473ffffffffffffffffffffffffffffffffffffffff1673ffffffffffffffffffffffffffffffffffffffff166370a08231336040518263ffffffff1660e01b815260040161202f9190614ced565b60206040518083038186803b15801561204757600080fd5b505afa15801561205b573d6000803e3d6000fd5b505050506040513d601f19601f8201168201806040525081019061207f9190614191565b10156120c0576040517f08c379a00000000000000000000000000000000000000000000000000000000081526004016120b790615125565b60405180910390fd5b6001600260003373ffffffffffffffffffffffffffffffffffffffff1673ffffffffffffffffffffffffffffffffffffffff16815260200190815260200160002060020160006101000a81548160ff02191690831515021790555081600360006004548152602001908152602001600020600001819055508360036000600454815260200190815260200160002060020160008201518160000160006101000a81548160ff02191690831515021790555060208201518160000160016101000a81548160ff0219169083151502179055509050508060036000600454815260200190815260200160002060010160006101000a81548160ff021916908360ff160217905550601160009054906101000a900473ffffffffffffffffffffffffffffffffffffffff1673ffffffffffffffffffffffffffffffffffffffff166370a08231336040518263ffffffff1660e01b81526004016122209190614ced565b60206040518083038186803b15801561223857600080fd5b505afa15801561224c573d6000803e3d6000fd5b505050506040513d601f19601f820116820180604052508101906122709190614191565b600360006004548152602001908152602001600020600301819055506006544261229a9190615310565b600360006004548152602001908152602001600020600601819055503360036000600454815260200190815260200160002060070160006101000a81548173ffffffffffffffffffffffffffffffffffffffff021916908373ffffffffffffffffffffffffffffffffffffffff1602179055508260036000600454815260200190815260200160002060010160016101000a81548173ffffffffffffffffffffffffffffffffffffffff021916908373ffffffffffffffffffffffffffffffffffffffff160217905550600160036000600454815260200190815260200160002060090160003373ffffffffffffffffffffffffffffffffffffffff1673ffffffffffffffffffffffffffffffffffffffff16815260200190815260200160002060006101000a81548160ff021916908315150217905550600460008154809291906123e5906154df565b91905055507fc2c021f5d73c63c481d336fbbafec58f694fc45095f00b02d2deb8cca59afe07600160045461241a91906153f1565b60405161242791906151c5565b60405180910390a150505050565b60011515600260003373ffffffffffffffffffffffffffffffffffffffff1673ffffffffffffffffffffffffffffffffffffffff16815260200190815260200160002060010160000160009054906101000a900460ff161515146124ce576040517f08c379a00000000000000000000000000000000000000000000000000000000081526004016124c590615025565b60405180910390fd5b80600a8190555050565b600015156003600083815260200190815260200160002060070160149054906101000a900460ff16151514612542576040517f08c379a000000000000000000000000000000000000000000000000000000000815260040161253990614ea5565b60405180910390fd5b600015156003600083815260200190815260200160002060050160009054906101000a900460ff161515146125ac576040517f08c379a00000000000000000000000000000000000000000000000000000000081526004016125a390614f25565b60405180910390fd5b60016003600083815260200190815260200160002060070160146101000a81548160ff0219169083151502179055506000600260006003600085815260200190815260200160002060070160009054906101000a900473ffffffffffffffffffffffffffffffffffffffff1673ffffffffffffffffffffffffffffffffffffffff1673ffffffffffffffffffffffffffffffffffffffff16815260200190815260200160002060020160006101000a81548160ff021916908315150217905550601260009054906101000a900473ffffffffffffffffffffffffffffffffffffffff1673ffffffffffffffffffffffffffffffffffffffff166323b872dd3060036000600454815260200190815260200160002060010160019054906101000a900473ffffffffffffffffffffffffffffffffffffffff16600360006004548152602001908152602001600020600001546040518463ffffffff1660e01b815260040161271b93929190614d08565b602060405180830381600087803b15801561273557600080fd5b505af1158015612749573d6000803e3d6000fd5b505050506040513d601f19601f8201168201806040525081019061276d91906140dc565b61277657600080fd5b50565b60011515600260003373ffffffffffffffffffffffffffffffffffffffff1673ffffffffffffffffffffffffffffffffffffffff16815260200190815260200160002060010160000160009054906101000a900460ff16151514612812576040517f08c379a000000000000000000000000000000000000000000000000000000000815260040161280990615025565b60405180910390fd5b600073ffffffffffffffffffffffffffffffffffffffff168373ffffffffffffffffffffffffffffffffffffffff161415612882576040517f08c379a000000000000000000000000000000000000000000000000000000000815260040161287990614fe5565b60405180910390fd5b600073ffffffffffffffffffffffffffffffffffffffff168173ffffffffffffffffffffffffffffffffffffffff1614156128f2576040517f08c379a00000000000000000000000000000000000000000000000000000000081526004016128e990614de5565b60405180910390fd5b8273ffffffffffffffffffffffffffffffffffffffff166342842e0e3083856040518463ffffffff1660e01b815260040161292f93929190614d08565b600060405180830381600087803b15801561294957600080fd5b505af115801561295d573d6000803e3d6000fd5b50505050505050565b60011515600260003373ffffffffffffffffffffffffffffffffffffffff1673ffffffffffffffffffffffffffffffffffffffff16815260200190815260200160002060010160000160009054906101000a900460ff161515146129ff576040517f08c379a00000000000000000000000000000000000000000000000000000000081526004016129f690615025565b60405180910390fd5b600b54811015612a44576040517f08c379a0000000000000000000000000000000000000000000000000000000008152600401612a3b90615185565b60405180910390fd5b80601260009054906101000a900473ffffffffffffffffffffffffffffffffffffffff1673ffffffffffffffffffffffffffffffffffffffff166370a08231336040518263ffffffff1660e01b8152600401612aa09190614ced565b60206040518083038186803b158015612ab857600080fd5b505afa158015612acc573d6000803e3d6000fd5b505050506040513d601f19601f82011682018060405250810190612af09190614191565b1015612b31576040517f08c379a0000000000000000000000000000000000000000000000000000000008152600401612b2890614e45565b60405180910390fd5b600c54601160009054906101000a900473ffffffffffffffffffffffffffffffffffffffff1673ffffffffffffffffffffffffffffffffffffffff166370a08231336040518263ffffffff1660e01b8152600401612b8f9190614ced565b60206040518083038186803b158015612ba757600080fd5b505afa158015612bbb573d6000803e3d6000fd5b505050506040513d601f19601f82011682018060405250810190612bdf9190614191565b1015612c20576040517f08c379a0000000000000000000000000000000000000000000000000000000008152600401612c1790614f85565b60405180910390fd5b6001600260008473ffffffffffffffffffffffffffffffffffffffff1673ffffffffffffffffffffffffffffffffffffffff16815260200190815260200160002060010160000160016101000a81548160ff02191690831515021790555060056000815480929190612c91906154df565b91905055506000600b541115612da35780600260008473ffffffffffffffffffffffffffffffffffffffff1673ffffffffffffffffffffffffffffffffffffffff16815260200190815260200160002060000181905550601260009054906101000a900473ffffffffffffffffffffffffffffffffffffffff1673ffffffffffffffffffffffffffffffffffffffff166323b872dd3330846040518463ffffffff1660e01b8152600401612d4793929190614d08565b602060405180830381600087803b158015612d6157600080fd5b505af1158015612d75573d6000803e3d6000fd5b505050506040513d601f19601f82011682018060405250810190612d9991906140dc565b612da257600080fd5b5b6000600f54118015612e615750601160009054906101000a900473ffffffffffffffffffffffffffffffffffffffff1673ffffffffffffffffffffffffffffffffffffffff166370a08231306040518263ffffffff1660e01b8152600401612e0b9190614ced565b60206040518083038186803b158015612e2357600080fd5b505afa158015612e37573d6000803e3d6000fd5b505050506040513d601f19601f82011682018060405250810190612e5b9190614191565b600f5411155b15612f6c57612e7d600f54600e54613f3290919063ffffffff16565b600e81905550612e9881600854613f4890919063ffffffff16565b600881905550612eb381600954613f4890919063ffffffff16565b600981905550601160009054906101000a900473ffffffffffffffffffffffffffffffffffffffff1673ffffffffffffffffffffffffffffffffffffffff1663a9059cbb83600f546040518363ffffffff1660e01b8152600401612f18929190614d3f565b602060405180830381600087803b158015612f3257600080fd5b505af1158015612f46573d6000803e3d6000fd5b505050506040513d601f19601f82011682018060405250810190612f6a91906140dc565b505b5050565b600b5481565b60011515600260003373ffffffffffffffffffffffffffffffffffffffff1673ffffffffffffffffffffffffffffffffffffffff16815260200190815260200160002060010160000160019054906101000a900460ff1615151461300f576040517f08c379a000000000000000000000000000000000000000000000000000000000815260040161300690614fa5565b60405180910390fd5b80601260009054906101000a900473ffffffffffffffffffffffffffffffffffffffff1673ffffffffffffffffffffffffffffffffffffffff166370a08231336040518263ffffffff1660e01b815260040161306b9190614ced565b60206040518083038186803b15801561308357600080fd5b505afa158015613097573d6000803e3d6000fd5b505050506040513d601f19601f820116820180604052508101906130bb9190614191565b10156130fc576040517f08c379a00000000000000000000000000000000000000000000000000000000081526004016130f390614ec5565b60405180910390fd5b61315181600260003373ffffffffffffffffffffffffffffffffffffffff1673ffffffffffffffffffffffffffffffffffffffff16815260200190815260200160002060000154613f4890919063ffffffff16565b600260003373ffffffffffffffffffffffffffffffffffffffff1673ffffffffffffffffffffffffffffffffffffffff168152602001908152602001600020600001819055506131ac81600854613f4890919063ffffffff16565b6008819055506131c781600954613f4890919063ffffffff16565b600981905550601260009054906101000a900473ffffffffffffffffffffffffffffffffffffffff1673ffffffffffffffffffffffffffffffffffffffff166323b872dd3330846040518463ffffffff1660e01b815260040161322c93929190614d08565b602060405180830381600087803b15801561324657600080fd5b505af115801561325a573d6000803e3d6000fd5b505050506040513d601f19601f8201168201806040525081019061327e91906140dc565b61328757600080fd5b50565b60075481565b600c5481565b80600015156003600083815260200190815260200160002060070160149054906101000a900460ff16151514613301576040517f08c379a00000000000000000000000000000000000000000000000000000000081526004016132f890615145565b60405180910390fd5b600015156003600083815260200190815260200160002060050160009054906101000a900460ff1615151461336b576040517f08c379a0000000000000000000000000000000000000000000000000000000008152600401613362906151a5565b60405180910390fd5b600a54600360008381526020019081526020016000206003015410156133c6576040517f08c379a00000000000000000000000000000000000000000000000000000000081526004016133bd90614da5565b60405180910390fd5b600360008281526020019081526020016000206004015460036000838152602001908152602001600020600301541015613435576040517f08c379a000000000000000000000000000000000000000000000000000000000815260040161342c90615165565b60405180910390fd5b60016003600084815260200190815260200160002060010160009054906101000a900460ff1660ff161461349e576040517f08c379a000000000000000000000000000000000000000000000000000000000815260040161349590614e85565b60405180910390fd5b60036000838152602001908152602001600020600201600260006003600086815260200190815260200160002060010160019054906101000a900473ffffffffffffffffffffffffffffffffffffffff1673ffffffffffffffffffffffffffffffffffffffff1673ffffffffffffffffffffffffffffffffffffffff1681526020019081526020016000206001016000820160009054906101000a900460ff168160000160006101000a81548160ff0219169083151502179055506000820160019054906101000a900460ff168160000160016101000a81548160ff0219169083151502179055509050506000600260006003600086815260200190815260200160002060070160009054906101000a900473ffffffffffffffffffffffffffffffffffffffff1673ffffffffffffffffffffffffffffffffffffffff1673ffffffffffffffffffffffffffffffffffffffff16815260200190815260200160002060020160006101000a81548160ff02191690831515021790555060016003600084815260200190815260200160002060050160006101000a81548160ff0219169083151502179055505050565b601260009054906101000a900473ffffffffffffffffffffffffffffffffffffffff1681565b60095481565b60011515600260003373ffffffffffffffffffffffffffffffffffffffff1673ffffffffffffffffffffffffffffffffffffffff16815260200190815260200160002060010160000160019054906101000a900460ff16151514613712576040517f08c379a000000000000000000000000000000000000000000000000000000000815260040161370990614fa5565b60405180910390fd5b600015156003600084815260200190815260200160002060090160003373ffffffffffffffffffffffffffffffffffffffff1673ffffffffffffffffffffffffffffffffffffffff16815260200190815260200160002060009054906101000a900460ff161515146137b9576040517f08c379a00000000000000000000000000000000000000000000000000000000081526004016137b090614e65565b60405180910390fd5b600015156003600084815260200190815260200160002060070160149054906101000a900460ff16151514613823576040517f08c379a000000000000000000000000000000000000000000000000000000000815260040161381a90614f05565b60405180910390fd5b600015156003600084815260200190815260200160002060050160009054906101000a900460ff1615151461388d576040517f08c379a000000000000000000000000000000000000000000000000000000000815260040161388490614f65565b60405180910390fd5b42600360008481526020019081526020016000206006015410156138e6576040517f08c379a00000000000000000000000000000000000000000000000000000000081526004016138dd90615085565b60405180910390fd5b60016003600084815260200190815260200160002060090160003373ffffffffffffffffffffffffffffffffffffffff1673ffffffffffffffffffffffffffffffffffffffff16815260200190815260200160002060006101000a81548160ff021916908315150217905550600015158115151415613a5157613a32601160009054906101000a900473ffffffffffffffffffffffffffffffffffffffff1673ffffffffffffffffffffffffffffffffffffffff166370a08231336040518263ffffffff1660e01b81526004016139bd9190614ced565b60206040518083038186803b1580156139d557600080fd5b505afa1580156139e9573d6000803e3d6000fd5b505050506040513d601f19601f82011682018060405250810190613a0d9190614191565b6003600085815260200190815260200160002060040154613f4890919063ffffffff16565b6003600084815260200190815260200160002060040181905550613b3f565b613b24601160009054906101000a900473ffffffffffffffffffffffffffffffffffffffff1673ffffffffffffffffffffffffffffffffffffffff166370a08231336040518263ffffffff1660e01b8152600401613aaf9190614ced565b60206040518083038186803b158015613ac757600080fd5b505afa158015613adb573d6000803e3d6000fd5b505050506040513d601f19601f82011682018060405250810190613aff9190614191565b6003600085815260200190815260200160002060030154613f4890919063ffffffff16565b60036000848152602001908152602001600020600301819055505b5050565b600d5481565b600e5481565b600015156003600083815260200190815260200160002060070160149054906101000a900460ff16151514613b8357600080fd5b600015156003600083815260200190815260200160002060050160009054906101000a900460ff16151514613bb757600080fd5b4260036000838152602001908152602001600020600601541015613bda57600080fd5b3373ffffffffffffffffffffffffffffffffffffffff166003600083815260200190815260200160002060070160009054906101000a900473ffffffffffffffffffffffffffffffffffffffff1673ffffffffffffffffffffffffffffffffffffffff1614613c4857600080fd5b60016003600083815260200190815260200160002060070160146101000a81548160ff0219169083151502179055506000600260006003600085815260200190815260200160002060070160009054906101000a900473ffffffffffffffffffffffffffffffffffffffff1673ffffffffffffffffffffffffffffffffffffffff1673ffffffffffffffffffffffffffffffffffffffff16815260200190815260200160002060020160006101000a81548160ff02191690831515021790555050565b60011515600260003373ffffffffffffffffffffffffffffffffffffffff1673ffffffffffffffffffffffffffffffffffffffff16815260200190815260200160002060010160000160009054906101000a900460ff16151514613da4576040517f08c379a0000000000000000000000000000000000000000000000000000000008152600401613d9b90615025565b60405180910390fd5b6000151560008054906101000a900460ff16151514613df8576040517f08c379a0000000000000000000000000000000000000000000000000000000008152600401613def90614f45565b60405180910390fd5b60016000806101000a81548160ff0219169083151502179055506000600d541115613ed257601160009054906101000a900473ffffffffffffffffffffffffffffffffffffffff1673ffffffffffffffffffffffffffffffffffffffff166323b872dd3330600d546040518463ffffffff1660e01b8152600401613e7e93929190614d08565b602060405180830381600087803b158015613e9857600080fd5b505af1158015613eac573d6000803e3d6000fd5b505050506040513d601f19601f82011682018060405250810190613ed091906140dc565b505b565b60045481565b601160009054906101000a900473ffffffffffffffffffffffffffffffffffffffff1681565b600f5481565b60008183613f149190615397565b905092915050565b60008183613f2a9190615366565b905092915050565b60008183613f4091906153f1565b905092915050565b60008183613f569190615310565b905092915050565b600081359050613f6d816155f5565b92915050565b600081359050613f828161560c565b92915050565b600081519050613f978161560c565b92915050565b600060408284031215613faf57600080fd5b613fb960406152c3565b90506000613fc984828501613f73565b6000830152506020613fdd84828501613f73565b60208301525092915050565b600081359050613ff881615623565b92915050565b60008151905061400d81615623565b92915050565b6000813590506140228161563a565b92915050565b60006020828403121561403a57600080fd5b600061404884828501613f5e565b91505092915050565b6000806040838503121561406457600080fd5b600061407285828601613f5e565b925050602061408385828601613fe9565b9150509250929050565b6000806000606084860312156140a257600080fd5b60006140b086828701613f5e565b93505060206140c186828701613fe9565b92505060406140d286828701613f5e565b9150509250925092565b6000602082840312156140ee57600080fd5b60006140fc84828501613f88565b91505092915050565b60008060008060a0858703121561411b57600080fd5b600061412987828801613f9d565b945050604061413a87828801613f5e565b935050606061414b87828801613fe9565b925050608061415c87828801614013565b91505092959194509250565b60006020828403121561417a57600080fd5b600061418884828501613fe9565b91505092915050565b6000602082840312156141a357600080fd5b60006141b184828501613ffe565b91505092915050565b600080604083850312156141cd57600080fd5b60006141db85828601613fe9565b92505060206141ec85828601613f73565b9150509250929050565b6000806060838503121561420957600080fd5b600061421785828601613fe9565b925050602061422885828601613f9d565b9150509250929050565b61423b81615425565b82525050565b61424a81615437565b82525050565b61425981615437565b82525050565b600061426a826152f4565b61427481856152ff565b935061428481856020860161547a565b61428d816155e4565b840191505092915050565b60006142a56028836152ff565b91507f6368616e676520726f6c6520646f6573206e6f74206d65657420766f7465207460008301527f68726573686f6c640000000000000000000000000000000000000000000000006020830152604082019050919050565b600061430b6022836152ff565b91507f70726f706f73657220646f6573206e6f74206861766520656e6f75676820776560008301527f74680000000000000000000000000000000000000000000000000000000000006020830152604082019050919050565b6000614371601a836152ff565b91507f5f726563697069656e742069732061646472657373207a65726f0000000000006000830152602082019050919050565b60006143b16025836152ff565b91507f70726f706f73616c20616c726561647920656e7465726564206772616365207060008301527f6572696f640000000000000000000000000000000000000000000000000000006020830152604082019050919050565b6000614417601e836152ff565b91507f70726f706f73616c206973206e6f7420656e7465722064616f207479706500006000830152602082019050919050565b60006144576022836152ff565b91507f73706f6e736f7220646f6573206e6f74206861766520636f6e7472696275746960008301527f6f6e0000000000000000000000000000000000000000000000000000000000006020830152604082019050919050565b60006144bd600d836152ff565b91507f616c726561647920766f746564000000000000000000000000000000000000006000830152602082019050919050565b60006144fd6020836152ff565b91507f70726f706f73616c206973206e6f74206368616e676520726f6c6520747970656000830152602082019050919050565b600061453d601c836152ff565b91507f6a6f696e2064616f20697320616c72656164792063616e63656c6564000000006000830152602082019050919050565b600061457d6020836152ff565b91507f6d656d62657220646f6573206e6f74206861766520656e6f75676820776574686000830152602082019050919050565b60006145bd6027836152ff565b91507f6e6f7420656e6f7567682066756e6473206f6e207468652044414f20746f206660008301527f696e616c697a65000000000000000000000000000000000000000000000000006020830152604082019050919050565b6000614623601a836152ff565b91507f70726f706f73616c20686173206265656e2063616e63656c65640000000000006000830152602082019050919050565b60006146636022836152ff565b91507f63616e6e6f742063616e63656c20616e206578656374757265206a6f696e206460008301527f616f0000000000000000000000000000000000000000000000000000000000006020830152604082019050919050565b60006146c96013836152ff565b91507f616c726561647920696e697469616c697a6564000000000000000000000000006000830152602082019050919050565b6000614709601c836152ff565b91507f70726f706f73616c20697320616c7265616479206578656375746564000000006000830152602082019050919050565b60006147496027836152ff565b91507f73706f6e736f7220646f6573206e6f74206861766520656e6f75676820676f7660008301527f20746f6b656e73000000000000000000000000000000000000000000000000006020830152604082019050919050565b60006147af600c836152ff565b91507f6e6f742061206d656d62657200000000000000000000000000000000000000006000830152602082019050919050565b60006147ef6031836152ff565b91507f6d6f72652066756e6473206172652072657175657374207468616e207468652060008301527f44414f2063757272656e746c79206861730000000000000000000000000000006020830152604082019050919050565b60006148556013836152ff565b91507f6e66742061646472657373206973207a65726f000000000000000000000000006000830152602082019050919050565b60006148956022836152ff565b91507f6e6f206d656d62657220636f6e747269627574696f6e20746f2077697468647260008301527f61770000000000000000000000000000000000000000000000000000000000006020830152604082019050919050565b60006148fb6013836152ff565b91507f6e6f7420612068656164206f6620686f757365000000000000000000000000006000830152602082019050919050565b600061493b6027836152ff565b91507f636f6e747269627574696f6e206973206e6f7420686967686572207468616e2060008301527f6d696e696d756d000000000000000000000000000000000000000000000000006020830152604082019050919050565b60006149a16028836152ff565b91507f6a6f696e2064616f20646f6573206e6f74206861766520656e6f75676820676f60008301527f7620746f6b656e730000000000000000000000000000000000000000000000006020830152604082019050919050565b6000614a07601d836152ff565b91507f70726f706f73616c20697320706173742074686520646561646c696e650000006000830152602082019050919050565b6000614a476013836152ff565b91507f6e6f7468696e6720746f207769746864726177000000000000000000000000006000830152602082019050919050565b6000614a87601c836152ff565b91507f677261636520706572696f6420686173206e6f7420656c6170736564000000006000830152602082019050919050565b6000614ac76010836152ff565b91507f616c72656164792061206d656d626572000000000000000000000000000000006000830152602082019050919050565b6000614b07601e836152ff565b91507f70726f706f73616c206973206e6f7420612066756e64696e67207479706500006000830152602082019050919050565b6000614b47602f836152ff565b91507f7375626d69742070726f706f73616c20646f6573206e6f74206861766520656e60008301527f6f75676820676f7620746f6b656e7300000000000000000000000000000000006020830152604082019050919050565b6000614bad6015836152ff565b91507f70726f706f73616c207761732063616e63656c656400000000000000000000006000830152602082019050919050565b6000614bed6015836152ff565b91507f6e6f20766f746573206f757477656967682079657300000000000000000000006000830152602082019050919050565b6000614c2d601b836152ff565b91507f4865616420646964206e6f742073706f6e736f7220656e6f75676800000000006000830152602082019050919050565b6000614c6d6019836152ff565b91507f70726f706f73616c20616c7265616479206578656375746564000000000000006000830152602082019050919050565b604082016000820151614cb66000850182614241565b506020820151614cc96020850182614241565b50505050565b614cd881615463565b82525050565b614ce78161546d565b82525050565b6000602082019050614d026000830184614232565b92915050565b6000606082019050614d1d6000830186614232565b614d2a6020830185614232565b614d376040830184614ccf565b949350505050565b6000604082019050614d546000830185614232565b614d616020830184614ccf565b9392505050565b6000602082019050614d7d6000830184614250565b92915050565b60006020820190508181036000830152614d9d818461425f565b905092915050565b60006020820190508181036000830152614dbe81614298565b9050919050565b60006020820190508181036000830152614dde816142fe565b9050919050565b60006020820190508181036000830152614dfe81614364565b9050919050565b60006020820190508181036000830152614e1e816143a4565b9050919050565b60006020820190508181036000830152614e3e8161440a565b9050919050565b60006020820190508181036000830152614e5e8161444a565b9050919050565b60006020820190508181036000830152614e7e816144b0565b9050919050565b60006020820190508181036000830152614e9e816144f0565b9050919050565b60006020820190508181036000830152614ebe81614530565b9050919050565b60006020820190508181036000830152614ede81614570565b9050919050565b60006020820190508181036000830152614efe816145b0565b9050919050565b60006020820190508181036000830152614f1e81614616565b9050919050565b60006020820190508181036000830152614f3e81614656565b9050919050565b60006020820190508181036000830152614f5e816146bc565b9050919050565b60006020820190508181036000830152614f7e816146fc565b9050919050565b60006020820190508181036000830152614f9e8161473c565b9050919050565b60006020820190508181036000830152614fbe816147a2565b9050919050565b60006020820190508181036000830152614fde816147e2565b9050919050565b60006020820190508181036000830152614ffe81614848565b9050919050565b6000602082019050818103600083015261501e81614888565b9050919050565b6000602082019050818103600083015261503e816148ee565b9050919050565b6000602082019050818103600083015261505e8161492e565b9050919050565b6000602082019050818103600083015261507e81614994565b9050919050565b6000602082019050818103600083015261509e816149fa565b9050919050565b600060208201905081810360008301526150be81614a3a565b9050919050565b600060208201905081810360008301526150de81614a7a565b9050919050565b600060208201905081810360008301526150fe81614aba565b9050919050565b6000602082019050818103600083015261511e81614afa565b9050919050565b6000602082019050818103600083015261513e81614b3a565b9050919050565b6000602082019050818103600083015261515e81614ba0565b9050919050565b6000602082019050818103600083015261517e81614be0565b9050919050565b6000602082019050818103600083015261519e81614c20565b9050919050565b600060208201905081810360008301526151be81614c60565b9050919050565b60006020820190506151da6000830184614ccf565b92915050565b60006080820190506151f56000830186614ccf565b6152026020830185614ca0565b61520f6060830184614250565b949350505050565b60006101808201905061522d600083018e614ccf565b61523a602083018d614cde565b615247604083018c614232565b615254606083018b614ca0565b61526160a083018a614ccf565b61526e60c0830189614ccf565b61527b60e0830188614250565b615289610100830187614ccf565b615297610120830186614232565b6152a5610140830185614250565b6152b3610160830184614ccf565b9c9b505050505050505050505050565b6000604051905081810181811067ffffffffffffffff821117156152ea576152e96155b5565b5b8060405250919050565b600081519050919050565b600082825260208201905092915050565b600061531b82615463565b915061532683615463565b9250827fffffffffffffffffffffffffffffffffffffffffffffffffffffffffffffffff0382111561535b5761535a615528565b5b828201905092915050565b600061537182615463565b915061537c83615463565b92508261538c5761538b615557565b5b828204905092915050565b60006153a282615463565b91506153ad83615463565b9250817fffffffffffffffffffffffffffffffffffffffffffffffffffffffffffffffff04831182151516156153e6576153e5615528565b5b828202905092915050565b60006153fc82615463565b915061540783615463565b92508282101561541a57615419615528565b5b828203905092915050565b600061543082615443565b9050919050565b60008115159050919050565b600073ffffffffffffffffffffffffffffffffffffffff82169050919050565b6000819050919050565b600060ff82169050919050565b60005b8381101561549857808201518184015260208101905061547d565b838111156154a7576000848401525b50505050565b600060028204905060018216806154c557607f821691505b602082108114156154d9576154d8615586565b5b50919050565b60006154ea82615463565b91507fffffffffffffffffffffffffffffffffffffffffffffffffffffffffffffffff82141561551d5761551c615528565b5b600182019050919050565b7f4e487b7100000000000000000000000000000000000000000000000000000000600052601160045260246000fd5b7f4e487b7100000000000000000000000000000000000000000000000000000000600052601260045260246000fd5b7f4e487b7100000000000000000000000000000000000000000000000000000000600052602260045260246000fd5b7f4e487b7100000000000000000000000000000000000000000000000000000000600052604160045260246000fd5b6000601f19601f8301169050919050565b6155fe81615425565b811461560957600080fd5b50565b61561581615437565b811461562057600080fd5b50565b61562c81615463565b811461563757600080fd5b50565b6156438161546d565b811461564e57600080fd5b5056fea2646970667358221220fd097421584cc8e56535049fd5622e24fc24155289b58bf4b105e8815b47e07864736f6c63430008000033",
  "linkReferences": {},
  "deployedLinkReferences": {}
}