{
  "_format": "hh-sol-artifact-1",
  "contractName": "HouseDAOGovernance",
  "sourceName": "contracts/HouseDAOGovernance.sol",
  "abi": [
    {
      "inputs": [
        {
          "internalType": "address[]",
          "name": "heads",
          "type": "address[]"
        },
        {
          "internalType": "address",
          "name": "_governanceToken",
          "type": "address"
        },
        {
          "internalType": "uint256",
          "name": "_entryAmount",
          "type": "uint256"
        },
        {
          "internalType": "uint256",
          "name": "_proposalTime",
          "type": "uint256"
        },
        {
          "internalType": "uint256",
          "name": "_totalGovernanceSupply",
          "type": "uint256"
        },
        {
          "internalType": "uint256",
          "name": "_threshold",
          "type": "uint256"
        }
      ],
      "stateMutability": "nonpayable",
      "type": "constructor"
    },
    {
      "inputs": [],
      "name": "WETH",
      "outputs": [
        {
          "internalType": "address",
          "name": "",
          "type": "address"
        }
      ],
      "stateMutability": "view",
      "type": "function"
    },
    {
      "inputs": [
        {
          "internalType": "uint256",
          "name": "_contribution",
          "type": "uint256"
        }
      ],
      "name": "addMoreContribution",
      "outputs": [],
      "stateMutability": "nonpayable",
      "type": "function"
    },
    {
      "inputs": [],
      "name": "balance",
      "outputs": [
        {
          "internalType": "uint256",
          "name": "",
          "type": "uint256"
        }
      ],
      "stateMutability": "view",
      "type": "function"
    },
    {
      "inputs": [
        {
          "internalType": "uint256",
          "name": "_proposalId",
          "type": "uint256"
        }
      ],
      "name": "cancelEnterDAO",
      "outputs": [],
      "stateMutability": "nonpayable",
      "type": "function"
    },
    {
      "inputs": [
        {
          "internalType": "uint256",
          "name": "_proposalId",
          "type": "uint256"
        }
      ],
      "name": "cancelProposal",
      "outputs": [],
      "stateMutability": "nonpayable",
      "type": "function"
    },
    {
      "inputs": [
        {
          "internalType": "uint256",
          "name": "_contribution",
          "type": "uint256"
        },
        {
          "components": [
            {
              "internalType": "bool",
              "name": "headOfHouse",
              "type": "bool"
            },
            {
              "internalType": "bool",
              "name": "member",
              "type": "bool"
            }
          ],
          "internalType": "struct IHouseDAO.Role",
          "name": "_role",
          "type": "tuple"
        }
      ],
      "name": "enterDAOProposal",
      "outputs": [],
      "stateMutability": "nonpayable",
      "type": "function"
    },
    {
      "inputs": [],
      "name": "entryAmount",
      "outputs": [
        {
          "internalType": "uint256",
          "name": "",
          "type": "uint256"
        }
      ],
      "stateMutability": "view",
      "type": "function"
    },
    {
      "inputs": [
        {
          "internalType": "uint256",
          "name": "_proposalId",
          "type": "uint256"
        }
      ],
      "name": "executeChangeRoleProposal",
      "outputs": [],
      "stateMutability": "nonpayable",
      "type": "function"
    },
    {
      "inputs": [
        {
          "internalType": "uint256",
          "name": "_proposalId",
          "type": "uint256"
        }
      ],
      "name": "executeEnterDAOProposal",
      "outputs": [],
      "stateMutability": "nonpayable",
      "type": "function"
    },
    {
      "inputs": [
        {
          "internalType": "uint256",
          "name": "_proposalId",
          "type": "uint256"
        }
      ],
      "name": "executeFundingProposal",
      "outputs": [],
      "stateMutability": "nonpayable",
      "type": "function"
    },
    {
      "inputs": [
        {
          "internalType": "uint256",
          "name": "_proposalId",
          "type": "uint256"
        }
      ],
      "name": "finalizeFundingProposal",
      "outputs": [],
      "stateMutability": "nonpayable",
      "type": "function"
    },
    {
      "inputs": [],
      "name": "governanceToken",
      "outputs": [
        {
          "internalType": "address",
          "name": "",
          "type": "address"
        }
      ],
      "stateMutability": "view",
      "type": "function"
    },
    {
      "inputs": [],
      "name": "gracePeriod",
      "outputs": [
        {
          "internalType": "uint256",
          "name": "",
          "type": "uint256"
        }
      ],
      "stateMutability": "view",
      "type": "function"
    },
    {
      "inputs": [
        {
          "internalType": "address",
          "name": "_member",
          "type": "address"
        },
        {
          "internalType": "uint256",
          "name": "_contribution",
          "type": "uint256"
        }
      ],
      "name": "headOfHouseEnterMember",
      "outputs": [],
      "stateMutability": "nonpayable",
      "type": "function"
    },
    {
      "inputs": [],
      "name": "proposalTime",
      "outputs": [
        {
          "internalType": "uint256",
          "name": "",
          "type": "uint256"
        }
      ],
      "stateMutability": "view",
      "type": "function"
    },
    {
      "inputs": [
        {
          "internalType": "uint256",
          "name": "",
          "type": "uint256"
        }
      ],
      "name": "proposals",
      "outputs": [
        {
          "internalType": "uint256",
          "name": "fundsRequested",
          "type": "uint256"
        },
        {
          "internalType": "uint8",
          "name": "proposalType",
          "type": "uint8"
        },
        {
          "internalType": "address",
          "name": "targetAddress",
          "type": "address"
        },
        {
          "components": [
            {
              "internalType": "bool",
              "name": "headOfHouse",
              "type": "bool"
            },
            {
              "internalType": "bool",
              "name": "member",
              "type": "bool"
            }
          ],
          "internalType": "struct IHouseDAO.Role",
          "name": "role",
          "type": "tuple"
        },
        {
          "internalType": "uint256",
          "name": "yesVotes",
          "type": "uint256"
        },
        {
          "internalType": "uint256",
          "name": "noVotes",
          "type": "uint256"
        },
        {
          "internalType": "bool",
          "name": "executed",
          "type": "bool"
        },
        {
          "internalType": "uint256",
          "name": "deadline",
          "type": "uint256"
        },
        {
          "internalType": "address",
          "name": "proposer",
          "type": "address"
        },
        {
          "internalType": "bool",
          "name": "canceled",
          "type": "bool"
        },
        {
          "internalType": "uint256",
          "name": "gracePeriod",
          "type": "uint256"
        }
      ],
      "stateMutability": "view",
      "type": "function"
    },
    {
      "inputs": [],
      "name": "remainingSupply",
      "outputs": [
        {
          "internalType": "uint256",
          "name": "",
          "type": "uint256"
        }
      ],
      "stateMutability": "view",
      "type": "function"
    },
    {
      "inputs": [
        {
          "internalType": "address",
          "name": "_nftAddress",
          "type": "address"
        },
        {
          "internalType": "uint256",
          "name": "_nftId",
          "type": "uint256"
        },
        {
          "internalType": "address",
          "name": "_recipient",
          "type": "address"
        }
      ],
      "name": "sendNFT",
      "outputs": [],
      "stateMutability": "nonpayable",
      "type": "function"
    },
    {
      "inputs": [
        {
          "components": [
            {
              "internalType": "bool",
              "name": "headOfHouse",
              "type": "bool"
            },
            {
              "internalType": "bool",
              "name": "member",
              "type": "bool"
            }
          ],
          "internalType": "struct IHouseDAO.Role",
          "name": "_role",
          "type": "tuple"
        },
        {
          "internalType": "address",
          "name": "_recipient",
          "type": "address"
        },
        {
          "internalType": "uint256",
          "name": "_funding",
          "type": "uint256"
        },
        {
          "internalType": "uint8",
          "name": "_proposalType",
          "type": "uint8"
        }
      ],
      "name": "submitProposal",
      "outputs": [],
      "stateMutability": "nonpayable",
      "type": "function"
    },
    {
      "inputs": [],
      "name": "threshold",
      "outputs": [
        {
          "internalType": "uint256",
          "name": "",
          "type": "uint256"
        }
      ],
      "stateMutability": "view",
      "type": "function"
    },
    {
      "inputs": [],
      "name": "totalContribution",
      "outputs": [
        {
          "internalType": "uint256",
          "name": "",
          "type": "uint256"
        }
      ],
      "stateMutability": "view",
      "type": "function"
    },
    {
      "inputs": [],
      "name": "totalGovernanceSupply",
      "outputs": [
        {
          "internalType": "uint256",
          "name": "",
          "type": "uint256"
        }
      ],
      "stateMutability": "view",
      "type": "function"
    },
    {
      "inputs": [],
      "name": "totalProposalCount",
      "outputs": [
        {
          "internalType": "uint256",
          "name": "",
          "type": "uint256"
        }
      ],
      "stateMutability": "view",
      "type": "function"
    },
    {
      "inputs": [
        {
          "internalType": "uint256",
          "name": "_proposalId",
          "type": "uint256"
        },
        {
          "internalType": "bool",
          "name": "_vote",
          "type": "bool"
        }
      ],
      "name": "vote",
      "outputs": [],
      "stateMutability": "nonpayable",
      "type": "function"
    },
    {
      "inputs": [
        {
          "internalType": "uint256",
          "name": "_amount",
          "type": "uint256"
        }
      ],
      "name": "withdraw",
      "outputs": [],
      "stateMutability": "nonpayable",
      "type": "function"
    }
  ],
  "bytecode": "0x608060405260006002556203f4806004556000600c60006101000a81548173ffffffffffffffffffffffffffffffffffffffff021916908373ffffffffffffffffffffffffffffffffffffffff1602179055503480156200005f57600080fd5b50604051620035323803806200353283398181016040528101906200008591906200044e565b60005b86518110156200026057600073ffffffffffffffffffffffffffffffffffffffff16878281518110620000e4577f4e487b7100000000000000000000000000000000000000000000000000000000600052603260045260246000fd5b602002602001015173ffffffffffffffffffffffffffffffffffffffff1614156200010e57600080fd5b60016000808984815181106200014d577f4e487b7100000000000000000000000000000000000000000000000000000000600052603260045260246000fd5b602002602001015173ffffffffffffffffffffffffffffffffffffffff1673ffffffffffffffffffffffffffffffffffffffff16815260200190815260200160002060010160000160006101000a81548160ff0219169083151502179055506001600080898481518110620001eb577f4e487b7100000000000000000000000000000000000000000000000000000000600052603260045260246000fd5b602002602001015173ffffffffffffffffffffffffffffffffffffffff1673ffffffffffffffffffffffffffffffffffffffff16815260200190815260200160002060010160000160016101000a81548160ff0219169083151502179055508080620002579062000635565b91505062000088565b5084600b60006101000a81548173ffffffffffffffffffffffffffffffffffffffff021916908373ffffffffffffffffffffffffffffffffffffffff1602179055508360088190555082600381905550806007819055508160098190555081600a819055508473ffffffffffffffffffffffffffffffffffffffff166323b872dd3330856040518463ffffffff1660e01b815260040162000304939291906200054b565b602060405180830381600087803b1580156200031f57600080fd5b505af115801562000334573d6000803e3d6000fd5b505050506040513d601f19601f820116820180604052508101906200035a9190620004fd565b505050505050506200072f565b60006200037e6200037884620005bc565b62000588565b905080838252602082019050828560208602820111156200039e57600080fd5b60005b85811015620003d25781620003b78882620003dc565b845260208401935060208301925050600181019050620003a1565b5050509392505050565b600081519050620003ed81620006e1565b92915050565b600082601f8301126200040557600080fd5b81516200041784826020860162000367565b91505092915050565b6000815190506200043181620006fb565b92915050565b600081519050620004488162000715565b92915050565b60008060008060008060c087890312156200046857600080fd5b600087015167ffffffffffffffff8111156200048357600080fd5b6200049189828a01620003f3565b9650506020620004a489828a01620003dc565b9550506040620004b789828a0162000437565b9450506060620004ca89828a0162000437565b9350506080620004dd89828a0162000437565b92505060a0620004f089828a0162000437565b9150509295509295509295565b6000602082840312156200051057600080fd5b6000620005208482850162000420565b91505092915050565b6200053481620005eb565b82525050565b62000545816200062b565b82525050565b600060608201905062000562600083018662000529565b62000571602083018562000529565b6200058060408301846200053a565b949350505050565b6000604051905081810181811067ffffffffffffffff82111715620005b257620005b1620006b2565b5b8060405250919050565b600067ffffffffffffffff821115620005da57620005d9620006b2565b5b602082029050602081019050919050565b6000620005f8826200060b565b9050919050565b60008115159050919050565b600073ffffffffffffffffffffffffffffffffffffffff82169050919050565b6000819050919050565b600062000642826200062b565b91507fffffffffffffffffffffffffffffffffffffffffffffffffffffffffffffffff82141562000678576200067762000683565b5b600182019050919050565b7f4e487b7100000000000000000000000000000000000000000000000000000000600052601160045260246000fd5b7f4e487b7100000000000000000000000000000000000000000000000000000000600052604160045260246000fd5b620006ec81620005eb565b8114620006f857600080fd5b50565b6200070681620005ff565b81146200071257600080fd5b50565b62000720816200062b565b81146200072c57600080fd5b50565b612df3806200073f6000396000f3fe608060405234801561001057600080fd5b50600436106101735760003560e01c8063991def3c116100de578063c9d27afe11610097578063e0a8f6f511610071578063e0a8f6f5146103f4578063ead0eedf14610410578063f96dae0a1461042e578063f9ca56d91461044c57610173565b8063c9d27afe1461039c578063cd38b772146103b8578063da0239a6146103d657610173565b8063991def3c146102ec5780639f23da671461030a578063a06db7dc14610326578063ad15140c14610344578063ad5c464814610360578063b69ef8a81461037e57610173565b806354c37def1161013057806354c37def146102445780635d3a8363146102605780637e44d7881461027c5780637fa3fa7c14610298578063844ccf7d146102b45780638c9f6bc3146102d057610173565b8063013cf08b146101785780630dcf4b8f146101b2578063184a0ae9146101d05780632e1a7d4d146101ee57806342cde4e81461020a57806349774ae214610228575b600080fd5b610192600480360381019061018d9190612799565b610468565b6040516101a99b9a99989796959493929190612a33565b60405180910390f35b6101ba610569565b6040516101c79190612a18565b60405180910390f35b6101d861056f565b6040516101e59190612a18565b60405180910390f35b61020860048036038101906102039190612799565b610575565b005b6102126107c2565b60405161021f9190612a18565b60405180910390f35b610242600480360381019061023d9190612799565b6107c8565b005b61025e60048036038101906102599190612799565b610b08565b005b61027a60048036038101906102759190612736565b610c6b565b005b61029660048036038101906102919190612799565b610f79565b005b6102b260048036038101906102ad9190612827565b611115565b005b6102ce60048036038101906102c991906126be565b6114a4565b005b6102ea60048036038101906102e59190612682565b6115b0565b005b6102f46118dc565b6040516103019190612a18565b60405180910390f35b610324600480360381019061031f9190612799565b6118e2565b005b61032e611d54565b60405161033b9190612a18565b60405180910390f35b61035e60048036038101906103599190612799565b611d5a565b005b610368611f08565b604051610375919061295d565b60405180910390f35b610386611f2e565b6040516103939190612a18565b60405180910390f35b6103b660048036038101906103b191906127eb565b611f34565b005b6103c0612248565b6040516103cd9190612a18565b60405180910390f35b6103de61224e565b6040516103eb9190612a18565b60405180910390f35b61040e60048036038101906104099190612799565b612254565b005b61041861237e565b6040516104259190612a18565b60405180910390f35b610436612384565b604051610443919061295d565b60405180910390f35b61046660048036038101906104619190612799565b6123aa565b005b60016020528060005260406000206000915090508060000154908060010160009054906101000a900460ff16908060010160019054906101000a900473ffffffffffffffffffffffffffffffffffffffff1690806002016040518060400160405290816000820160009054906101000a900460ff161515151581526020016000820160019054906101000a900460ff161515151581525050908060030154908060040154908060050160009054906101000a900460ff16908060060154908060070160009054906101000a900473ffffffffffffffffffffffffffffffffffffffff16908060070160149054906101000a900460ff1690806008015490508b565b60055481565b60035481565b806000803373ffffffffffffffffffffffffffffffffffffffff1673ffffffffffffffffffffffffffffffffffffffff1681526020019081526020016000206000015410156105c357600080fd5b600061061b6005546000803373ffffffffffffffffffffffffffffffffffffffff1673ffffffffffffffffffffffffffffffffffffffff1681526020019081526020016000206000015461256090919063ffffffff16565b905060006106348260065461257690919063ffffffff16565b905061068a836000803373ffffffffffffffffffffffffffffffffffffffff1673ffffffffffffffffffffffffffffffffffffffff1681526020019081526020016000206000015461258c90919063ffffffff16565b6000803373ffffffffffffffffffffffffffffffffffffffff1673ffffffffffffffffffffffffffffffffffffffff168152602001908152602001600020600001819055506106e48360055461258c90919063ffffffff16565b6005819055506106ff8160065461258c90919063ffffffff16565b600681905550600c60009054906101000a900473ffffffffffffffffffffffffffffffffffffffff1673ffffffffffffffffffffffffffffffffffffffff1663a9059cbb33836040518363ffffffff1660e01b81526004016107629291906129af565b602060405180830381600087803b15801561077c57600080fd5b505af1158015610790573d6000803e3d6000fd5b505050506040513d601f19601f820116820180604052508101906107b4919061270d565b6107bd57600080fd5b505050565b60075481565b600015156001600083815260200190815260200160002060070160149054906101000a900460ff161515146107fc57600080fd5b600015156001600083815260200190815260200160002060050160009054906101000a900460ff1615151461083057600080fd5b60026001600083815260200190815260200160002060010160009054906101000a900460ff1660ff161461086357600080fd5b60016000803373ffffffffffffffffffffffffffffffffffffffff1673ffffffffffffffffffffffffffffffffffffffff16815260200190815260200160002060010160000160016101000a81548160ff02191690831515021790555060016000828152602001908152602001600020600001546000803373ffffffffffffffffffffffffffffffffffffffff1673ffffffffffffffffffffffffffffffffffffffff1681526020019081526020016000206000018190555061094760016000838152602001908152602001600020600001546005546125a290919063ffffffff16565b600581905550600b60009054906101000a900473ffffffffffffffffffffffffffffffffffffffff1673ffffffffffffffffffffffffffffffffffffffff166370a08231306040518263ffffffff1660e01b81526004016109a8919061295d565b60206040518083038186803b1580156109c057600080fd5b505afa1580156109d4573d6000803e3d6000fd5b505050506040513d601f19601f820116820180604052508101906109f891906127c2565b60016000838152602001908152602001600020600001541115610ade57600b60009054906101000a900473ffffffffffffffffffffffffffffffffffffffff1673ffffffffffffffffffffffffffffffffffffffff166323b872dd333060016000868152602001908152602001600020600001546040518463ffffffff1660e01b8152600401610a8a93929190612978565b602060405180830381600087803b158015610aa457600080fd5b505af1158015610ab8573d6000803e3d6000fd5b505050506040513d601f19601f82011682018060405250810190610adc919061270d565b505b600115156001600083815260200190815260200160002060050160009054906101000a9050505050565b600015156001600083815260200190815260200160002060070160149054906101000a900460ff16151514610b3c57600080fd5b600015156001600083815260200190815260200160002060050160009054906101000a900460ff16151514610b7057600080fd5b60006001600083815260200190815260200160002060010160009054906101000a900460ff1660ff1614610ba357600080fd5b600160006002548152602001908152602001600020600001546006541015610bca57600080fd5b60075460016000838152602001908152602001600020600301541015610bef57600080fd5b4260016000838152602001908152602001600020600601541015610c1257600080fd5b600180600083815260200190815260200160002060050160006101000a81548160ff02191690831515021790555060045442610c4e9190612b21565b600160008381526020019081526020016000206008018190555050565b600115156000803373ffffffffffffffffffffffffffffffffffffffff1673ffffffffffffffffffffffffffffffffffffffff16815260200190815260200160002060010160000160019054906101000a900460ff16151514610d03576040517f08c379a0000000000000000000000000000000000000000000000000000000008152600401610cfa906129d8565b60405180910390fd5b816006541015610d1257600080fd5b81600160006002548152602001908152602001600020600001819055508360016000600254815260200190815260200160002060020160008201518160000160006101000a81548160ff02191690831515021790555060208201518160000160016101000a81548160ff0219169083151502179055509050508060016000600254815260200190815260200160002060010160006101000a81548160ff021916908360ff160217905550600b60009054906101000a900473ffffffffffffffffffffffffffffffffffffffff1673ffffffffffffffffffffffffffffffffffffffff166370a08231336040518263ffffffff1660e01b8152600401610e17919061295d565b60206040518083038186803b158015610e2f57600080fd5b505afa158015610e43573d6000803e3d6000fd5b505050506040513d601f19601f82011682018060405250810190610e6791906127c2565b6001600060025481526020019081526020016000206003018190555060035442610e919190612b21565b600160006002548152602001908152602001600020600601819055503360016000600254815260200190815260200160002060070160006101000a81548173ffffffffffffffffffffffffffffffffffffffff021916908373ffffffffffffffffffffffffffffffffffffffff1602179055508260016000600254815260200190815260200160002060010160016101000a81548173ffffffffffffffffffffffffffffffffffffffff021916908373ffffffffffffffffffffffffffffffffffffffff16021790555060026000815480929190610f6e90612c8b565b919050555050505050565b600015156001600083815260200190815260200160002060070160149054906101000a900460ff16151514610fad57600080fd5b600015156001600083815260200190815260200160002060050160009054906101000a900460ff16151514610fe157600080fd5b600c60009054906101000a900473ffffffffffffffffffffffffffffffffffffffff1673ffffffffffffffffffffffffffffffffffffffff166323b872dd3060016000600254815260200190815260200160002060010160019054906101000a900473ffffffffffffffffffffffffffffffffffffffff16600160006002548152602001908152602001600020600001546040518463ffffffff1660e01b815260040161109093929190612978565b602060405180830381600087803b1580156110aa57600080fd5b505af11580156110be573d6000803e3d6000fd5b505050506040513d601f19601f820116820180604052508101906110e2919061270d565b6110eb57600080fd5b600115156001600083815260200190815260200160002060070160149054906101000a9050505050565b60085482101561112457600080fd5b81600c60009054906101000a900473ffffffffffffffffffffffffffffffffffffffff1673ffffffffffffffffffffffffffffffffffffffff166370a08231336040518263ffffffff1660e01b8152600401611180919061295d565b60206040518083038186803b15801561119857600080fd5b505afa1580156111ac573d6000803e3d6000fd5b505050506040513d601f19601f820116820180604052508101906111d091906127c2565b10156111db57600080fd5b81600160006002548152602001908152602001600020600001819055508060016000600254815260200190815260200160002060020160008201518160000160006101000a81548160ff02191690831515021790555060208201518160000160016101000a81548160ff021916908315150217905550905050600260016000600254815260200190815260200160002060010160006101000a81548160ff021916908360ff160217905550600b60009054906101000a900473ffffffffffffffffffffffffffffffffffffffff1673ffffffffffffffffffffffffffffffffffffffff166370a08231336040518263ffffffff1660e01b81526004016112e1919061295d565b60206040518083038186803b1580156112f957600080fd5b505afa15801561130d573d6000803e3d6000fd5b505050506040513d601f19601f8201168201806040525081019061133191906127c2565b600160006002548152602001908152602001600020600301819055506003544261135b9190612b21565b600160006002548152602001908152602001600020600601819055503360016000600254815260200190815260200160002060070160006101000a81548173ffffffffffffffffffffffffffffffffffffffff021916908373ffffffffffffffffffffffffffffffffffffffff160217905550600c60009054906101000a900473ffffffffffffffffffffffffffffffffffffffff1673ffffffffffffffffffffffffffffffffffffffff166323b872dd3330856040518463ffffffff1660e01b815260040161142d93929190612978565b602060405180830381600087803b15801561144757600080fd5b505af115801561145b573d6000803e3d6000fd5b505050506040513d601f19601f8201168201806040525081019061147f919061270d565b61148857600080fd5b6002600081548092919061149b90612c8b565b91905055505050565b600115156000803373ffffffffffffffffffffffffffffffffffffffff1673ffffffffffffffffffffffffffffffffffffffff16815260200190815260200160002060010160000160009054906101000a900460ff1615151461153c576040517f08c379a0000000000000000000000000000000000000000000000000000000008152600401611533906129f8565b60405180910390fd5b8273ffffffffffffffffffffffffffffffffffffffff166342842e0e3083856040518463ffffffff1660e01b815260040161157993929190612978565b600060405180830381600087803b15801561159357600080fd5b505af11580156115a7573d6000803e3d6000fd5b50505050505050565b6008548110156115bf57600080fd5b80600c60009054906101000a900473ffffffffffffffffffffffffffffffffffffffff1673ffffffffffffffffffffffffffffffffffffffff166370a08231846040518263ffffffff1660e01b815260040161161b919061295d565b60206040518083038186803b15801561163357600080fd5b505afa158015611647573d6000803e3d6000fd5b505050506040513d601f19601f8201168201806040525081019061166b91906127c2565b101561167657600080fd5b60016000808473ffffffffffffffffffffffffffffffffffffffff1673ffffffffffffffffffffffffffffffffffffffff16815260200190815260200160002060010160000160016101000a81548160ff021916908315150217905550806000808473ffffffffffffffffffffffffffffffffffffffff1673ffffffffffffffffffffffffffffffffffffffff1681526020019081526020016000206000018190555060008111156118d857611737816005546125a290919063ffffffff16565b600581905550611752816006546125a290919063ffffffff16565b600681905550600c60009054906101000a900473ffffffffffffffffffffffffffffffffffffffff1673ffffffffffffffffffffffffffffffffffffffff166323b872dd8330846040518463ffffffff1660e01b81526004016117b793929190612978565b602060405180830381600087803b1580156117d157600080fd5b505af11580156117e5573d6000803e3d6000fd5b505050506040513d601f19601f82011682018060405250810190611809919061270d565b50600b60009054906101000a900473ffffffffffffffffffffffffffffffffffffffff1673ffffffffffffffffffffffffffffffffffffffff166323b872dd3084846040518463ffffffff1660e01b815260040161186993929190612978565b602060405180830381600087803b15801561188357600080fd5b505af1158015611897573d6000803e3d6000fd5b505050506040513d601f19601f820116820180604052508101906118bb919061270d565b506118d181600a5461258c90919063ffffffff16565b600a819055505b5050565b60085481565b600115156000803373ffffffffffffffffffffffffffffffffffffffff1673ffffffffffffffffffffffffffffffffffffffff16815260200190815260200160002060010160000160019054906101000a900460ff1615151461197a576040517f08c379a0000000000000000000000000000000000000000000000000000000008152600401611971906129d8565b60405180910390fd5b60085481101561198957600080fd5b80600c60009054906101000a900473ffffffffffffffffffffffffffffffffffffffff1673ffffffffffffffffffffffffffffffffffffffff166370a08231336040518263ffffffff1660e01b81526004016119e5919061295d565b60206040518083038186803b1580156119fd57600080fd5b505afa158015611a11573d6000803e3d6000fd5b505050506040513d601f19601f82011682018060405250810190611a3591906127c2565b1015611a4057600080fd5b611a94816000803373ffffffffffffffffffffffffffffffffffffffff1673ffffffffffffffffffffffffffffffffffffffff168152602001908152602001600020600001546125a290919063ffffffff16565b6000803373ffffffffffffffffffffffffffffffffffffffff1673ffffffffffffffffffffffffffffffffffffffff16815260200190815260200160002060000181905550611aee816005546125a290919063ffffffff16565b600581905550611b09816006546125a290919063ffffffff16565b600681905550600c60009054906101000a900473ffffffffffffffffffffffffffffffffffffffff1673ffffffffffffffffffffffffffffffffffffffff166323b872dd3330846040518463ffffffff1660e01b8152600401611b6e93929190612978565b602060405180830381600087803b158015611b8857600080fd5b505af1158015611b9c573d6000803e3d6000fd5b505050506040513d601f19601f82011682018060405250810190611bc0919061270d565b611bc957600080fd5b80600b60009054906101000a900473ffffffffffffffffffffffffffffffffffffffff1673ffffffffffffffffffffffffffffffffffffffff166370a08231306040518263ffffffff1660e01b8152600401611c25919061295d565b60206040518083038186803b158015611c3d57600080fd5b505afa158015611c51573d6000803e3d6000fd5b505050506040513d601f19601f82011682018060405250810190611c7591906127c2565b1115611d3657600b60009054906101000a900473ffffffffffffffffffffffffffffffffffffffff1673ffffffffffffffffffffffffffffffffffffffff166323b872dd3033846040518463ffffffff1660e01b8152600401611cda93929190612978565b602060405180830381600087803b158015611cf457600080fd5b505af1158015611d08573d6000803e3d6000fd5b505050506040513d601f19601f82011682018060405250810190611d2c919061270d565b611d3557600080fd5b5b611d4b81600a5461258c90919063ffffffff16565b600a8190555050565b60045481565b600015156001600083815260200190815260200160002060070160149054906101000a900460ff16151514611d8e57600080fd5b600015156001600083815260200190815260200160002060050160009054906101000a900460ff16151514611dc257600080fd5b600180600083815260200190815260200160002060010160009054906101000a900460ff1660ff1614611df457600080fd5b600160008281526020019081526020016000206002016000806001600085815260200190815260200160002060010160019054906101000a900473ffffffffffffffffffffffffffffffffffffffff1673ffffffffffffffffffffffffffffffffffffffff1673ffffffffffffffffffffffffffffffffffffffff1681526020019081526020016000206001016000820160009054906101000a900460ff168160000160006101000a81548160ff0219169083151502179055506000820160019054906101000a900460ff168160000160016101000a81548160ff021916908315150217905550905050600115156001600083815260200190815260200160002060050160009054906101000a9050505050565b600c60009054906101000a900473ffffffffffffffffffffffffffffffffffffffff1681565b60065481565b600115156000803373ffffffffffffffffffffffffffffffffffffffff1673ffffffffffffffffffffffffffffffffffffffff16815260200190815260200160002060010160000160019054906101000a900460ff16151514611fcc576040517f08c379a0000000000000000000000000000000000000000000000000000000008152600401611fc3906129d8565b60405180910390fd5b600015156001600084815260200190815260200160002060070160149054906101000a900460ff1615151461200057600080fd5b600015156001600084815260200190815260200160002060050160009054906101000a900460ff1615151461203457600080fd5b426001600084815260200190815260200160002060060154101561205757600080fd5b60001515811515141561215657612137600b60009054906101000a900473ffffffffffffffffffffffffffffffffffffffff1673ffffffffffffffffffffffffffffffffffffffff166370a08231336040518263ffffffff1660e01b81526004016120c2919061295d565b60206040518083038186803b1580156120da57600080fd5b505afa1580156120ee573d6000803e3d6000fd5b505050506040513d601f19601f8201168201806040525081019061211291906127c2565b60016000858152602001908152602001600020600401546125a290919063ffffffff16565b6001600084815260200190815260200160002060040181905550612244565b612229600b60009054906101000a900473ffffffffffffffffffffffffffffffffffffffff1673ffffffffffffffffffffffffffffffffffffffff166370a08231336040518263ffffffff1660e01b81526004016121b4919061295d565b60206040518083038186803b1580156121cc57600080fd5b505afa1580156121e0573d6000803e3d6000fd5b505050506040513d601f19601f8201168201806040525081019061220491906127c2565b60016000858152602001908152602001600020600301546125a290919063ffffffff16565b60016000848152602001908152602001600020600301819055505b5050565b60095481565b600a5481565b600015156001600083815260200190815260200160002060070160149054906101000a900460ff1615151461228857600080fd5b600015156001600083815260200190815260200160002060050160009054906101000a900460ff161515146122bc57600080fd5b42600160008381526020019081526020016000206006015410156122df57600080fd5b3373ffffffffffffffffffffffffffffffffffffffff166001600083815260200190815260200160002060070160009054906101000a900473ffffffffffffffffffffffffffffffffffffffff1673ffffffffffffffffffffffffffffffffffffffff161461234d57600080fd5b600180600083815260200190815260200160002060070160146101000a81548160ff02191690831515021790555050565b60025481565b600b60009054906101000a900473ffffffffffffffffffffffffffffffffffffffff1681565b600160008281526020019081526020016000206000015460065410156123cf57600080fd5b600115156001600083815260200190815260200160002060050160009054906101000a900460ff1615151461240357600080fd5b600160008281526020019081526020016000206008015442101561242657600080fd5b612451600160008381526020019081526020016000206000015460065461258c90919063ffffffff16565b600681905550600c60009054906101000a900473ffffffffffffffffffffffffffffffffffffffff1673ffffffffffffffffffffffffffffffffffffffff166323b872dd306001600085815260200190815260200160002060010160019054906101000a900473ffffffffffffffffffffffffffffffffffffffff1660016000868152602001908152602001600020600001546040518463ffffffff1660e01b815260040161250293929190612978565b602060405180830381600087803b15801561251c57600080fd5b505af1158015612530573d6000803e3d6000fd5b505050506040513d601f19601f82011682018060405250810190612554919061270d565b61255d57600080fd5b50565b6000818361256e9190612b77565b905092915050565b600081836125849190612ba8565b905092915050565b6000818361259a9190612c02565b905092915050565b600081836125b09190612b21565b905092915050565b6000813590506125c781612d61565b92915050565b6000813590506125dc81612d78565b92915050565b6000815190506125f181612d78565b92915050565b60006040828403121561260957600080fd5b6126136040612adf565b90506000612623848285016125cd565b6000830152506020612637848285016125cd565b60208301525092915050565b60008135905061265281612d8f565b92915050565b60008151905061266781612d8f565b92915050565b60008135905061267c81612da6565b92915050565b6000806040838503121561269557600080fd5b60006126a3858286016125b8565b92505060206126b485828601612643565b9150509250929050565b6000806000606084860312156126d357600080fd5b60006126e1868287016125b8565b93505060206126f286828701612643565b9250506040612703868287016125b8565b9150509250925092565b60006020828403121561271f57600080fd5b600061272d848285016125e2565b91505092915050565b60008060008060a0858703121561274c57600080fd5b600061275a878288016125f7565b945050604061276b878288016125b8565b935050606061277c87828801612643565b925050608061278d8782880161266d565b91505092959194509250565b6000602082840312156127ab57600080fd5b60006127b984828501612643565b91505092915050565b6000602082840312156127d457600080fd5b60006127e284828501612658565b91505092915050565b600080604083850312156127fe57600080fd5b600061280c85828601612643565b925050602061281d858286016125cd565b9150509250929050565b6000806060838503121561283a57600080fd5b600061284885828601612643565b9250506020612859858286016125f7565b9150509250929050565b61286c81612c36565b82525050565b61287b81612c48565b82525050565b61288a81612c48565b82525050565b600061289d600c83612b10565b91507f6e6f742061206d656d62657200000000000000000000000000000000000000006000830152602082019050919050565b60006128dd601383612b10565b91507f6e6f7420612068656164206f6620686f757365000000000000000000000000006000830152602082019050919050565b6040820160008201516129266000850182612872565b5060208201516129396020850182612872565b50505050565b61294881612c74565b82525050565b61295781612c7e565b82525050565b60006020820190506129726000830184612863565b92915050565b600060608201905061298d6000830186612863565b61299a6020830185612863565b6129a7604083018461293f565b949350505050565b60006040820190506129c46000830185612863565b6129d1602083018461293f565b9392505050565b600060208201905081810360008301526129f181612890565b9050919050565b60006020820190508181036000830152612a11816128d0565b9050919050565b6000602082019050612a2d600083018461293f565b92915050565b600061018082019050612a49600083018e61293f565b612a56602083018d61294e565b612a63604083018c612863565b612a70606083018b612910565b612a7d60a083018a61293f565b612a8a60c083018961293f565b612a9760e0830188612881565b612aa561010083018761293f565b612ab3610120830186612863565b612ac1610140830185612881565b612acf61016083018461293f565b9c9b505050505050505050505050565b6000604051905081810181811067ffffffffffffffff82111715612b0657612b05612d32565b5b8060405250919050565b600082825260208201905092915050565b6000612b2c82612c74565b9150612b3783612c74565b9250827fffffffffffffffffffffffffffffffffffffffffffffffffffffffffffffffff03821115612b6c57612b6b612cd4565b5b828201905092915050565b6000612b8282612c74565b9150612b8d83612c74565b925082612b9d57612b9c612d03565b5b828204905092915050565b6000612bb382612c74565b9150612bbe83612c74565b9250817fffffffffffffffffffffffffffffffffffffffffffffffffffffffffffffffff0483118215151615612bf757612bf6612cd4565b5b828202905092915050565b6000612c0d82612c74565b9150612c1883612c74565b925082821015612c2b57612c2a612cd4565b5b828203905092915050565b6000612c4182612c54565b9050919050565b60008115159050919050565b600073ffffffffffffffffffffffffffffffffffffffff82169050919050565b6000819050919050565b600060ff82169050919050565b6000612c9682612c74565b91507fffffffffffffffffffffffffffffffffffffffffffffffffffffffffffffffff821415612cc957612cc8612cd4565b5b600182019050919050565b7f4e487b7100000000000000000000000000000000000000000000000000000000600052601160045260246000fd5b7f4e487b7100000000000000000000000000000000000000000000000000000000600052601260045260246000fd5b7f4e487b7100000000000000000000000000000000000000000000000000000000600052604160045260246000fd5b612d6a81612c36565b8114612d7557600080fd5b50565b612d8181612c48565b8114612d8c57600080fd5b50565b612d9881612c74565b8114612da357600080fd5b50565b612daf81612c7e565b8114612dba57600080fd5b5056fea26469706673582212209a02a92960370f1060bab45fae821b3e24e23544f338ec797ffbc19f1f03886e64736f6c63430008000033",
  "linkReferences": {},
  "deployedLinkReferences": {}
}